{
	"contracts/TokenDistributor.sol": {
		"TokenDistributor": {
			"abi": [
				{
					"inputs": [],
					"stateMutability": "nonpayable",
					"type": "constructor"
				},
				{
					"anonymous": false,
					"inputs": [
						{
							"indexed": true,
							"internalType": "address",
							"name": "newAdmin",
							"type": "address"
						}
					],
					"name": "AdminAdded",
					"type": "event"
				},
				{
					"anonymous": false,
					"inputs": [
						{
							"indexed": true,
							"internalType": "address",
							"name": "removedAdmin",
							"type": "address"
						}
					],
					"name": "AdminRemoved",
					"type": "event"
				},
				{
					"anonymous": false,
					"inputs": [
						{
							"indexed": true,
							"internalType": "address",
							"name": "recipient",
							"type": "address"
						},
						{
							"indexed": false,
							"internalType": "uint256",
							"name": "amount",
							"type": "uint256"
						}
					],
					"name": "EtherTransferred",
					"type": "event"
				},
				{
					"inputs": [
						{
							"internalType": "address",
							"name": "newAdmin",
							"type": "address"
						}
					],
					"name": "addAdmin",
					"outputs": [],
					"stateMutability": "nonpayable",
					"type": "function"
				},
				{
					"inputs": [
						{
							"internalType": "address",
							"name": "",
							"type": "address"
						}
					],
					"name": "admins",
					"outputs": [
						{
							"internalType": "bool",
							"name": "",
							"type": "bool"
						}
					],
					"stateMutability": "view",
					"type": "function"
				},
				{
					"inputs": [],
					"name": "getContractBalance",
					"outputs": [
						{
							"internalType": "uint256",
							"name": "",
							"type": "uint256"
						}
					],
					"stateMutability": "view",
					"type": "function"
				},
				{
					"inputs": [
						{
							"internalType": "address",
							"name": "adminAddress",
							"type": "address"
						}
					],
					"name": "removeAdmin",
					"outputs": [],
					"stateMutability": "nonpayable",
					"type": "function"
				},
				{
					"inputs": [
						{
							"internalType": "address payable",
							"name": "recipient",
							"type": "address"
						},
						{
							"internalType": "uint256",
							"name": "amount",
							"type": "uint256"
						}
					],
					"name": "transferEther",
					"outputs": [],
					"stateMutability": "nonpayable",
					"type": "function"
				},
				{
					"stateMutability": "payable",
					"type": "receive"
				}
			],
			"devdoc": {
				"kind": "dev",
				"methods": {},
				"version": 1
			},
			"evm": {
				"assembly": "    /* \"contracts/TokenDistributor.sol\":60:2289  contract TokenDistributor {... */\n  mstore(0x40, 0x80)\n    /* \"contracts/TokenDistributor.sol\":473:583  constructor() {... */\n  callvalue\n  dup1\n  iszero\n  tag_1\n  jumpi\n  0x00\n  dup1\n  revert\ntag_1:\n  pop\n    /* \"contracts/TokenDistributor.sol\":519:523  true */\n  0x01\n    /* \"contracts/TokenDistributor.sol\":498:504  admins */\n  0x00\n    /* \"contracts/TokenDistributor.sol\":498:516  admins[msg.sender] */\n  dup1\n    /* \"contracts/TokenDistributor.sol\":505:515  msg.sender */\n  caller\n    /* \"contracts/TokenDistributor.sol\":498:516  admins[msg.sender] */\n  0xffffffffffffffffffffffffffffffffffffffff\n  and\n  0xffffffffffffffffffffffffffffffffffffffff\n  and\n  dup2\n  mstore\n  0x20\n  add\n  swap1\n  dup2\n  mstore\n  0x20\n  add\n  0x00\n  keccak256\n  0x00\n    /* \"contracts/TokenDistributor.sol\":498:523  admins[msg.sender] = true */\n  0x0100\n  exp\n  dup2\n  sload\n  dup2\n  0xff\n  mul\n  not\n  and\n  swap1\n  dup4\n  iszero\n  iszero\n  mul\n  or\n  swap1\n  sstore\n  pop\n    /* \"contracts/TokenDistributor.sol\":60:2289  contract TokenDistributor {... */\n  dataSize(sub_0)\n  dup1\n  dataOffset(sub_0)\n  0x00\n  codecopy\n  0x00\n  return\nstop\n\nsub_0: assembly {\n        /* \"contracts/TokenDistributor.sol\":60:2289  contract TokenDistributor {... */\n      mstore(0x40, 0x80)\n      jumpi(tag_1, lt(calldatasize, 0x04))\n      shr(0xe0, calldataload(0x00))\n      dup1\n      0x05b1137b\n      eq\n      tag_3\n      jumpi\n      dup1\n      0x1785f53c\n      eq\n      tag_4\n      jumpi\n      dup1\n      0x429b62e5\n      eq\n      tag_5\n      jumpi\n      dup1\n      0x6f9fb98a\n      eq\n      tag_6\n      jumpi\n      dup1\n      0x70480275\n      eq\n      tag_7\n      jumpi\n      jump(tag_2)\n    tag_1:\n      jumpi(tag_2, calldatasize)\n      stop\n    tag_2:\n      0x00\n      dup1\n      revert\n        /* \"contracts/TokenDistributor.sol\":1541:1998  function transferEther(address payable recipient, uint256 amount) public onlyAdmin {... */\n    tag_3:\n      callvalue\n      dup1\n      iszero\n      tag_10\n      jumpi\n      0x00\n      dup1\n      revert\n    tag_10:\n      pop\n      tag_11\n      0x04\n      dup1\n      calldatasize\n      sub\n      dup2\n      add\n      swap1\n      tag_12\n      swap2\n      swap1\n      tag_13\n      jump\t// in\n    tag_12:\n      tag_14\n      jump\t// in\n    tag_11:\n      stop\n        /* \"contracts/TokenDistributor.sol\":1119:1453  function removeAdmin(address adminAddress) external onlyAdmin {... */\n    tag_4:\n      callvalue\n      dup1\n      iszero\n      tag_15\n      jumpi\n      0x00\n      dup1\n      revert\n    tag_15:\n      pop\n      tag_16\n      0x04\n      dup1\n      calldatasize\n      sub\n      dup2\n      add\n      swap1\n      tag_17\n      swap2\n      swap1\n      tag_18\n      jump\t// in\n    tag_17:\n      tag_19\n      jump\t// in\n    tag_16:\n      stop\n        /* \"contracts/TokenDistributor.sol\":139:177  mapping(address => bool) public admins */\n    tag_5:\n      callvalue\n      dup1\n      iszero\n      tag_20\n      jumpi\n      0x00\n      dup1\n      revert\n    tag_20:\n      pop\n      tag_21\n      0x04\n      dup1\n      calldatasize\n      sub\n      dup2\n      add\n      swap1\n      tag_22\n      swap2\n      swap1\n      tag_18\n      jump\t// in\n    tag_22:\n      tag_23\n      jump\t// in\n    tag_21:\n      mload(0x40)\n      tag_24\n      swap2\n      swap1\n      tag_25\n      jump\t// in\n    tag_24:\n      mload(0x40)\n      dup1\n      swap2\n      sub\n      swap1\n      return\n        /* \"contracts/TokenDistributor.sol\":2177:2286  function getContractBalance() external view returns (uint256) {... */\n    tag_6:\n      callvalue\n      dup1\n      iszero\n      tag_26\n      jumpi\n      0x00\n      dup1\n      revert\n    tag_26:\n      pop\n      tag_27\n      tag_28\n      jump\t// in\n    tag_27:\n      mload(0x40)\n      tag_29\n      swap2\n      swap1\n      tag_30\n      jump\t// in\n    tag_29:\n      mload(0x40)\n      dup1\n      swap2\n      sub\n      swap1\n      return\n        /* \"contracts/TokenDistributor.sol\":834:1081  function addAdmin(address newAdmin) external onlyAdmin {... */\n    tag_7:\n      callvalue\n      dup1\n      iszero\n      tag_31\n      jumpi\n      0x00\n      dup1\n      revert\n    tag_31:\n      pop\n      tag_32\n      0x04\n      dup1\n      calldatasize\n      sub\n      dup2\n      add\n      swap1\n      tag_33\n      swap2\n      swap1\n      tag_18\n      jump\t// in\n    tag_33:\n      tag_34\n      jump\t// in\n    tag_32:\n      stop\n        /* \"contracts/TokenDistributor.sol\":1541:1998  function transferEther(address payable recipient, uint256 amount) public onlyAdmin {... */\n    tag_14:\n        /* \"contracts/TokenDistributor.sol\":712:718  admins */\n      0x00\n        /* \"contracts/TokenDistributor.sol\":712:730  admins[msg.sender] */\n      dup1\n        /* \"contracts/TokenDistributor.sol\":719:729  msg.sender */\n      caller\n        /* \"contracts/TokenDistributor.sol\":712:730  admins[msg.sender] */\n      0xffffffffffffffffffffffffffffffffffffffff\n      and\n      0xffffffffffffffffffffffffffffffffffffffff\n      and\n      dup2\n      mstore\n      0x20\n      add\n      swap1\n      dup2\n      mstore\n      0x20\n      add\n      0x00\n      keccak256\n      0x00\n      swap1\n      sload\n      swap1\n      0x0100\n      exp\n      swap1\n      div\n      0xff\n      and\n        /* \"contracts/TokenDistributor.sol\":704:769  require(admins[msg.sender], \"Only admin can perform this action\") */\n      tag_36\n      jumpi\n      mload(0x40)\n      0x08c379a000000000000000000000000000000000000000000000000000000000\n      dup2\n      mstore\n      0x04\n      add\n      tag_37\n      swap1\n      tag_38\n      jump\t// in\n    tag_37:\n      mload(0x40)\n      dup1\n      swap2\n      sub\n      swap1\n      revert\n    tag_36:\n        /* \"contracts/TokenDistributor.sol\":1668:1674  amount */\n      dup1\n        /* \"contracts/TokenDistributor.sol\":1643:1664  address(this).balance */\n      selfbalance\n        /* \"contracts/TokenDistributor.sol\":1643:1674  address(this).balance >= amount */\n      lt\n      iszero\n        /* \"contracts/TokenDistributor.sol\":1635:1698  require(address(this).balance >= amount, \"Insufficient Ether.\") */\n      tag_40\n      jumpi\n      mload(0x40)\n      0x08c379a000000000000000000000000000000000000000000000000000000000\n      dup2\n      mstore\n      0x04\n      add\n      tag_41\n      swap1\n      tag_42\n      jump\t// in\n    tag_41:\n      mload(0x40)\n      dup1\n      swap2\n      sub\n      swap1\n      revert\n    tag_40:\n        /* \"contracts/TokenDistributor.sol\":1795:1807  bool success */\n      0x00\n        /* \"contracts/TokenDistributor.sol\":1813:1822  recipient */\n      dup3\n        /* \"contracts/TokenDistributor.sol\":1813:1827  recipient.call */\n      0xffffffffffffffffffffffffffffffffffffffff\n      and\n        /* \"contracts/TokenDistributor.sol\":1835:1841  amount */\n      dup3\n        /* \"contracts/TokenDistributor.sol\":1813:1846  recipient.call{value: amount}(\"\") */\n      mload(0x40)\n      tag_43\n      swap1\n      tag_44\n      jump\t// in\n    tag_43:\n      0x00\n      mload(0x40)\n      dup1\n      dup4\n      sub\n      dup2\n      dup6\n      dup8\n      gas\n      call\n      swap3\n      pop\n      pop\n      pop\n      returndatasize\n      dup1\n      0x00\n      dup2\n      eq\n      tag_47\n      jumpi\n      mload(0x40)\n      swap2\n      pop\n      and(add(returndatasize, 0x3f), not(0x1f))\n      dup3\n      add\n      0x40\n      mstore\n      returndatasize\n      dup3\n      mstore\n      returndatasize\n      0x00\n      0x20\n      dup5\n      add\n      returndatacopy\n      jump(tag_46)\n    tag_47:\n      0x60\n      swap2\n      pop\n    tag_46:\n      pop\n        /* \"contracts/TokenDistributor.sol\":1794:1846  (bool success, ) = recipient.call{value: amount}(\"\") */\n      pop\n      swap1\n      pop\n        /* \"contracts/TokenDistributor.sol\":1865:1872  success */\n      dup1\n        /* \"contracts/TokenDistributor.sol\":1857:1893  require(success, \"Transfer failed.\") */\n      tag_48\n      jumpi\n      mload(0x40)\n      0x08c379a000000000000000000000000000000000000000000000000000000000\n      dup2\n      mstore\n      0x04\n      add\n      tag_49\n      swap1\n      tag_50\n      jump\t// in\n    tag_49:\n      mload(0x40)\n      dup1\n      swap2\n      sub\n      swap1\n      revert\n    tag_48:\n        /* \"contracts/TokenDistributor.sol\":1928:1937  recipient */\n      dup3\n        /* \"contracts/TokenDistributor.sol\":1911:1946  EtherTransferred(recipient, amount) */\n      0xffffffffffffffffffffffffffffffffffffffff\n      and\n      0x2bd8874aee0f667380057c67e3a812157e4b7649b244d6fcbc9094a9a1f7ee1d\n        /* \"contracts/TokenDistributor.sol\":1939:1945  amount */\n      dup4\n        /* \"contracts/TokenDistributor.sol\":1911:1946  EtherTransferred(recipient, amount) */\n      mload(0x40)\n      tag_51\n      swap2\n      swap1\n      tag_30\n      jump\t// in\n    tag_51:\n      mload(0x40)\n      dup1\n      swap2\n      sub\n      swap1\n      log2\n        /* \"contracts/TokenDistributor.sol\":1624:1998  {... */\n      pop\n        /* \"contracts/TokenDistributor.sol\":1541:1998  function transferEther(address payable recipient, uint256 amount) public onlyAdmin {... */\n      pop\n      pop\n      jump\t// out\n        /* \"contracts/TokenDistributor.sol\":1119:1453  function removeAdmin(address adminAddress) external onlyAdmin {... */\n    tag_19:\n        /* \"contracts/TokenDistributor.sol\":712:718  admins */\n      0x00\n        /* \"contracts/TokenDistributor.sol\":712:730  admins[msg.sender] */\n      dup1\n        /* \"contracts/TokenDistributor.sol\":719:729  msg.sender */\n      caller\n        /* \"contracts/TokenDistributor.sol\":712:730  admins[msg.sender] */\n      0xffffffffffffffffffffffffffffffffffffffff\n      and\n      0xffffffffffffffffffffffffffffffffffffffff\n      and\n      dup2\n      mstore\n      0x20\n      add\n      swap1\n      dup2\n      mstore\n      0x20\n      add\n      0x00\n      keccak256\n      0x00\n      swap1\n      sload\n      swap1\n      0x0100\n      exp\n      swap1\n      div\n      0xff\n      and\n        /* \"contracts/TokenDistributor.sol\":704:769  require(admins[msg.sender], \"Only admin can perform this action\") */\n      tag_53\n      jumpi\n      mload(0x40)\n      0x08c379a000000000000000000000000000000000000000000000000000000000\n      dup2\n      mstore\n      0x04\n      add\n      tag_54\n      swap1\n      tag_38\n      jump\t// in\n    tag_54:\n      mload(0x40)\n      dup1\n      swap2\n      sub\n      swap1\n      revert\n    tag_53:\n        /* \"contracts/TokenDistributor.sol\":1200:1206  admins */\n      0x00\n        /* \"contracts/TokenDistributor.sol\":1200:1220  admins[adminAddress] */\n      dup1\n        /* \"contracts/TokenDistributor.sol\":1207:1219  adminAddress */\n      dup3\n        /* \"contracts/TokenDistributor.sol\":1200:1220  admins[adminAddress] */\n      0xffffffffffffffffffffffffffffffffffffffff\n      and\n      0xffffffffffffffffffffffffffffffffffffffff\n      and\n      dup2\n      mstore\n      0x20\n      add\n      swap1\n      dup2\n      mstore\n      0x20\n      add\n      0x00\n      keccak256\n      0x00\n      swap1\n      sload\n      swap1\n      0x0100\n      exp\n      swap1\n      div\n      0xff\n      and\n        /* \"contracts/TokenDistributor.sol\":1192:1248  require(admins[adminAddress], \"Address is not an admin\") */\n      tag_56\n      jumpi\n      mload(0x40)\n      0x08c379a000000000000000000000000000000000000000000000000000000000\n      dup2\n      mstore\n      0x04\n      add\n      tag_57\n      swap1\n      tag_58\n      jump\t// in\n    tag_57:\n      mload(0x40)\n      dup1\n      swap2\n      sub\n      swap1\n      revert\n    tag_56:\n        /* \"contracts/TokenDistributor.sol\":1267:1273  admins */\n      0x00\n        /* \"contracts/TokenDistributor.sol\":1267:1285  admins[msg.sender] */\n      dup1\n        /* \"contracts/TokenDistributor.sol\":1274:1284  msg.sender */\n      caller\n        /* \"contracts/TokenDistributor.sol\":1267:1285  admins[msg.sender] */\n      0xffffffffffffffffffffffffffffffffffffffff\n      and\n      0xffffffffffffffffffffffffffffffffffffffff\n      and\n      dup2\n      mstore\n      0x20\n      add\n      swap1\n      dup2\n      mstore\n      0x20\n      add\n      0x00\n      keccak256\n      0x00\n      swap1\n      sload\n      swap1\n      0x0100\n      exp\n      swap1\n      div\n      0xff\n      and\n        /* \"contracts/TokenDistributor.sol\":1259:1325  require(admins[msg.sender], \"You cannot remove yourself as admin\") */\n      tag_59\n      jumpi\n      mload(0x40)\n      0x08c379a000000000000000000000000000000000000000000000000000000000\n      dup2\n      mstore\n      0x04\n      add\n      tag_60\n      swap1\n      tag_61\n      jump\t// in\n    tag_60:\n      mload(0x40)\n      dup1\n      swap2\n      sub\n      swap1\n      revert\n    tag_59:\n        /* \"contracts/TokenDistributor.sol\":1359:1364  false */\n      0x00\n        /* \"contracts/TokenDistributor.sol\":1336:1342  admins */\n      dup1\n        /* \"contracts/TokenDistributor.sol\":1336:1356  admins[adminAddress] */\n      0x00\n        /* \"contracts/TokenDistributor.sol\":1343:1355  adminAddress */\n      dup4\n        /* \"contracts/TokenDistributor.sol\":1336:1356  admins[adminAddress] */\n      0xffffffffffffffffffffffffffffffffffffffff\n      and\n      0xffffffffffffffffffffffffffffffffffffffff\n      and\n      dup2\n      mstore\n      0x20\n      add\n      swap1\n      dup2\n      mstore\n      0x20\n      add\n      0x00\n      keccak256\n      0x00\n        /* \"contracts/TokenDistributor.sol\":1336:1364  admins[adminAddress] = false */\n      0x0100\n      exp\n      dup2\n      sload\n      dup2\n      0xff\n      mul\n      not\n      and\n      swap1\n      dup4\n      iszero\n      iszero\n      mul\n      or\n      swap1\n      sstore\n      pop\n        /* \"contracts/TokenDistributor.sol\":1393:1405  adminAddress */\n      dup1\n        /* \"contracts/TokenDistributor.sol\":1380:1406  AdminRemoved(adminAddress) */\n      0xffffffffffffffffffffffffffffffffffffffff\n      and\n      0xa3b62bc36326052d97ea62d63c3d60308ed4c3ea8ac079dd8499f1e9c4f80c0f\n      mload(0x40)\n      mload(0x40)\n      dup1\n      swap2\n      sub\n      swap1\n      log2\n        /* \"contracts/TokenDistributor.sol\":1119:1453  function removeAdmin(address adminAddress) external onlyAdmin {... */\n      pop\n      jump\t// out\n        /* \"contracts/TokenDistributor.sol\":139:177  mapping(address => bool) public admins */\n    tag_23:\n      mstore(0x20, 0x00)\n      dup1\n      0x00\n      mstore\n      keccak256(0x00, 0x40)\n      0x00\n      swap2\n      pop\n      sload\n      swap1\n      0x0100\n      exp\n      swap1\n      div\n      0xff\n      and\n      dup2\n      jump\t// out\n        /* \"contracts/TokenDistributor.sol\":2177:2286  function getContractBalance() external view returns (uint256) {... */\n    tag_28:\n        /* \"contracts/TokenDistributor.sol\":2230:2237  uint256 */\n      0x00\n        /* \"contracts/TokenDistributor.sol\":2257:2278  address(this).balance */\n      selfbalance\n        /* \"contracts/TokenDistributor.sol\":2250:2278  return address(this).balance */\n      swap1\n      pop\n        /* \"contracts/TokenDistributor.sol\":2177:2286  function getContractBalance() external view returns (uint256) {... */\n      swap1\n      jump\t// out\n        /* \"contracts/TokenDistributor.sol\":834:1081  function addAdmin(address newAdmin) external onlyAdmin {... */\n    tag_34:\n        /* \"contracts/TokenDistributor.sol\":712:718  admins */\n      0x00\n        /* \"contracts/TokenDistributor.sol\":712:730  admins[msg.sender] */\n      dup1\n        /* \"contracts/TokenDistributor.sol\":719:729  msg.sender */\n      caller\n        /* \"contracts/TokenDistributor.sol\":712:730  admins[msg.sender] */\n      0xffffffffffffffffffffffffffffffffffffffff\n      and\n      0xffffffffffffffffffffffffffffffffffffffff\n      and\n      dup2\n      mstore\n      0x20\n      add\n      swap1\n      dup2\n      mstore\n      0x20\n      add\n      0x00\n      keccak256\n      0x00\n      swap1\n      sload\n      swap1\n      0x0100\n      exp\n      swap1\n      div\n      0xff\n      and\n        /* \"contracts/TokenDistributor.sol\":704:769  require(admins[msg.sender], \"Only admin can perform this action\") */\n      tag_64\n      jumpi\n      mload(0x40)\n      0x08c379a000000000000000000000000000000000000000000000000000000000\n      dup2\n      mstore\n      0x04\n      add\n      tag_65\n      swap1\n      tag_38\n      jump\t// in\n    tag_65:\n      mload(0x40)\n      dup1\n      swap2\n      sub\n      swap1\n      revert\n    tag_64:\n        /* \"contracts/TokenDistributor.sol\":909:915  admins */\n      0x00\n        /* \"contracts/TokenDistributor.sol\":909:925  admins[newAdmin] */\n      dup1\n        /* \"contracts/TokenDistributor.sol\":916:924  newAdmin */\n      dup3\n        /* \"contracts/TokenDistributor.sol\":909:925  admins[newAdmin] */\n      0xffffffffffffffffffffffffffffffffffffffff\n      and\n      0xffffffffffffffffffffffffffffffffffffffff\n      and\n      dup2\n      mstore\n      0x20\n      add\n      swap1\n      dup2\n      mstore\n      0x20\n      add\n      0x00\n      keccak256\n      0x00\n      swap1\n      sload\n      swap1\n      0x0100\n      exp\n      swap1\n      div\n      0xff\n      and\n        /* \"contracts/TokenDistributor.sol\":908:925  !admins[newAdmin] */\n      iszero\n        /* \"contracts/TokenDistributor.sol\":900:957  require(!admins[newAdmin], \"Address is already an admin\") */\n      tag_67\n      jumpi\n      mload(0x40)\n      0x08c379a000000000000000000000000000000000000000000000000000000000\n      dup2\n      mstore\n      0x04\n      add\n      tag_68\n      swap1\n      tag_69\n      jump\t// in\n    tag_68:\n      mload(0x40)\n      dup1\n      swap2\n      sub\n      swap1\n      revert\n    tag_67:\n        /* \"contracts/TokenDistributor.sol\":987:991  true */\n      0x01\n        /* \"contracts/TokenDistributor.sol\":968:974  admins */\n      0x00\n        /* \"contracts/TokenDistributor.sol\":968:984  admins[newAdmin] */\n      dup1\n        /* \"contracts/TokenDistributor.sol\":975:983  newAdmin */\n      dup4\n        /* \"contracts/TokenDistributor.sol\":968:984  admins[newAdmin] */\n      0xffffffffffffffffffffffffffffffffffffffff\n      and\n      0xffffffffffffffffffffffffffffffffffffffff\n      and\n      dup2\n      mstore\n      0x20\n      add\n      swap1\n      dup2\n      mstore\n      0x20\n      add\n      0x00\n      keccak256\n      0x00\n        /* \"contracts/TokenDistributor.sol\":968:991  admins[newAdmin] = true */\n      0x0100\n      exp\n      dup2\n      sload\n      dup2\n      0xff\n      mul\n      not\n      and\n      swap1\n      dup4\n      iszero\n      iszero\n      mul\n      or\n      swap1\n      sstore\n      pop\n        /* \"contracts/TokenDistributor.sol\":1018:1026  newAdmin */\n      dup1\n        /* \"contracts/TokenDistributor.sol\":1007:1027  AdminAdded(newAdmin) */\n      0xffffffffffffffffffffffffffffffffffffffff\n      and\n      0x44d6d25963f097ad14f29f06854a01f575648a1ef82f30e562ccd3889717e339\n      mload(0x40)\n      mload(0x40)\n      dup1\n      swap2\n      sub\n      swap1\n      log2\n        /* \"contracts/TokenDistributor.sol\":834:1081  function addAdmin(address newAdmin) external onlyAdmin {... */\n      pop\n      jump\t// out\n        /* \"#utility.yul\":88:205   */\n    tag_71:\n        /* \"#utility.yul\":197:198   */\n      0x00\n        /* \"#utility.yul\":194:195   */\n      dup1\n        /* \"#utility.yul\":187:199   */\n      revert\n        /* \"#utility.yul\":334:460   */\n    tag_73:\n        /* \"#utility.yul\":371:378   */\n      0x00\n        /* \"#utility.yul\":411:453   */\n      0xffffffffffffffffffffffffffffffffffffffff\n        /* \"#utility.yul\":404:409   */\n      dup3\n        /* \"#utility.yul\":400:454   */\n      and\n        /* \"#utility.yul\":389:454   */\n      swap1\n      pop\n        /* \"#utility.yul\":334:460   */\n      swap2\n      swap1\n      pop\n      jump\t// out\n        /* \"#utility.yul\":466:570   */\n    tag_74:\n        /* \"#utility.yul\":511:518   */\n      0x00\n        /* \"#utility.yul\":540:564   */\n      tag_108\n        /* \"#utility.yul\":558:563   */\n      dup3\n        /* \"#utility.yul\":540:564   */\n      tag_73\n      jump\t// in\n    tag_108:\n        /* \"#utility.yul\":529:564   */\n      swap1\n      pop\n        /* \"#utility.yul\":466:570   */\n      swap2\n      swap1\n      pop\n      jump\t// out\n        /* \"#utility.yul\":576:714   */\n    tag_75:\n        /* \"#utility.yul\":657:689   */\n      tag_110\n        /* \"#utility.yul\":683:688   */\n      dup2\n        /* \"#utility.yul\":657:689   */\n      tag_74\n      jump\t// in\n    tag_110:\n        /* \"#utility.yul\":650:655   */\n      dup2\n        /* \"#utility.yul\":647:690   */\n      eq\n        /* \"#utility.yul\":637:708   */\n      tag_111\n      jumpi\n        /* \"#utility.yul\":704:705   */\n      0x00\n        /* \"#utility.yul\":701:702   */\n      dup1\n        /* \"#utility.yul\":694:706   */\n      revert\n        /* \"#utility.yul\":637:708   */\n    tag_111:\n        /* \"#utility.yul\":576:714   */\n      pop\n      jump\t// out\n        /* \"#utility.yul\":720:875   */\n    tag_76:\n        /* \"#utility.yul\":774:779   */\n      0x00\n        /* \"#utility.yul\":812:818   */\n      dup2\n        /* \"#utility.yul\":799:819   */\n      calldataload\n        /* \"#utility.yul\":790:819   */\n      swap1\n      pop\n        /* \"#utility.yul\":828:869   */\n      tag_113\n        /* \"#utility.yul\":863:868   */\n      dup2\n        /* \"#utility.yul\":828:869   */\n      tag_75\n      jump\t// in\n    tag_113:\n        /* \"#utility.yul\":720:875   */\n      swap3\n      swap2\n      pop\n      pop\n      jump\t// out\n        /* \"#utility.yul\":881:958   */\n    tag_77:\n        /* \"#utility.yul\":918:925   */\n      0x00\n        /* \"#utility.yul\":947:952   */\n      dup2\n        /* \"#utility.yul\":936:952   */\n      swap1\n      pop\n        /* \"#utility.yul\":881:958   */\n      swap2\n      swap1\n      pop\n      jump\t// out\n        /* \"#utility.yul\":964:1086   */\n    tag_78:\n        /* \"#utility.yul\":1037:1061   */\n      tag_116\n        /* \"#utility.yul\":1055:1060   */\n      dup2\n        /* \"#utility.yul\":1037:1061   */\n      tag_77\n      jump\t// in\n    tag_116:\n        /* \"#utility.yul\":1030:1035   */\n      dup2\n        /* \"#utility.yul\":1027:1062   */\n      eq\n        /* \"#utility.yul\":1017:1080   */\n      tag_117\n      jumpi\n        /* \"#utility.yul\":1076:1077   */\n      0x00\n        /* \"#utility.yul\":1073:1074   */\n      dup1\n        /* \"#utility.yul\":1066:1078   */\n      revert\n        /* \"#utility.yul\":1017:1080   */\n    tag_117:\n        /* \"#utility.yul\":964:1086   */\n      pop\n      jump\t// out\n        /* \"#utility.yul\":1092:1231   */\n    tag_79:\n        /* \"#utility.yul\":1138:1143   */\n      0x00\n        /* \"#utility.yul\":1176:1182   */\n      dup2\n        /* \"#utility.yul\":1163:1183   */\n      calldataload\n        /* \"#utility.yul\":1154:1183   */\n      swap1\n      pop\n        /* \"#utility.yul\":1192:1225   */\n      tag_119\n        /* \"#utility.yul\":1219:1224   */\n      dup2\n        /* \"#utility.yul\":1192:1225   */\n      tag_78\n      jump\t// in\n    tag_119:\n        /* \"#utility.yul\":1092:1231   */\n      swap3\n      swap2\n      pop\n      pop\n      jump\t// out\n        /* \"#utility.yul\":1237:1727   */\n    tag_13:\n        /* \"#utility.yul\":1313:1319   */\n      0x00\n        /* \"#utility.yul\":1321:1327   */\n      dup1\n        /* \"#utility.yul\":1370:1372   */\n      0x40\n        /* \"#utility.yul\":1358:1367   */\n      dup4\n        /* \"#utility.yul\":1349:1356   */\n      dup6\n        /* \"#utility.yul\":1345:1368   */\n      sub\n        /* \"#utility.yul\":1341:1373   */\n      slt\n        /* \"#utility.yul\":1338:1457   */\n      iszero\n      tag_121\n      jumpi\n        /* \"#utility.yul\":1376:1455   */\n      tag_122\n      tag_71\n      jump\t// in\n    tag_122:\n        /* \"#utility.yul\":1338:1457   */\n    tag_121:\n        /* \"#utility.yul\":1496:1497   */\n      0x00\n        /* \"#utility.yul\":1521:1582   */\n      tag_123\n        /* \"#utility.yul\":1574:1581   */\n      dup6\n        /* \"#utility.yul\":1565:1571   */\n      dup3\n        /* \"#utility.yul\":1554:1563   */\n      dup7\n        /* \"#utility.yul\":1550:1572   */\n      add\n        /* \"#utility.yul\":1521:1582   */\n      tag_76\n      jump\t// in\n    tag_123:\n        /* \"#utility.yul\":1511:1582   */\n      swap3\n      pop\n        /* \"#utility.yul\":1467:1592   */\n      pop\n        /* \"#utility.yul\":1631:1633   */\n      0x20\n        /* \"#utility.yul\":1657:1710   */\n      tag_124\n        /* \"#utility.yul\":1702:1709   */\n      dup6\n        /* \"#utility.yul\":1693:1699   */\n      dup3\n        /* \"#utility.yul\":1682:1691   */\n      dup7\n        /* \"#utility.yul\":1678:1700   */\n      add\n        /* \"#utility.yul\":1657:1710   */\n      tag_79\n      jump\t// in\n    tag_124:\n        /* \"#utility.yul\":1647:1710   */\n      swap2\n      pop\n        /* \"#utility.yul\":1602:1720   */\n      pop\n        /* \"#utility.yul\":1237:1727   */\n      swap3\n      pop\n      swap3\n      swap1\n      pop\n      jump\t// out\n        /* \"#utility.yul\":1733:1829   */\n    tag_80:\n        /* \"#utility.yul\":1770:1777   */\n      0x00\n        /* \"#utility.yul\":1799:1823   */\n      tag_126\n        /* \"#utility.yul\":1817:1822   */\n      dup3\n        /* \"#utility.yul\":1799:1823   */\n      tag_73\n      jump\t// in\n    tag_126:\n        /* \"#utility.yul\":1788:1823   */\n      swap1\n      pop\n        /* \"#utility.yul\":1733:1829   */\n      swap2\n      swap1\n      pop\n      jump\t// out\n        /* \"#utility.yul\":1835:1957   */\n    tag_81:\n        /* \"#utility.yul\":1908:1932   */\n      tag_128\n        /* \"#utility.yul\":1926:1931   */\n      dup2\n        /* \"#utility.yul\":1908:1932   */\n      tag_80\n      jump\t// in\n    tag_128:\n        /* \"#utility.yul\":1901:1906   */\n      dup2\n        /* \"#utility.yul\":1898:1933   */\n      eq\n        /* \"#utility.yul\":1888:1951   */\n      tag_129\n      jumpi\n        /* \"#utility.yul\":1947:1948   */\n      0x00\n        /* \"#utility.yul\":1944:1945   */\n      dup1\n        /* \"#utility.yul\":1937:1949   */\n      revert\n        /* \"#utility.yul\":1888:1951   */\n    tag_129:\n        /* \"#utility.yul\":1835:1957   */\n      pop\n      jump\t// out\n        /* \"#utility.yul\":1963:2102   */\n    tag_82:\n        /* \"#utility.yul\":2009:2014   */\n      0x00\n        /* \"#utility.yul\":2047:2053   */\n      dup2\n        /* \"#utility.yul\":2034:2054   */\n      calldataload\n        /* \"#utility.yul\":2025:2054   */\n      swap1\n      pop\n        /* \"#utility.yul\":2063:2096   */\n      tag_131\n        /* \"#utility.yul\":2090:2095   */\n      dup2\n        /* \"#utility.yul\":2063:2096   */\n      tag_81\n      jump\t// in\n    tag_131:\n        /* \"#utility.yul\":1963:2102   */\n      swap3\n      swap2\n      pop\n      pop\n      jump\t// out\n        /* \"#utility.yul\":2108:2437   */\n    tag_18:\n        /* \"#utility.yul\":2167:2173   */\n      0x00\n        /* \"#utility.yul\":2216:2218   */\n      0x20\n        /* \"#utility.yul\":2204:2213   */\n      dup3\n        /* \"#utility.yul\":2195:2202   */\n      dup5\n        /* \"#utility.yul\":2191:2214   */\n      sub\n        /* \"#utility.yul\":2187:2219   */\n      slt\n        /* \"#utility.yul\":2184:2303   */\n      iszero\n      tag_133\n      jumpi\n        /* \"#utility.yul\":2222:2301   */\n      tag_134\n      tag_71\n      jump\t// in\n    tag_134:\n        /* \"#utility.yul\":2184:2303   */\n    tag_133:\n        /* \"#utility.yul\":2342:2343   */\n      0x00\n        /* \"#utility.yul\":2367:2420   */\n      tag_135\n        /* \"#utility.yul\":2412:2419   */\n      dup5\n        /* \"#utility.yul\":2403:2409   */\n      dup3\n        /* \"#utility.yul\":2392:2401   */\n      dup6\n        /* \"#utility.yul\":2388:2410   */\n      add\n        /* \"#utility.yul\":2367:2420   */\n      tag_82\n      jump\t// in\n    tag_135:\n        /* \"#utility.yul\":2357:2420   */\n      swap2\n      pop\n        /* \"#utility.yul\":2313:2430   */\n      pop\n        /* \"#utility.yul\":2108:2437   */\n      swap3\n      swap2\n      pop\n      pop\n      jump\t// out\n        /* \"#utility.yul\":2443:2533   */\n    tag_83:\n        /* \"#utility.yul\":2477:2484   */\n      0x00\n        /* \"#utility.yul\":2520:2525   */\n      dup2\n        /* \"#utility.yul\":2513:2526   */\n      iszero\n        /* \"#utility.yul\":2506:2527   */\n      iszero\n        /* \"#utility.yul\":2495:2527   */\n      swap1\n      pop\n        /* \"#utility.yul\":2443:2533   */\n      swap2\n      swap1\n      pop\n      jump\t// out\n        /* \"#utility.yul\":2539:2648   */\n    tag_84:\n        /* \"#utility.yul\":2620:2641   */\n      tag_138\n        /* \"#utility.yul\":2635:2640   */\n      dup2\n        /* \"#utility.yul\":2620:2641   */\n      tag_83\n      jump\t// in\n    tag_138:\n        /* \"#utility.yul\":2615:2618   */\n      dup3\n        /* \"#utility.yul\":2608:2642   */\n      mstore\n        /* \"#utility.yul\":2539:2648   */\n      pop\n      pop\n      jump\t// out\n        /* \"#utility.yul\":2654:2864   */\n    tag_25:\n        /* \"#utility.yul\":2741:2745   */\n      0x00\n        /* \"#utility.yul\":2779:2781   */\n      0x20\n        /* \"#utility.yul\":2768:2777   */\n      dup3\n        /* \"#utility.yul\":2764:2782   */\n      add\n        /* \"#utility.yul\":2756:2782   */\n      swap1\n      pop\n        /* \"#utility.yul\":2792:2857   */\n      tag_140\n        /* \"#utility.yul\":2854:2855   */\n      0x00\n        /* \"#utility.yul\":2843:2852   */\n      dup4\n        /* \"#utility.yul\":2839:2856   */\n      add\n        /* \"#utility.yul\":2830:2836   */\n      dup5\n        /* \"#utility.yul\":2792:2857   */\n      tag_84\n      jump\t// in\n    tag_140:\n        /* \"#utility.yul\":2654:2864   */\n      swap3\n      swap2\n      pop\n      pop\n      jump\t// out\n        /* \"#utility.yul\":2870:2988   */\n    tag_85:\n        /* \"#utility.yul\":2957:2981   */\n      tag_142\n        /* \"#utility.yul\":2975:2980   */\n      dup2\n        /* \"#utility.yul\":2957:2981   */\n      tag_77\n      jump\t// in\n    tag_142:\n        /* \"#utility.yul\":2952:2955   */\n      dup3\n        /* \"#utility.yul\":2945:2982   */\n      mstore\n        /* \"#utility.yul\":2870:2988   */\n      pop\n      pop\n      jump\t// out\n        /* \"#utility.yul\":2994:3216   */\n    tag_30:\n        /* \"#utility.yul\":3087:3091   */\n      0x00\n        /* \"#utility.yul\":3125:3127   */\n      0x20\n        /* \"#utility.yul\":3114:3123   */\n      dup3\n        /* \"#utility.yul\":3110:3128   */\n      add\n        /* \"#utility.yul\":3102:3128   */\n      swap1\n      pop\n        /* \"#utility.yul\":3138:3209   */\n      tag_144\n        /* \"#utility.yul\":3206:3207   */\n      0x00\n        /* \"#utility.yul\":3195:3204   */\n      dup4\n        /* \"#utility.yul\":3191:3208   */\n      add\n        /* \"#utility.yul\":3182:3188   */\n      dup5\n        /* \"#utility.yul\":3138:3209   */\n      tag_85\n      jump\t// in\n    tag_144:\n        /* \"#utility.yul\":2994:3216   */\n      swap3\n      swap2\n      pop\n      pop\n      jump\t// out\n        /* \"#utility.yul\":3222:3391   */\n    tag_86:\n        /* \"#utility.yul\":3306:3317   */\n      0x00\n        /* \"#utility.yul\":3340:3346   */\n      dup3\n        /* \"#utility.yul\":3335:3338   */\n      dup3\n        /* \"#utility.yul\":3328:3347   */\n      mstore\n        /* \"#utility.yul\":3380:3384   */\n      0x20\n        /* \"#utility.yul\":3375:3378   */\n      dup3\n        /* \"#utility.yul\":3371:3385   */\n      add\n        /* \"#utility.yul\":3356:3385   */\n      swap1\n      pop\n        /* \"#utility.yul\":3222:3391   */\n      swap3\n      swap2\n      pop\n      pop\n      jump\t// out\n        /* \"#utility.yul\":3397:3618   */\n    tag_87:\n        /* \"#utility.yul\":3537:3571   */\n      0x4f6e6c792061646d696e2063616e20706572666f726d20746869732061637469\n        /* \"#utility.yul\":3533:3534   */\n      0x00\n        /* \"#utility.yul\":3525:3531   */\n      dup3\n        /* \"#utility.yul\":3521:3535   */\n      add\n        /* \"#utility.yul\":3514:3572   */\n      mstore\n        /* \"#utility.yul\":3606:3610   */\n      0x6f6e000000000000000000000000000000000000000000000000000000000000\n        /* \"#utility.yul\":3601:3603   */\n      0x20\n        /* \"#utility.yul\":3593:3599   */\n      dup3\n        /* \"#utility.yul\":3589:3604   */\n      add\n        /* \"#utility.yul\":3582:3611   */\n      mstore\n        /* \"#utility.yul\":3397:3618   */\n      pop\n      jump\t// out\n        /* \"#utility.yul\":3624:3990   */\n    tag_88:\n        /* \"#utility.yul\":3766:3769   */\n      0x00\n        /* \"#utility.yul\":3787:3854   */\n      tag_148\n        /* \"#utility.yul\":3851:3853   */\n      0x22\n        /* \"#utility.yul\":3846:3849   */\n      dup4\n        /* \"#utility.yul\":3787:3854   */\n      tag_86\n      jump\t// in\n    tag_148:\n        /* \"#utility.yul\":3780:3854   */\n      swap2\n      pop\n        /* \"#utility.yul\":3863:3956   */\n      tag_149\n        /* \"#utility.yul\":3952:3955   */\n      dup3\n        /* \"#utility.yul\":3863:3956   */\n      tag_87\n      jump\t// in\n    tag_149:\n        /* \"#utility.yul\":3981:3983   */\n      0x40\n        /* \"#utility.yul\":3976:3979   */\n      dup3\n        /* \"#utility.yul\":3972:3984   */\n      add\n        /* \"#utility.yul\":3965:3984   */\n      swap1\n      pop\n        /* \"#utility.yul\":3624:3990   */\n      swap2\n      swap1\n      pop\n      jump\t// out\n        /* \"#utility.yul\":3996:4415   */\n    tag_38:\n        /* \"#utility.yul\":4162:4166   */\n      0x00\n        /* \"#utility.yul\":4200:4202   */\n      0x20\n        /* \"#utility.yul\":4189:4198   */\n      dup3\n        /* \"#utility.yul\":4185:4203   */\n      add\n        /* \"#utility.yul\":4177:4203   */\n      swap1\n      pop\n        /* \"#utility.yul\":4249:4258   */\n      dup2\n        /* \"#utility.yul\":4243:4247   */\n      dup2\n        /* \"#utility.yul\":4239:4259   */\n      sub\n        /* \"#utility.yul\":4235:4236   */\n      0x00\n        /* \"#utility.yul\":4224:4233   */\n      dup4\n        /* \"#utility.yul\":4220:4237   */\n      add\n        /* \"#utility.yul\":4213:4260   */\n      mstore\n        /* \"#utility.yul\":4277:4408   */\n      tag_151\n        /* \"#utility.yul\":4403:4407   */\n      dup2\n        /* \"#utility.yul\":4277:4408   */\n      tag_88\n      jump\t// in\n    tag_151:\n        /* \"#utility.yul\":4269:4408   */\n      swap1\n      pop\n        /* \"#utility.yul\":3996:4415   */\n      swap2\n      swap1\n      pop\n      jump\t// out\n        /* \"#utility.yul\":4421:4590   */\n    tag_89:\n        /* \"#utility.yul\":4561:4582   */\n      0x496e73756666696369656e742045746865722e00000000000000000000000000\n        /* \"#utility.yul\":4557:4558   */\n      0x00\n        /* \"#utility.yul\":4549:4555   */\n      dup3\n        /* \"#utility.yul\":4545:4559   */\n      add\n        /* \"#utility.yul\":4538:4583   */\n      mstore\n        /* \"#utility.yul\":4421:4590   */\n      pop\n      jump\t// out\n        /* \"#utility.yul\":4596:4962   */\n    tag_90:\n        /* \"#utility.yul\":4738:4741   */\n      0x00\n        /* \"#utility.yul\":4759:4826   */\n      tag_154\n        /* \"#utility.yul\":4823:4825   */\n      0x13\n        /* \"#utility.yul\":4818:4821   */\n      dup4\n        /* \"#utility.yul\":4759:4826   */\n      tag_86\n      jump\t// in\n    tag_154:\n        /* \"#utility.yul\":4752:4826   */\n      swap2\n      pop\n        /* \"#utility.yul\":4835:4928   */\n      tag_155\n        /* \"#utility.yul\":4924:4927   */\n      dup3\n        /* \"#utility.yul\":4835:4928   */\n      tag_89\n      jump\t// in\n    tag_155:\n        /* \"#utility.yul\":4953:4955   */\n      0x20\n        /* \"#utility.yul\":4948:4951   */\n      dup3\n        /* \"#utility.yul\":4944:4956   */\n      add\n        /* \"#utility.yul\":4937:4956   */\n      swap1\n      pop\n        /* \"#utility.yul\":4596:4962   */\n      swap2\n      swap1\n      pop\n      jump\t// out\n        /* \"#utility.yul\":4968:5387   */\n    tag_42:\n        /* \"#utility.yul\":5134:5138   */\n      0x00\n        /* \"#utility.yul\":5172:5174   */\n      0x20\n        /* \"#utility.yul\":5161:5170   */\n      dup3\n        /* \"#utility.yul\":5157:5175   */\n      add\n        /* \"#utility.yul\":5149:5175   */\n      swap1\n      pop\n        /* \"#utility.yul\":5221:5230   */\n      dup2\n        /* \"#utility.yul\":5215:5219   */\n      dup2\n        /* \"#utility.yul\":5211:5231   */\n      sub\n        /* \"#utility.yul\":5207:5208   */\n      0x00\n        /* \"#utility.yul\":5196:5205   */\n      dup4\n        /* \"#utility.yul\":5192:5209   */\n      add\n        /* \"#utility.yul\":5185:5232   */\n      mstore\n        /* \"#utility.yul\":5249:5380   */\n      tag_157\n        /* \"#utility.yul\":5375:5379   */\n      dup2\n        /* \"#utility.yul\":5249:5380   */\n      tag_90\n      jump\t// in\n    tag_157:\n        /* \"#utility.yul\":5241:5380   */\n      swap1\n      pop\n        /* \"#utility.yul\":4968:5387   */\n      swap2\n      swap1\n      pop\n      jump\t// out\n        /* \"#utility.yul\":5393:5540   */\n    tag_91:\n        /* \"#utility.yul\":5494:5505   */\n      0x00\n        /* \"#utility.yul\":5531:5534   */\n      dup2\n        /* \"#utility.yul\":5516:5534   */\n      swap1\n      pop\n        /* \"#utility.yul\":5393:5540   */\n      swap3\n      swap2\n      pop\n      pop\n      jump\t// out\n        /* \"#utility.yul\":5546:5660   */\n    tag_92:\n      pop\n      jump\t// out\n        /* \"#utility.yul\":5666:6064   */\n    tag_93:\n        /* \"#utility.yul\":5825:5828   */\n      0x00\n        /* \"#utility.yul\":5846:5929   */\n      tag_161\n        /* \"#utility.yul\":5927:5928   */\n      0x00\n        /* \"#utility.yul\":5922:5925   */\n      dup4\n        /* \"#utility.yul\":5846:5929   */\n      tag_91\n      jump\t// in\n    tag_161:\n        /* \"#utility.yul\":5839:5929   */\n      swap2\n      pop\n        /* \"#utility.yul\":5938:6031   */\n      tag_162\n        /* \"#utility.yul\":6027:6030   */\n      dup3\n        /* \"#utility.yul\":5938:6031   */\n      tag_92\n      jump\t// in\n    tag_162:\n        /* \"#utility.yul\":6056:6057   */\n      0x00\n        /* \"#utility.yul\":6051:6054   */\n      dup3\n        /* \"#utility.yul\":6047:6058   */\n      add\n        /* \"#utility.yul\":6040:6058   */\n      swap1\n      pop\n        /* \"#utility.yul\":5666:6064   */\n      swap2\n      swap1\n      pop\n      jump\t// out\n        /* \"#utility.yul\":6070:6449   */\n    tag_44:\n        /* \"#utility.yul\":6254:6257   */\n      0x00\n        /* \"#utility.yul\":6276:6423   */\n      tag_164\n        /* \"#utility.yul\":6419:6422   */\n      dup3\n        /* \"#utility.yul\":6276:6423   */\n      tag_93\n      jump\t// in\n    tag_164:\n        /* \"#utility.yul\":6269:6423   */\n      swap2\n      pop\n        /* \"#utility.yul\":6440:6443   */\n      dup2\n        /* \"#utility.yul\":6433:6443   */\n      swap1\n      pop\n        /* \"#utility.yul\":6070:6449   */\n      swap2\n      swap1\n      pop\n      jump\t// out\n        /* \"#utility.yul\":6455:6621   */\n    tag_94:\n        /* \"#utility.yul\":6595:6613   */\n      0x5472616e73666572206661696c65642e00000000000000000000000000000000\n        /* \"#utility.yul\":6591:6592   */\n      0x00\n        /* \"#utility.yul\":6583:6589   */\n      dup3\n        /* \"#utility.yul\":6579:6593   */\n      add\n        /* \"#utility.yul\":6572:6614   */\n      mstore\n        /* \"#utility.yul\":6455:6621   */\n      pop\n      jump\t// out\n        /* \"#utility.yul\":6627:6993   */\n    tag_95:\n        /* \"#utility.yul\":6769:6772   */\n      0x00\n        /* \"#utility.yul\":6790:6857   */\n      tag_167\n        /* \"#utility.yul\":6854:6856   */\n      0x10\n        /* \"#utility.yul\":6849:6852   */\n      dup4\n        /* \"#utility.yul\":6790:6857   */\n      tag_86\n      jump\t// in\n    tag_167:\n        /* \"#utility.yul\":6783:6857   */\n      swap2\n      pop\n        /* \"#utility.yul\":6866:6959   */\n      tag_168\n        /* \"#utility.yul\":6955:6958   */\n      dup3\n        /* \"#utility.yul\":6866:6959   */\n      tag_94\n      jump\t// in\n    tag_168:\n        /* \"#utility.yul\":6984:6986   */\n      0x20\n        /* \"#utility.yul\":6979:6982   */\n      dup3\n        /* \"#utility.yul\":6975:6987   */\n      add\n        /* \"#utility.yul\":6968:6987   */\n      swap1\n      pop\n        /* \"#utility.yul\":6627:6993   */\n      swap2\n      swap1\n      pop\n      jump\t// out\n        /* \"#utility.yul\":6999:7418   */\n    tag_50:\n        /* \"#utility.yul\":7165:7169   */\n      0x00\n        /* \"#utility.yul\":7203:7205   */\n      0x20\n        /* \"#utility.yul\":7192:7201   */\n      dup3\n        /* \"#utility.yul\":7188:7206   */\n      add\n        /* \"#utility.yul\":7180:7206   */\n      swap1\n      pop\n        /* \"#utility.yul\":7252:7261   */\n      dup2\n        /* \"#utility.yul\":7246:7250   */\n      dup2\n        /* \"#utility.yul\":7242:7262   */\n      sub\n        /* \"#utility.yul\":7238:7239   */\n      0x00\n        /* \"#utility.yul\":7227:7236   */\n      dup4\n        /* \"#utility.yul\":7223:7240   */\n      add\n        /* \"#utility.yul\":7216:7263   */\n      mstore\n        /* \"#utility.yul\":7280:7411   */\n      tag_170\n        /* \"#utility.yul\":7406:7410   */\n      dup2\n        /* \"#utility.yul\":7280:7411   */\n      tag_95\n      jump\t// in\n    tag_170:\n        /* \"#utility.yul\":7272:7411   */\n      swap1\n      pop\n        /* \"#utility.yul\":6999:7418   */\n      swap2\n      swap1\n      pop\n      jump\t// out\n        /* \"#utility.yul\":7424:7597   */\n    tag_96:\n        /* \"#utility.yul\":7564:7589   */\n      0x41646472657373206973206e6f7420616e2061646d696e000000000000000000\n        /* \"#utility.yul\":7560:7561   */\n      0x00\n        /* \"#utility.yul\":7552:7558   */\n      dup3\n        /* \"#utility.yul\":7548:7562   */\n      add\n        /* \"#utility.yul\":7541:7590   */\n      mstore\n        /* \"#utility.yul\":7424:7597   */\n      pop\n      jump\t// out\n        /* \"#utility.yul\":7603:7969   */\n    tag_97:\n        /* \"#utility.yul\":7745:7748   */\n      0x00\n        /* \"#utility.yul\":7766:7833   */\n      tag_173\n        /* \"#utility.yul\":7830:7832   */\n      0x17\n        /* \"#utility.yul\":7825:7828   */\n      dup4\n        /* \"#utility.yul\":7766:7833   */\n      tag_86\n      jump\t// in\n    tag_173:\n        /* \"#utility.yul\":7759:7833   */\n      swap2\n      pop\n        /* \"#utility.yul\":7842:7935   */\n      tag_174\n        /* \"#utility.yul\":7931:7934   */\n      dup3\n        /* \"#utility.yul\":7842:7935   */\n      tag_96\n      jump\t// in\n    tag_174:\n        /* \"#utility.yul\":7960:7962   */\n      0x20\n        /* \"#utility.yul\":7955:7958   */\n      dup3\n        /* \"#utility.yul\":7951:7963   */\n      add\n        /* \"#utility.yul\":7944:7963   */\n      swap1\n      pop\n        /* \"#utility.yul\":7603:7969   */\n      swap2\n      swap1\n      pop\n      jump\t// out\n        /* \"#utility.yul\":7975:8394   */\n    tag_58:\n        /* \"#utility.yul\":8141:8145   */\n      0x00\n        /* \"#utility.yul\":8179:8181   */\n      0x20\n        /* \"#utility.yul\":8168:8177   */\n      dup3\n        /* \"#utility.yul\":8164:8182   */\n      add\n        /* \"#utility.yul\":8156:8182   */\n      swap1\n      pop\n        /* \"#utility.yul\":8228:8237   */\n      dup2\n        /* \"#utility.yul\":8222:8226   */\n      dup2\n        /* \"#utility.yul\":8218:8238   */\n      sub\n        /* \"#utility.yul\":8214:8215   */\n      0x00\n        /* \"#utility.yul\":8203:8212   */\n      dup4\n        /* \"#utility.yul\":8199:8216   */\n      add\n        /* \"#utility.yul\":8192:8239   */\n      mstore\n        /* \"#utility.yul\":8256:8387   */\n      tag_176\n        /* \"#utility.yul\":8382:8386   */\n      dup2\n        /* \"#utility.yul\":8256:8387   */\n      tag_97\n      jump\t// in\n    tag_176:\n        /* \"#utility.yul\":8248:8387   */\n      swap1\n      pop\n        /* \"#utility.yul\":7975:8394   */\n      swap2\n      swap1\n      pop\n      jump\t// out\n        /* \"#utility.yul\":8400:8622   */\n    tag_98:\n        /* \"#utility.yul\":8540:8574   */\n      0x596f752063616e6e6f742072656d6f766520796f757273656c66206173206164\n        /* \"#utility.yul\":8536:8537   */\n      0x00\n        /* \"#utility.yul\":8528:8534   */\n      dup3\n        /* \"#utility.yul\":8524:8538   */\n      add\n        /* \"#utility.yul\":8517:8575   */\n      mstore\n        /* \"#utility.yul\":8609:8614   */\n      0x6d696e0000000000000000000000000000000000000000000000000000000000\n        /* \"#utility.yul\":8604:8606   */\n      0x20\n        /* \"#utility.yul\":8596:8602   */\n      dup3\n        /* \"#utility.yul\":8592:8607   */\n      add\n        /* \"#utility.yul\":8585:8615   */\n      mstore\n        /* \"#utility.yul\":8400:8622   */\n      pop\n      jump\t// out\n        /* \"#utility.yul\":8628:8994   */\n    tag_99:\n        /* \"#utility.yul\":8770:8773   */\n      0x00\n        /* \"#utility.yul\":8791:8858   */\n      tag_179\n        /* \"#utility.yul\":8855:8857   */\n      0x23\n        /* \"#utility.yul\":8850:8853   */\n      dup4\n        /* \"#utility.yul\":8791:8858   */\n      tag_86\n      jump\t// in\n    tag_179:\n        /* \"#utility.yul\":8784:8858   */\n      swap2\n      pop\n        /* \"#utility.yul\":8867:8960   */\n      tag_180\n        /* \"#utility.yul\":8956:8959   */\n      dup3\n        /* \"#utility.yul\":8867:8960   */\n      tag_98\n      jump\t// in\n    tag_180:\n        /* \"#utility.yul\":8985:8987   */\n      0x40\n        /* \"#utility.yul\":8980:8983   */\n      dup3\n        /* \"#utility.yul\":8976:8988   */\n      add\n        /* \"#utility.yul\":8969:8988   */\n      swap1\n      pop\n        /* \"#utility.yul\":8628:8994   */\n      swap2\n      swap1\n      pop\n      jump\t// out\n        /* \"#utility.yul\":9000:9419   */\n    tag_61:\n        /* \"#utility.yul\":9166:9170   */\n      0x00\n        /* \"#utility.yul\":9204:9206   */\n      0x20\n        /* \"#utility.yul\":9193:9202   */\n      dup3\n        /* \"#utility.yul\":9189:9207   */\n      add\n        /* \"#utility.yul\":9181:9207   */\n      swap1\n      pop\n        /* \"#utility.yul\":9253:9262   */\n      dup2\n        /* \"#utility.yul\":9247:9251   */\n      dup2\n        /* \"#utility.yul\":9243:9263   */\n      sub\n        /* \"#utility.yul\":9239:9240   */\n      0x00\n        /* \"#utility.yul\":9228:9237   */\n      dup4\n        /* \"#utility.yul\":9224:9241   */\n      add\n        /* \"#utility.yul\":9217:9264   */\n      mstore\n        /* \"#utility.yul\":9281:9412   */\n      tag_182\n        /* \"#utility.yul\":9407:9411   */\n      dup2\n        /* \"#utility.yul\":9281:9412   */\n      tag_99\n      jump\t// in\n    tag_182:\n        /* \"#utility.yul\":9273:9412   */\n      swap1\n      pop\n        /* \"#utility.yul\":9000:9419   */\n      swap2\n      swap1\n      pop\n      jump\t// out\n        /* \"#utility.yul\":9425:9602   */\n    tag_100:\n        /* \"#utility.yul\":9565:9594   */\n      0x4164647265737320697320616c726561647920616e2061646d696e0000000000\n        /* \"#utility.yul\":9561:9562   */\n      0x00\n        /* \"#utility.yul\":9553:9559   */\n      dup3\n        /* \"#utility.yul\":9549:9563   */\n      add\n        /* \"#utility.yul\":9542:9595   */\n      mstore\n        /* \"#utility.yul\":9425:9602   */\n      pop\n      jump\t// out\n        /* \"#utility.yul\":9608:9974   */\n    tag_101:\n        /* \"#utility.yul\":9750:9753   */\n      0x00\n        /* \"#utility.yul\":9771:9838   */\n      tag_185\n        /* \"#utility.yul\":9835:9837   */\n      0x1b\n        /* \"#utility.yul\":9830:9833   */\n      dup4\n        /* \"#utility.yul\":9771:9838   */\n      tag_86\n      jump\t// in\n    tag_185:\n        /* \"#utility.yul\":9764:9838   */\n      swap2\n      pop\n        /* \"#utility.yul\":9847:9940   */\n      tag_186\n        /* \"#utility.yul\":9936:9939   */\n      dup3\n        /* \"#utility.yul\":9847:9940   */\n      tag_100\n      jump\t// in\n    tag_186:\n        /* \"#utility.yul\":9965:9967   */\n      0x20\n        /* \"#utility.yul\":9960:9963   */\n      dup3\n        /* \"#utility.yul\":9956:9968   */\n      add\n        /* \"#utility.yul\":9949:9968   */\n      swap1\n      pop\n        /* \"#utility.yul\":9608:9974   */\n      swap2\n      swap1\n      pop\n      jump\t// out\n        /* \"#utility.yul\":9980:10399   */\n    tag_69:\n        /* \"#utility.yul\":10146:10150   */\n      0x00\n        /* \"#utility.yul\":10184:10186   */\n      0x20\n        /* \"#utility.yul\":10173:10182   */\n      dup3\n        /* \"#utility.yul\":10169:10187   */\n      add\n        /* \"#utility.yul\":10161:10187   */\n      swap1\n      pop\n        /* \"#utility.yul\":10233:10242   */\n      dup2\n        /* \"#utility.yul\":10227:10231   */\n      dup2\n        /* \"#utility.yul\":10223:10243   */\n      sub\n        /* \"#utility.yul\":10219:10220   */\n      0x00\n        /* \"#utility.yul\":10208:10217   */\n      dup4\n        /* \"#utility.yul\":10204:10221   */\n      add\n        /* \"#utility.yul\":10197:10244   */\n      mstore\n        /* \"#utility.yul\":10261:10392   */\n      tag_188\n        /* \"#utility.yul\":10387:10391   */\n      dup2\n        /* \"#utility.yul\":10261:10392   */\n      tag_101\n      jump\t// in\n    tag_188:\n        /* \"#utility.yul\":10253:10392   */\n      swap1\n      pop\n        /* \"#utility.yul\":9980:10399   */\n      swap2\n      swap1\n      pop\n      jump\t// out\n\n    auxdata: 0xa2646970667358221220c5747fb38e4f0ad7015b7274a71a3b26b701659423b60093d7a36361eca117dc64736f6c634300081a0033\n}\n",
				"bytecode": {
					"linkReferences": {},
					"object": "6080604052348015600f57600080fd5b5060016000803373ffffffffffffffffffffffffffffffffffffffff1673ffffffffffffffffffffffffffffffffffffffff16815260200190815260200160002060006101000a81548160ff021916908315150217905550610c29806100766000396000f3fe60806040526004361061004e5760003560e01c806305b1137b1461005a5780631785f53c14610083578063429b62e5146100ac5780636f9fb98a146100e9578063704802751461011457610055565b3661005557005b600080fd5b34801561006657600080fd5b50610081600480360381019061007c91906107bd565b61013d565b005b34801561008f57600080fd5b506100aa60048036038101906100a5919061083b565b61030a565b005b3480156100b857600080fd5b506100d360048036038101906100ce919061083b565b610548565b6040516100e09190610883565b60405180910390f35b3480156100f557600080fd5b506100fe610568565b60405161010b91906108ad565b60405180910390f35b34801561012057600080fd5b5061013b6004803603810190610136919061083b565b610570565b005b6000803373ffffffffffffffffffffffffffffffffffffffff1673ffffffffffffffffffffffffffffffffffffffff16815260200190815260200160002060009054906101000a900460ff166101c8576040517f08c379a00000000000000000000000000000000000000000000000000000000081526004016101bf9061094b565b60405180910390fd5b8047101561020b576040517f08c379a0000000000000000000000000000000000000000000000000000000008152600401610202906109b7565b60405180910390fd5b60008273ffffffffffffffffffffffffffffffffffffffff168260405161023190610a08565b60006040518083038185875af1925050503d806000811461026e576040519150601f19603f3d011682016040523d82523d6000602084013e610273565b606091505b50509050806102b7576040517f08c379a00000000000000000000000000000000000000000000000000000000081526004016102ae90610a69565b60405180910390fd5b8273ffffffffffffffffffffffffffffffffffffffff167f2bd8874aee0f667380057c67e3a812157e4b7649b244d6fcbc9094a9a1f7ee1d836040516102fd91906108ad565b60405180910390a2505050565b6000803373ffffffffffffffffffffffffffffffffffffffff1673ffffffffffffffffffffffffffffffffffffffff16815260200190815260200160002060009054906101000a900460ff16610395576040517f08c379a000000000000000000000000000000000000000000000000000000000815260040161038c9061094b565b60405180910390fd5b6000808273ffffffffffffffffffffffffffffffffffffffff1673ffffffffffffffffffffffffffffffffffffffff16815260200190815260200160002060009054906101000a900460ff16610420576040517f08c379a000000000000000000000000000000000000000000000000000000000815260040161041790610ad5565b60405180910390fd5b6000803373ffffffffffffffffffffffffffffffffffffffff1673ffffffffffffffffffffffffffffffffffffffff16815260200190815260200160002060009054906101000a900460ff166104ab576040517f08c379a00000000000000000000000000000000000000000000000000000000081526004016104a290610b67565b60405180910390fd5b60008060008373ffffffffffffffffffffffffffffffffffffffff1673ffffffffffffffffffffffffffffffffffffffff16815260200190815260200160002060006101000a81548160ff0219169083151502179055508073ffffffffffffffffffffffffffffffffffffffff167fa3b62bc36326052d97ea62d63c3d60308ed4c3ea8ac079dd8499f1e9c4f80c0f60405160405180910390a250565b60006020528060005260406000206000915054906101000a900460ff1681565b600047905090565b6000803373ffffffffffffffffffffffffffffffffffffffff1673ffffffffffffffffffffffffffffffffffffffff16815260200190815260200160002060009054906101000a900460ff166105fb576040517f08c379a00000000000000000000000000000000000000000000000000000000081526004016105f29061094b565b60405180910390fd5b6000808273ffffffffffffffffffffffffffffffffffffffff1673ffffffffffffffffffffffffffffffffffffffff16815260200190815260200160002060009054906101000a900460ff1615610687576040517f08c379a000000000000000000000000000000000000000000000000000000000815260040161067e90610bd3565b60405180910390fd5b60016000808373ffffffffffffffffffffffffffffffffffffffff1673ffffffffffffffffffffffffffffffffffffffff16815260200190815260200160002060006101000a81548160ff0219169083151502179055508073ffffffffffffffffffffffffffffffffffffffff167f44d6d25963f097ad14f29f06854a01f575648a1ef82f30e562ccd3889717e33960405160405180910390a250565b600080fd5b600073ffffffffffffffffffffffffffffffffffffffff82169050919050565b600061075482610729565b9050919050565b61076481610749565b811461076f57600080fd5b50565b6000813590506107818161075b565b92915050565b6000819050919050565b61079a81610787565b81146107a557600080fd5b50565b6000813590506107b781610791565b92915050565b600080604083850312156107d4576107d3610724565b5b60006107e285828601610772565b92505060206107f3858286016107a8565b9150509250929050565b600061080882610729565b9050919050565b610818816107fd565b811461082357600080fd5b50565b6000813590506108358161080f565b92915050565b60006020828403121561085157610850610724565b5b600061085f84828501610826565b91505092915050565b60008115159050919050565b61087d81610868565b82525050565b60006020820190506108986000830184610874565b92915050565b6108a781610787565b82525050565b60006020820190506108c2600083018461089e565b92915050565b600082825260208201905092915050565b7f4f6e6c792061646d696e2063616e20706572666f726d2074686973206163746960008201527f6f6e000000000000000000000000000000000000000000000000000000000000602082015250565b60006109356022836108c8565b9150610940826108d9565b604082019050919050565b6000602082019050818103600083015261096481610928565b9050919050565b7f496e73756666696369656e742045746865722e00000000000000000000000000600082015250565b60006109a16013836108c8565b91506109ac8261096b565b602082019050919050565b600060208201905081810360008301526109d081610994565b9050919050565b600081905092915050565b50565b60006109f26000836109d7565b91506109fd826109e2565b600082019050919050565b6000610a13826109e5565b9150819050919050565b7f5472616e73666572206661696c65642e00000000000000000000000000000000600082015250565b6000610a536010836108c8565b9150610a5e82610a1d565b602082019050919050565b60006020820190508181036000830152610a8281610a46565b9050919050565b7f41646472657373206973206e6f7420616e2061646d696e000000000000000000600082015250565b6000610abf6017836108c8565b9150610aca82610a89565b602082019050919050565b60006020820190508181036000830152610aee81610ab2565b9050919050565b7f596f752063616e6e6f742072656d6f766520796f757273656c6620617320616460008201527f6d696e0000000000000000000000000000000000000000000000000000000000602082015250565b6000610b516023836108c8565b9150610b5c82610af5565b604082019050919050565b60006020820190508181036000830152610b8081610b44565b9050919050565b7f4164647265737320697320616c726561647920616e2061646d696e0000000000600082015250565b6000610bbd601b836108c8565b9150610bc882610b87565b602082019050919050565b60006020820190508181036000830152610bec81610bb0565b905091905056fea2646970667358221220c5747fb38e4f0ad7015b7274a71a3b26b701659423b60093d7a36361eca117dc64736f6c634300081a0033",
					"opcodes": "PUSH1 0x80 PUSH1 0x40 MSTORE CALLVALUE DUP1 ISZERO PUSH1 0xF JUMPI PUSH1 0x0 DUP1 REVERT JUMPDEST POP PUSH1 0x1 PUSH1 0x0 DUP1 CALLER PUSH20 0xFFFFFFFFFFFFFFFFFFFFFFFFFFFFFFFFFFFFFFFF AND PUSH20 0xFFFFFFFFFFFFFFFFFFFFFFFFFFFFFFFFFFFFFFFF AND DUP2 MSTORE PUSH1 0x20 ADD SWAP1 DUP2 MSTORE PUSH1 0x20 ADD PUSH1 0x0 KECCAK256 PUSH1 0x0 PUSH2 0x100 EXP DUP2 SLOAD DUP2 PUSH1 0xFF MUL NOT AND SWAP1 DUP4 ISZERO ISZERO MUL OR SWAP1 SSTORE POP PUSH2 0xC29 DUP1 PUSH2 0x76 PUSH1 0x0 CODECOPY PUSH1 0x0 RETURN INVALID PUSH1 0x80 PUSH1 0x40 MSTORE PUSH1 0x4 CALLDATASIZE LT PUSH2 0x4E JUMPI PUSH1 0x0 CALLDATALOAD PUSH1 0xE0 SHR DUP1 PUSH4 0x5B1137B EQ PUSH2 0x5A JUMPI DUP1 PUSH4 0x1785F53C EQ PUSH2 0x83 JUMPI DUP1 PUSH4 0x429B62E5 EQ PUSH2 0xAC JUMPI DUP1 PUSH4 0x6F9FB98A EQ PUSH2 0xE9 JUMPI DUP1 PUSH4 0x70480275 EQ PUSH2 0x114 JUMPI PUSH2 0x55 JUMP JUMPDEST CALLDATASIZE PUSH2 0x55 JUMPI STOP JUMPDEST PUSH1 0x0 DUP1 REVERT JUMPDEST CALLVALUE DUP1 ISZERO PUSH2 0x66 JUMPI PUSH1 0x0 DUP1 REVERT JUMPDEST POP PUSH2 0x81 PUSH1 0x4 DUP1 CALLDATASIZE SUB DUP2 ADD SWAP1 PUSH2 0x7C SWAP2 SWAP1 PUSH2 0x7BD JUMP JUMPDEST PUSH2 0x13D JUMP JUMPDEST STOP JUMPDEST CALLVALUE DUP1 ISZERO PUSH2 0x8F JUMPI PUSH1 0x0 DUP1 REVERT JUMPDEST POP PUSH2 0xAA PUSH1 0x4 DUP1 CALLDATASIZE SUB DUP2 ADD SWAP1 PUSH2 0xA5 SWAP2 SWAP1 PUSH2 0x83B JUMP JUMPDEST PUSH2 0x30A JUMP JUMPDEST STOP JUMPDEST CALLVALUE DUP1 ISZERO PUSH2 0xB8 JUMPI PUSH1 0x0 DUP1 REVERT JUMPDEST POP PUSH2 0xD3 PUSH1 0x4 DUP1 CALLDATASIZE SUB DUP2 ADD SWAP1 PUSH2 0xCE SWAP2 SWAP1 PUSH2 0x83B JUMP JUMPDEST PUSH2 0x548 JUMP JUMPDEST PUSH1 0x40 MLOAD PUSH2 0xE0 SWAP2 SWAP1 PUSH2 0x883 JUMP JUMPDEST PUSH1 0x40 MLOAD DUP1 SWAP2 SUB SWAP1 RETURN JUMPDEST CALLVALUE DUP1 ISZERO PUSH2 0xF5 JUMPI PUSH1 0x0 DUP1 REVERT JUMPDEST POP PUSH2 0xFE PUSH2 0x568 JUMP JUMPDEST PUSH1 0x40 MLOAD PUSH2 0x10B SWAP2 SWAP1 PUSH2 0x8AD JUMP JUMPDEST PUSH1 0x40 MLOAD DUP1 SWAP2 SUB SWAP1 RETURN JUMPDEST CALLVALUE DUP1 ISZERO PUSH2 0x120 JUMPI PUSH1 0x0 DUP1 REVERT JUMPDEST POP PUSH2 0x13B PUSH1 0x4 DUP1 CALLDATASIZE SUB DUP2 ADD SWAP1 PUSH2 0x136 SWAP2 SWAP1 PUSH2 0x83B JUMP JUMPDEST PUSH2 0x570 JUMP JUMPDEST STOP JUMPDEST PUSH1 0x0 DUP1 CALLER PUSH20 0xFFFFFFFFFFFFFFFFFFFFFFFFFFFFFFFFFFFFFFFF AND PUSH20 0xFFFFFFFFFFFFFFFFFFFFFFFFFFFFFFFFFFFFFFFF AND DUP2 MSTORE PUSH1 0x20 ADD SWAP1 DUP2 MSTORE PUSH1 0x20 ADD PUSH1 0x0 KECCAK256 PUSH1 0x0 SWAP1 SLOAD SWAP1 PUSH2 0x100 EXP SWAP1 DIV PUSH1 0xFF AND PUSH2 0x1C8 JUMPI PUSH1 0x40 MLOAD PUSH32 0x8C379A000000000000000000000000000000000000000000000000000000000 DUP2 MSTORE PUSH1 0x4 ADD PUSH2 0x1BF SWAP1 PUSH2 0x94B JUMP JUMPDEST PUSH1 0x40 MLOAD DUP1 SWAP2 SUB SWAP1 REVERT JUMPDEST DUP1 SELFBALANCE LT ISZERO PUSH2 0x20B JUMPI PUSH1 0x40 MLOAD PUSH32 0x8C379A000000000000000000000000000000000000000000000000000000000 DUP2 MSTORE PUSH1 0x4 ADD PUSH2 0x202 SWAP1 PUSH2 0x9B7 JUMP JUMPDEST PUSH1 0x40 MLOAD DUP1 SWAP2 SUB SWAP1 REVERT JUMPDEST PUSH1 0x0 DUP3 PUSH20 0xFFFFFFFFFFFFFFFFFFFFFFFFFFFFFFFFFFFFFFFF AND DUP3 PUSH1 0x40 MLOAD PUSH2 0x231 SWAP1 PUSH2 0xA08 JUMP JUMPDEST PUSH1 0x0 PUSH1 0x40 MLOAD DUP1 DUP4 SUB DUP2 DUP6 DUP8 GAS CALL SWAP3 POP POP POP RETURNDATASIZE DUP1 PUSH1 0x0 DUP2 EQ PUSH2 0x26E JUMPI PUSH1 0x40 MLOAD SWAP2 POP PUSH1 0x1F NOT PUSH1 0x3F RETURNDATASIZE ADD AND DUP3 ADD PUSH1 0x40 MSTORE RETURNDATASIZE DUP3 MSTORE RETURNDATASIZE PUSH1 0x0 PUSH1 0x20 DUP5 ADD RETURNDATACOPY PUSH2 0x273 JUMP JUMPDEST PUSH1 0x60 SWAP2 POP JUMPDEST POP POP SWAP1 POP DUP1 PUSH2 0x2B7 JUMPI PUSH1 0x40 MLOAD PUSH32 0x8C379A000000000000000000000000000000000000000000000000000000000 DUP2 MSTORE PUSH1 0x4 ADD PUSH2 0x2AE SWAP1 PUSH2 0xA69 JUMP JUMPDEST PUSH1 0x40 MLOAD DUP1 SWAP2 SUB SWAP1 REVERT JUMPDEST DUP3 PUSH20 0xFFFFFFFFFFFFFFFFFFFFFFFFFFFFFFFFFFFFFFFF AND PUSH32 0x2BD8874AEE0F667380057C67E3A812157E4B7649B244D6FCBC9094A9A1F7EE1D DUP4 PUSH1 0x40 MLOAD PUSH2 0x2FD SWAP2 SWAP1 PUSH2 0x8AD JUMP JUMPDEST PUSH1 0x40 MLOAD DUP1 SWAP2 SUB SWAP1 LOG2 POP POP POP JUMP JUMPDEST PUSH1 0x0 DUP1 CALLER PUSH20 0xFFFFFFFFFFFFFFFFFFFFFFFFFFFFFFFFFFFFFFFF AND PUSH20 0xFFFFFFFFFFFFFFFFFFFFFFFFFFFFFFFFFFFFFFFF AND DUP2 MSTORE PUSH1 0x20 ADD SWAP1 DUP2 MSTORE PUSH1 0x20 ADD PUSH1 0x0 KECCAK256 PUSH1 0x0 SWAP1 SLOAD SWAP1 PUSH2 0x100 EXP SWAP1 DIV PUSH1 0xFF AND PUSH2 0x395 JUMPI PUSH1 0x40 MLOAD PUSH32 0x8C379A000000000000000000000000000000000000000000000000000000000 DUP2 MSTORE PUSH1 0x4 ADD PUSH2 0x38C SWAP1 PUSH2 0x94B JUMP JUMPDEST PUSH1 0x40 MLOAD DUP1 SWAP2 SUB SWAP1 REVERT JUMPDEST PUSH1 0x0 DUP1 DUP3 PUSH20 0xFFFFFFFFFFFFFFFFFFFFFFFFFFFFFFFFFFFFFFFF AND PUSH20 0xFFFFFFFFFFFFFFFFFFFFFFFFFFFFFFFFFFFFFFFF AND DUP2 MSTORE PUSH1 0x20 ADD SWAP1 DUP2 MSTORE PUSH1 0x20 ADD PUSH1 0x0 KECCAK256 PUSH1 0x0 SWAP1 SLOAD SWAP1 PUSH2 0x100 EXP SWAP1 DIV PUSH1 0xFF AND PUSH2 0x420 JUMPI PUSH1 0x40 MLOAD PUSH32 0x8C379A000000000000000000000000000000000000000000000000000000000 DUP2 MSTORE PUSH1 0x4 ADD PUSH2 0x417 SWAP1 PUSH2 0xAD5 JUMP JUMPDEST PUSH1 0x40 MLOAD DUP1 SWAP2 SUB SWAP1 REVERT JUMPDEST PUSH1 0x0 DUP1 CALLER PUSH20 0xFFFFFFFFFFFFFFFFFFFFFFFFFFFFFFFFFFFFFFFF AND PUSH20 0xFFFFFFFFFFFFFFFFFFFFFFFFFFFFFFFFFFFFFFFF AND DUP2 MSTORE PUSH1 0x20 ADD SWAP1 DUP2 MSTORE PUSH1 0x20 ADD PUSH1 0x0 KECCAK256 PUSH1 0x0 SWAP1 SLOAD SWAP1 PUSH2 0x100 EXP SWAP1 DIV PUSH1 0xFF AND PUSH2 0x4AB JUMPI PUSH1 0x40 MLOAD PUSH32 0x8C379A000000000000000000000000000000000000000000000000000000000 DUP2 MSTORE PUSH1 0x4 ADD PUSH2 0x4A2 SWAP1 PUSH2 0xB67 JUMP JUMPDEST PUSH1 0x40 MLOAD DUP1 SWAP2 SUB SWAP1 REVERT JUMPDEST PUSH1 0x0 DUP1 PUSH1 0x0 DUP4 PUSH20 0xFFFFFFFFFFFFFFFFFFFFFFFFFFFFFFFFFFFFFFFF AND PUSH20 0xFFFFFFFFFFFFFFFFFFFFFFFFFFFFFFFFFFFFFFFF AND DUP2 MSTORE PUSH1 0x20 ADD SWAP1 DUP2 MSTORE PUSH1 0x20 ADD PUSH1 0x0 KECCAK256 PUSH1 0x0 PUSH2 0x100 EXP DUP2 SLOAD DUP2 PUSH1 0xFF MUL NOT AND SWAP1 DUP4 ISZERO ISZERO MUL OR SWAP1 SSTORE POP DUP1 PUSH20 0xFFFFFFFFFFFFFFFFFFFFFFFFFFFFFFFFFFFFFFFF AND PUSH32 0xA3B62BC36326052D97EA62D63C3D60308ED4C3EA8AC079DD8499F1E9C4F80C0F PUSH1 0x40 MLOAD PUSH1 0x40 MLOAD DUP1 SWAP2 SUB SWAP1 LOG2 POP JUMP JUMPDEST PUSH1 0x0 PUSH1 0x20 MSTORE DUP1 PUSH1 0x0 MSTORE PUSH1 0x40 PUSH1 0x0 KECCAK256 PUSH1 0x0 SWAP2 POP SLOAD SWAP1 PUSH2 0x100 EXP SWAP1 DIV PUSH1 0xFF AND DUP2 JUMP JUMPDEST PUSH1 0x0 SELFBALANCE SWAP1 POP SWAP1 JUMP JUMPDEST PUSH1 0x0 DUP1 CALLER PUSH20 0xFFFFFFFFFFFFFFFFFFFFFFFFFFFFFFFFFFFFFFFF AND PUSH20 0xFFFFFFFFFFFFFFFFFFFFFFFFFFFFFFFFFFFFFFFF AND DUP2 MSTORE PUSH1 0x20 ADD SWAP1 DUP2 MSTORE PUSH1 0x20 ADD PUSH1 0x0 KECCAK256 PUSH1 0x0 SWAP1 SLOAD SWAP1 PUSH2 0x100 EXP SWAP1 DIV PUSH1 0xFF AND PUSH2 0x5FB JUMPI PUSH1 0x40 MLOAD PUSH32 0x8C379A000000000000000000000000000000000000000000000000000000000 DUP2 MSTORE PUSH1 0x4 ADD PUSH2 0x5F2 SWAP1 PUSH2 0x94B JUMP JUMPDEST PUSH1 0x40 MLOAD DUP1 SWAP2 SUB SWAP1 REVERT JUMPDEST PUSH1 0x0 DUP1 DUP3 PUSH20 0xFFFFFFFFFFFFFFFFFFFFFFFFFFFFFFFFFFFFFFFF AND PUSH20 0xFFFFFFFFFFFFFFFFFFFFFFFFFFFFFFFFFFFFFFFF AND DUP2 MSTORE PUSH1 0x20 ADD SWAP1 DUP2 MSTORE PUSH1 0x20 ADD PUSH1 0x0 KECCAK256 PUSH1 0x0 SWAP1 SLOAD SWAP1 PUSH2 0x100 EXP SWAP1 DIV PUSH1 0xFF AND ISZERO PUSH2 0x687 JUMPI PUSH1 0x40 MLOAD PUSH32 0x8C379A000000000000000000000000000000000000000000000000000000000 DUP2 MSTORE PUSH1 0x4 ADD PUSH2 0x67E SWAP1 PUSH2 0xBD3 JUMP JUMPDEST PUSH1 0x40 MLOAD DUP1 SWAP2 SUB SWAP1 REVERT JUMPDEST PUSH1 0x1 PUSH1 0x0 DUP1 DUP4 PUSH20 0xFFFFFFFFFFFFFFFFFFFFFFFFFFFFFFFFFFFFFFFF AND PUSH20 0xFFFFFFFFFFFFFFFFFFFFFFFFFFFFFFFFFFFFFFFF AND DUP2 MSTORE PUSH1 0x20 ADD SWAP1 DUP2 MSTORE PUSH1 0x20 ADD PUSH1 0x0 KECCAK256 PUSH1 0x0 PUSH2 0x100 EXP DUP2 SLOAD DUP2 PUSH1 0xFF MUL NOT AND SWAP1 DUP4 ISZERO ISZERO MUL OR SWAP1 SSTORE POP DUP1 PUSH20 0xFFFFFFFFFFFFFFFFFFFFFFFFFFFFFFFFFFFFFFFF AND PUSH32 0x44D6D25963F097AD14F29F06854A01F575648A1EF82F30E562CCD3889717E339 PUSH1 0x40 MLOAD PUSH1 0x40 MLOAD DUP1 SWAP2 SUB SWAP1 LOG2 POP JUMP JUMPDEST PUSH1 0x0 DUP1 REVERT JUMPDEST PUSH1 0x0 PUSH20 0xFFFFFFFFFFFFFFFFFFFFFFFFFFFFFFFFFFFFFFFF DUP3 AND SWAP1 POP SWAP2 SWAP1 POP JUMP JUMPDEST PUSH1 0x0 PUSH2 0x754 DUP3 PUSH2 0x729 JUMP JUMPDEST SWAP1 POP SWAP2 SWAP1 POP JUMP JUMPDEST PUSH2 0x764 DUP2 PUSH2 0x749 JUMP JUMPDEST DUP2 EQ PUSH2 0x76F JUMPI PUSH1 0x0 DUP1 REVERT JUMPDEST POP JUMP JUMPDEST PUSH1 0x0 DUP2 CALLDATALOAD SWAP1 POP PUSH2 0x781 DUP2 PUSH2 0x75B JUMP JUMPDEST SWAP3 SWAP2 POP POP JUMP JUMPDEST PUSH1 0x0 DUP2 SWAP1 POP SWAP2 SWAP1 POP JUMP JUMPDEST PUSH2 0x79A DUP2 PUSH2 0x787 JUMP JUMPDEST DUP2 EQ PUSH2 0x7A5 JUMPI PUSH1 0x0 DUP1 REVERT JUMPDEST POP JUMP JUMPDEST PUSH1 0x0 DUP2 CALLDATALOAD SWAP1 POP PUSH2 0x7B7 DUP2 PUSH2 0x791 JUMP JUMPDEST SWAP3 SWAP2 POP POP JUMP JUMPDEST PUSH1 0x0 DUP1 PUSH1 0x40 DUP4 DUP6 SUB SLT ISZERO PUSH2 0x7D4 JUMPI PUSH2 0x7D3 PUSH2 0x724 JUMP JUMPDEST JUMPDEST PUSH1 0x0 PUSH2 0x7E2 DUP6 DUP3 DUP7 ADD PUSH2 0x772 JUMP JUMPDEST SWAP3 POP POP PUSH1 0x20 PUSH2 0x7F3 DUP6 DUP3 DUP7 ADD PUSH2 0x7A8 JUMP JUMPDEST SWAP2 POP POP SWAP3 POP SWAP3 SWAP1 POP JUMP JUMPDEST PUSH1 0x0 PUSH2 0x808 DUP3 PUSH2 0x729 JUMP JUMPDEST SWAP1 POP SWAP2 SWAP1 POP JUMP JUMPDEST PUSH2 0x818 DUP2 PUSH2 0x7FD JUMP JUMPDEST DUP2 EQ PUSH2 0x823 JUMPI PUSH1 0x0 DUP1 REVERT JUMPDEST POP JUMP JUMPDEST PUSH1 0x0 DUP2 CALLDATALOAD SWAP1 POP PUSH2 0x835 DUP2 PUSH2 0x80F JUMP JUMPDEST SWAP3 SWAP2 POP POP JUMP JUMPDEST PUSH1 0x0 PUSH1 0x20 DUP3 DUP5 SUB SLT ISZERO PUSH2 0x851 JUMPI PUSH2 0x850 PUSH2 0x724 JUMP JUMPDEST JUMPDEST PUSH1 0x0 PUSH2 0x85F DUP5 DUP3 DUP6 ADD PUSH2 0x826 JUMP JUMPDEST SWAP2 POP POP SWAP3 SWAP2 POP POP JUMP JUMPDEST PUSH1 0x0 DUP2 ISZERO ISZERO SWAP1 POP SWAP2 SWAP1 POP JUMP JUMPDEST PUSH2 0x87D DUP2 PUSH2 0x868 JUMP JUMPDEST DUP3 MSTORE POP POP JUMP JUMPDEST PUSH1 0x0 PUSH1 0x20 DUP3 ADD SWAP1 POP PUSH2 0x898 PUSH1 0x0 DUP4 ADD DUP5 PUSH2 0x874 JUMP JUMPDEST SWAP3 SWAP2 POP POP JUMP JUMPDEST PUSH2 0x8A7 DUP2 PUSH2 0x787 JUMP JUMPDEST DUP3 MSTORE POP POP JUMP JUMPDEST PUSH1 0x0 PUSH1 0x20 DUP3 ADD SWAP1 POP PUSH2 0x8C2 PUSH1 0x0 DUP4 ADD DUP5 PUSH2 0x89E JUMP JUMPDEST SWAP3 SWAP2 POP POP JUMP JUMPDEST PUSH1 0x0 DUP3 DUP3 MSTORE PUSH1 0x20 DUP3 ADD SWAP1 POP SWAP3 SWAP2 POP POP JUMP JUMPDEST PUSH32 0x4F6E6C792061646D696E2063616E20706572666F726D20746869732061637469 PUSH1 0x0 DUP3 ADD MSTORE PUSH32 0x6F6E000000000000000000000000000000000000000000000000000000000000 PUSH1 0x20 DUP3 ADD MSTORE POP JUMP JUMPDEST PUSH1 0x0 PUSH2 0x935 PUSH1 0x22 DUP4 PUSH2 0x8C8 JUMP JUMPDEST SWAP2 POP PUSH2 0x940 DUP3 PUSH2 0x8D9 JUMP JUMPDEST PUSH1 0x40 DUP3 ADD SWAP1 POP SWAP2 SWAP1 POP JUMP JUMPDEST PUSH1 0x0 PUSH1 0x20 DUP3 ADD SWAP1 POP DUP2 DUP2 SUB PUSH1 0x0 DUP4 ADD MSTORE PUSH2 0x964 DUP2 PUSH2 0x928 JUMP JUMPDEST SWAP1 POP SWAP2 SWAP1 POP JUMP JUMPDEST PUSH32 0x496E73756666696369656E742045746865722E00000000000000000000000000 PUSH1 0x0 DUP3 ADD MSTORE POP JUMP JUMPDEST PUSH1 0x0 PUSH2 0x9A1 PUSH1 0x13 DUP4 PUSH2 0x8C8 JUMP JUMPDEST SWAP2 POP PUSH2 0x9AC DUP3 PUSH2 0x96B JUMP JUMPDEST PUSH1 0x20 DUP3 ADD SWAP1 POP SWAP2 SWAP1 POP JUMP JUMPDEST PUSH1 0x0 PUSH1 0x20 DUP3 ADD SWAP1 POP DUP2 DUP2 SUB PUSH1 0x0 DUP4 ADD MSTORE PUSH2 0x9D0 DUP2 PUSH2 0x994 JUMP JUMPDEST SWAP1 POP SWAP2 SWAP1 POP JUMP JUMPDEST PUSH1 0x0 DUP2 SWAP1 POP SWAP3 SWAP2 POP POP JUMP JUMPDEST POP JUMP JUMPDEST PUSH1 0x0 PUSH2 0x9F2 PUSH1 0x0 DUP4 PUSH2 0x9D7 JUMP JUMPDEST SWAP2 POP PUSH2 0x9FD DUP3 PUSH2 0x9E2 JUMP JUMPDEST PUSH1 0x0 DUP3 ADD SWAP1 POP SWAP2 SWAP1 POP JUMP JUMPDEST PUSH1 0x0 PUSH2 0xA13 DUP3 PUSH2 0x9E5 JUMP JUMPDEST SWAP2 POP DUP2 SWAP1 POP SWAP2 SWAP1 POP JUMP JUMPDEST PUSH32 0x5472616E73666572206661696C65642E00000000000000000000000000000000 PUSH1 0x0 DUP3 ADD MSTORE POP JUMP JUMPDEST PUSH1 0x0 PUSH2 0xA53 PUSH1 0x10 DUP4 PUSH2 0x8C8 JUMP JUMPDEST SWAP2 POP PUSH2 0xA5E DUP3 PUSH2 0xA1D JUMP JUMPDEST PUSH1 0x20 DUP3 ADD SWAP1 POP SWAP2 SWAP1 POP JUMP JUMPDEST PUSH1 0x0 PUSH1 0x20 DUP3 ADD SWAP1 POP DUP2 DUP2 SUB PUSH1 0x0 DUP4 ADD MSTORE PUSH2 0xA82 DUP2 PUSH2 0xA46 JUMP JUMPDEST SWAP1 POP SWAP2 SWAP1 POP JUMP JUMPDEST PUSH32 0x41646472657373206973206E6F7420616E2061646D696E000000000000000000 PUSH1 0x0 DUP3 ADD MSTORE POP JUMP JUMPDEST PUSH1 0x0 PUSH2 0xABF PUSH1 0x17 DUP4 PUSH2 0x8C8 JUMP JUMPDEST SWAP2 POP PUSH2 0xACA DUP3 PUSH2 0xA89 JUMP JUMPDEST PUSH1 0x20 DUP3 ADD SWAP1 POP SWAP2 SWAP1 POP JUMP JUMPDEST PUSH1 0x0 PUSH1 0x20 DUP3 ADD SWAP1 POP DUP2 DUP2 SUB PUSH1 0x0 DUP4 ADD MSTORE PUSH2 0xAEE DUP2 PUSH2 0xAB2 JUMP JUMPDEST SWAP1 POP SWAP2 SWAP1 POP JUMP JUMPDEST PUSH32 0x596F752063616E6E6F742072656D6F766520796F757273656C66206173206164 PUSH1 0x0 DUP3 ADD MSTORE PUSH32 0x6D696E0000000000000000000000000000000000000000000000000000000000 PUSH1 0x20 DUP3 ADD MSTORE POP JUMP JUMPDEST PUSH1 0x0 PUSH2 0xB51 PUSH1 0x23 DUP4 PUSH2 0x8C8 JUMP JUMPDEST SWAP2 POP PUSH2 0xB5C DUP3 PUSH2 0xAF5 JUMP JUMPDEST PUSH1 0x40 DUP3 ADD SWAP1 POP SWAP2 SWAP1 POP JUMP JUMPDEST PUSH1 0x0 PUSH1 0x20 DUP3 ADD SWAP1 POP DUP2 DUP2 SUB PUSH1 0x0 DUP4 ADD MSTORE PUSH2 0xB80 DUP2 PUSH2 0xB44 JUMP JUMPDEST SWAP1 POP SWAP2 SWAP1 POP JUMP JUMPDEST PUSH32 0x4164647265737320697320616C726561647920616E2061646D696E0000000000 PUSH1 0x0 DUP3 ADD MSTORE POP JUMP JUMPDEST PUSH1 0x0 PUSH2 0xBBD PUSH1 0x1B DUP4 PUSH2 0x8C8 JUMP JUMPDEST SWAP2 POP PUSH2 0xBC8 DUP3 PUSH2 0xB87 JUMP JUMPDEST PUSH1 0x20 DUP3 ADD SWAP1 POP SWAP2 SWAP1 POP JUMP JUMPDEST PUSH1 0x0 PUSH1 0x20 DUP3 ADD SWAP1 POP DUP2 DUP2 SUB PUSH1 0x0 DUP4 ADD MSTORE PUSH2 0xBEC DUP2 PUSH2 0xBB0 JUMP JUMPDEST SWAP1 POP SWAP2 SWAP1 POP JUMP INVALID LOG2 PUSH5 0x6970667358 0x22 SLT KECCAK256 0xC5 PUSH21 0x7FB38E4F0AD7015B7274A71A3B26B701659423B600 SWAP4 0xD7 LOG3 PUSH4 0x61ECA117 0xDC PUSH5 0x736F6C6343 STOP ADDMOD BYTE STOP CALLER "
				},
				"gasEstimates": {
					"creation": {
						"codeDepositCost": "622600",
						"executionCost": "25013",
						"totalCost": "647613"
					},
					"external": {
						"addAdmin(address)": "30527",
						"admins(address)": "2867",
						"getContractBalance()": "383",
						"removeAdmin(address)": "32700",
						"transferEther(address,uint256)": "infinite"
					}
				},
				"methodIdentifiers": {
					"addAdmin(address)": "70480275",
					"admins(address)": "429b62e5",
					"getContractBalance()": "6f9fb98a",
					"removeAdmin(address)": "1785f53c",
					"transferEther(address,uint256)": "05b1137b"
				}
			},
			"storageLayout": {
				"storage": [
					{
						"astId": 5,
						"contract": "contracts/TokenDistributor.sol:TokenDistributor",
						"label": "admins",
						"offset": 0,
						"slot": "0",
						"type": "t_mapping(t_address,t_bool)"
					}
				],
				"types": {
					"t_address": {
						"encoding": "inplace",
						"label": "address",
						"numberOfBytes": "20"
					},
					"t_bool": {
						"encoding": "inplace",
						"label": "bool",
						"numberOfBytes": "1"
					},
					"t_mapping(t_address,t_bool)": {
						"encoding": "mapping",
						"key": "t_address",
						"label": "mapping(address => bool)",
						"numberOfBytes": "32",
						"value": "t_bool"
					}
				}
			},
			"userdoc": {
				"kind": "user",
				"methods": {},
				"version": 1
			}
		}
	}
}