{
	"contracts/CourseSectionManagement.sol": {
		"CourseSectionManagement": {
			"abi": [
				{
					"inputs": [],
					"stateMutability": "nonpayable",
					"type": "constructor"
				},
				{
					"inputs": [
						{
							"internalType": "bytes32",
							"name": "_studentSemesterKey",
							"type": "bytes32"
						},
						{
							"internalType": "uint16",
							"name": "_courseSectionId",
							"type": "uint16"
						},
						{
							"internalType": "uint16",
							"name": "_score",
							"type": "uint16"
						},
						{
							"internalType": "enum ScoreType",
							"name": "_scoreType",
							"type": "uint8"
						}
					],
					"name": "addCourseSectionScore",
					"outputs": [],
					"stateMutability": "nonpayable",
					"type": "function"
				},
				{
					"inputs": [],
					"name": "admin",
					"outputs": [
						{
							"internalType": "address",
							"name": "",
							"type": "address"
						}
					],
					"stateMutability": "view",
					"type": "function"
				},
				{
					"inputs": [
						{
							"internalType": "bytes32",
							"name": "_studentSemesterKey",
							"type": "bytes32"
						},
						{
							"internalType": "uint16",
							"name": "_courseSectionId",
							"type": "uint16"
						}
					],
					"name": "getCourseSectionScore",
					"outputs": [
						{
							"components": [
								{
									"internalType": "uint16",
									"name": "courseSectionId",
									"type": "uint16"
								},
								{
									"internalType": "bool",
									"name": "isCourseSectionExisted",
									"type": "bool"
								},
								{
									"components": [
										{
											"internalType": "uint16",
											"name": "midterm",
											"type": "uint16"
										},
										{
											"internalType": "uint16",
											"name": "finalExam",
											"type": "uint16"
										},
										{
											"internalType": "uint16",
											"name": "average",
											"type": "uint16"
										},
										{
											"internalType": "bool",
											"name": "isMidtermSet",
											"type": "bool"
										},
										{
											"internalType": "bool",
											"name": "isFinalExamSet",
											"type": "bool"
										}
									],
									"internalType": "struct Score",
									"name": "score",
									"type": "tuple"
								}
							],
							"internalType": "struct CourseSection",
							"name": "",
							"type": "tuple"
						}
					],
					"stateMutability": "view",
					"type": "function"
				},
				{
					"inputs": [
						{
							"internalType": "uint16",
							"name": "_courseSectionId",
							"type": "uint16"
						}
					],
					"name": "getCourseSectionTeacher",
					"outputs": [
						{
							"internalType": "address",
							"name": "",
							"type": "address"
						}
					],
					"stateMutability": "view",
					"type": "function"
				},
				{
					"inputs": [
						{
							"internalType": "bytes32",
							"name": "_studentSemesterKey",
							"type": "bytes32"
						}
					],
					"name": "getStudentCourseSections",
					"outputs": [
						{
							"components": [
								{
									"internalType": "uint16",
									"name": "courseSectionId",
									"type": "uint16"
								},
								{
									"internalType": "bool",
									"name": "isCourseSectionExisted",
									"type": "bool"
								},
								{
									"components": [
										{
											"internalType": "uint16",
											"name": "midterm",
											"type": "uint16"
										},
										{
											"internalType": "uint16",
											"name": "finalExam",
											"type": "uint16"
										},
										{
											"internalType": "uint16",
											"name": "average",
											"type": "uint16"
										},
										{
											"internalType": "bool",
											"name": "isMidtermSet",
											"type": "bool"
										},
										{
											"internalType": "bool",
											"name": "isFinalExamSet",
											"type": "bool"
										}
									],
									"internalType": "struct Score",
									"name": "score",
									"type": "tuple"
								}
							],
							"internalType": "struct CourseSection[]",
							"name": "",
							"type": "tuple[]"
						}
					],
					"stateMutability": "view",
					"type": "function"
				},
				{
					"inputs": [],
					"name": "semesterManagementAddress",
					"outputs": [
						{
							"internalType": "address",
							"name": "",
							"type": "address"
						}
					],
					"stateMutability": "view",
					"type": "function"
				},
				{
					"inputs": [
						{
							"internalType": "address",
							"name": "_semesterManagementAddress",
							"type": "address"
						}
					],
					"name": "updateSemesterManagementAddress",
					"outputs": [],
					"stateMutability": "nonpayable",
					"type": "function"
				},
				{
					"inputs": [
						{
							"internalType": "bytes32",
							"name": "_studentSemesterKey",
							"type": "bytes32"
						},
						{
							"internalType": "uint16",
							"name": "_courseSectionId",
							"type": "uint16"
						},
						{
							"internalType": "uint16",
							"name": "_score",
							"type": "uint16"
						},
						{
							"internalType": "enum ScoreType",
							"name": "_scoreType",
							"type": "uint8"
						}
					],
					"name": "updateStudentCourseScore",
					"outputs": [],
					"stateMutability": "nonpayable",
					"type": "function"
				}
			],
			"devdoc": {
				"kind": "dev",
				"methods": {},
				"version": 1
			},
			"evm": {
				"assembly": "    /* \"contracts/CourseSectionManagement.sol\":139:7469  contract CourseSectionManagement is ICourseSectionManagement {... */\n  mstore(0x40, 0x80)\n    /* \"contracts/CourseSectionManagement.sol\":833:884  constructor() {... */\n  callvalue\n  dup1\n  iszero\n  tag_1\n  jumpi\n  0x00\n  dup1\n  revert\ntag_1:\n  pop\n    /* \"contracts/CourseSectionManagement.sol\":866:876  msg.sender */\n  caller\n    /* \"contracts/CourseSectionManagement.sol\":858:863  admin */\n  0x01\n  0x00\n    /* \"contracts/CourseSectionManagement.sol\":858:876  admin = msg.sender */\n  0x0100\n  exp\n  dup2\n  sload\n  dup2\n  0xffffffffffffffffffffffffffffffffffffffff\n  mul\n  not\n  and\n  swap1\n  dup4\n  0xffffffffffffffffffffffffffffffffffffffff\n  and\n  mul\n  or\n  swap1\n  sstore\n  pop\n    /* \"contracts/CourseSectionManagement.sol\":139:7469  contract CourseSectionManagement is ICourseSectionManagement {... */\n  dataSize(sub_0)\n  dup1\n  dataOffset(sub_0)\n  0x00\n  codecopy\n  0x00\n  return\nstop\n\nsub_0: assembly {\n        /* \"contracts/CourseSectionManagement.sol\":139:7469  contract CourseSectionManagement is ICourseSectionManagement {... */\n      mstore(0x40, 0x80)\n      callvalue\n      dup1\n      iszero\n      tag_1\n      jumpi\n      0x00\n      dup1\n      revert\n    tag_1:\n      pop\n      jumpi(tag_2, lt(calldatasize, 0x04))\n      shr(0xe0, calldataload(0x00))\n      dup1\n      0x369dc9df\n      gt\n      tag_11\n      jumpi\n      dup1\n      0x369dc9df\n      eq\n      tag_7\n      jumpi\n      dup1\n      0x3dd77517\n      eq\n      tag_8\n      jumpi\n      dup1\n      0x7f78bc69\n      eq\n      tag_9\n      jumpi\n      dup1\n      0xf851a440\n      eq\n      tag_10\n      jumpi\n      jump(tag_2)\n    tag_11:\n      dup1\n      0x0c5f8f02\n      eq\n      tag_3\n      jumpi\n      dup1\n      0x218e703d\n      eq\n      tag_4\n      jumpi\n      dup1\n      0x260a5355\n      eq\n      tag_5\n      jumpi\n      dup1\n      0x30c17ac0\n      eq\n      tag_6\n      jumpi\n    tag_2:\n      0x00\n      dup1\n      revert\n        /* \"contracts/CourseSectionManagement.sol\":2599:2809  function getCourseSectionScore(bytes32 _studentSemesterKey, uint16 _courseSectionId) public view returns(CourseSection memory) {... */\n    tag_3:\n      tag_12\n      0x04\n      dup1\n      calldatasize\n      sub\n      dup2\n      add\n      swap1\n      tag_13\n      swap2\n      swap1\n      tag_14\n      jump\t// in\n    tag_13:\n      tag_15\n      jump\t// in\n    tag_12:\n      mload(0x40)\n      tag_16\n      swap2\n      swap1\n      tag_17\n      jump\t// in\n    tag_16:\n      mload(0x40)\n      dup1\n      swap2\n      sub\n      swap1\n      return\n        /* \"contracts/CourseSectionManagement.sol\":4969:6349  function updateStudentCourseScore(bytes32 _studentSemesterKey, uint16 _courseSectionId, uint16 _score, ScoreType _scoreType) public onlySemesterManagement onlyTeacher(_courseSectionId) {... */\n    tag_4:\n      tag_18\n      0x04\n      dup1\n      calldatasize\n      sub\n      dup2\n      add\n      swap1\n      tag_19\n      swap2\n      swap1\n      tag_20\n      jump\t// in\n    tag_19:\n      tag_21\n      jump\t// in\n    tag_18:\n      stop\n        /* \"contracts/CourseSectionManagement.sol\":2899:4918  function addCourseSectionScore(bytes32 _studentSemesterKey, uint16 _courseSectionId, uint16 _score, ScoreType _scoreType) public onlySemesterManagement onlyTeacher(_courseSectionId) {... */\n    tag_5:\n      tag_22\n      0x04\n      dup1\n      calldatasize\n      sub\n      dup2\n      add\n      swap1\n      tag_23\n      swap2\n      swap1\n      tag_20\n      jump\t// in\n    tag_23:\n      tag_24\n      jump\t// in\n    tag_22:\n      stop\n        /* \"contracts/CourseSectionManagement.sol\":2366:2541  function getStudentCourseSections(bytes32 _studentSemesterKey) public view returns(CourseSection[] memory) {... */\n    tag_6:\n      tag_25\n      0x04\n      dup1\n      calldatasize\n      sub\n      dup2\n      add\n      swap1\n      tag_26\n      swap2\n      swap1\n      tag_27\n      jump\t// in\n    tag_26:\n      tag_28\n      jump\t// in\n    tag_25:\n      mload(0x40)\n      tag_29\n      swap2\n      swap1\n      tag_30\n      jump\t// in\n    tag_29:\n      mload(0x40)\n      dup1\n      swap2\n      sub\n      swap1\n      return\n        /* \"contracts/CourseSectionManagement.sol\":1935:2283  function updateSemesterManagementAddress(address _semesterManagementAddress) public {... */\n    tag_7:\n      tag_31\n      0x04\n      dup1\n      calldatasize\n      sub\n      dup2\n      add\n      swap1\n      tag_32\n      swap2\n      swap1\n      tag_33\n      jump\t// in\n    tag_32:\n      tag_34\n      jump\t// in\n    tag_31:\n      stop\n        /* \"contracts/CourseSectionManagement.sol\":7084:7237  function getCourseSectionTeacher(uint16 _courseSectionId) public view returns (address) {... */\n    tag_8:\n      tag_35\n      0x04\n      dup1\n      calldatasize\n      sub\n      dup2\n      add\n      swap1\n      tag_36\n      swap2\n      swap1\n      tag_37\n      jump\t// in\n    tag_36:\n      tag_38\n      jump\t// in\n    tag_35:\n      mload(0x40)\n      tag_39\n      swap2\n      swap1\n      tag_40\n      jump\t// in\n    tag_39:\n      mload(0x40)\n      dup1\n      swap2\n      sub\n      swap1\n      return\n        /* \"contracts/CourseSectionManagement.sol\":281:321  address public semesterManagementAddress */\n    tag_9:\n      tag_41\n      tag_42\n      jump\t// in\n    tag_41:\n      mload(0x40)\n      tag_43\n      swap2\n      swap1\n      tag_40\n      jump\t// in\n    tag_43:\n      mload(0x40)\n      dup1\n      swap2\n      sub\n      swap1\n      return\n        /* \"contracts/CourseSectionManagement.sol\":328:348  address public admin */\n    tag_10:\n      tag_44\n      tag_45\n      jump\t// in\n    tag_44:\n      mload(0x40)\n      tag_46\n      swap2\n      swap1\n      tag_40\n      jump\t// in\n    tag_46:\n      mload(0x40)\n      dup1\n      swap2\n      sub\n      swap1\n      return\n        /* \"contracts/CourseSectionManagement.sol\":2599:2809  function getCourseSectionScore(bytes32 _studentSemesterKey, uint16 _courseSectionId) public view returns(CourseSection memory) {... */\n    tag_15:\n        /* \"contracts/CourseSectionManagement.sol\":2704:2724  CourseSection memory */\n      tag_47\n      tag_48\n      jump\t// in\n    tag_47:\n        /* \"contracts/CourseSectionManagement.sol\":2744:2762  courseSectionScore */\n      0x03\n        /* \"contracts/CourseSectionManagement.sol\":2744:2783  courseSectionScore[_studentSemesterKey] */\n      0x00\n        /* \"contracts/CourseSectionManagement.sol\":2763:2782  _studentSemesterKey */\n      dup5\n        /* \"contracts/CourseSectionManagement.sol\":2744:2783  courseSectionScore[_studentSemesterKey] */\n      dup2\n      mstore\n      0x20\n      add\n      swap1\n      dup2\n      mstore\n      0x20\n      add\n      0x00\n      keccak256\n        /* \"contracts/CourseSectionManagement.sol\":2744:2801  courseSectionScore[_studentSemesterKey][_courseSectionId] */\n      0x00\n        /* \"contracts/CourseSectionManagement.sol\":2784:2800  _courseSectionId */\n      dup4\n        /* \"contracts/CourseSectionManagement.sol\":2744:2801  courseSectionScore[_studentSemesterKey][_courseSectionId] */\n      0xffff\n      and\n      0xffff\n      and\n      dup2\n      mstore\n      0x20\n      add\n      swap1\n      dup2\n      mstore\n      0x20\n      add\n      0x00\n      keccak256\n        /* \"contracts/CourseSectionManagement.sol\":2737:2801  return courseSectionScore[_studentSemesterKey][_courseSectionId] */\n      mload(0x40)\n      dup1\n      0x60\n      add\n      0x40\n      mstore\n      swap1\n      dup2\n      0x00\n      dup3\n      add\n      0x00\n      swap1\n      sload\n      swap1\n      0x0100\n      exp\n      swap1\n      div\n      0xffff\n      and\n      0xffff\n      and\n      0xffff\n      and\n      dup2\n      mstore\n      0x20\n      add\n      0x00\n      dup3\n      add\n      0x02\n      swap1\n      sload\n      swap1\n      0x0100\n      exp\n      swap1\n      div\n      0xff\n      and\n      iszero\n      iszero\n      iszero\n      iszero\n      dup2\n      mstore\n      0x20\n      add\n      0x01\n      dup3\n      add\n      mload(0x40)\n      dup1\n      0xa0\n      add\n      0x40\n      mstore\n      swap1\n      dup2\n      0x00\n      dup3\n      add\n      0x00\n      swap1\n      sload\n      swap1\n      0x0100\n      exp\n      swap1\n      div\n      0xffff\n      and\n      0xffff\n      and\n      0xffff\n      and\n      dup2\n      mstore\n      0x20\n      add\n      0x00\n      dup3\n      add\n      0x02\n      swap1\n      sload\n      swap1\n      0x0100\n      exp\n      swap1\n      div\n      0xffff\n      and\n      0xffff\n      and\n      0xffff\n      and\n      dup2\n      mstore\n      0x20\n      add\n      0x00\n      dup3\n      add\n      0x04\n      swap1\n      sload\n      swap1\n      0x0100\n      exp\n      swap1\n      div\n      0xffff\n      and\n      0xffff\n      and\n      0xffff\n      and\n      dup2\n      mstore\n      0x20\n      add\n      0x00\n      dup3\n      add\n      0x06\n      swap1\n      sload\n      swap1\n      0x0100\n      exp\n      swap1\n      div\n      0xff\n      and\n      iszero\n      iszero\n      iszero\n      iszero\n      dup2\n      mstore\n      0x20\n      add\n      0x00\n      dup3\n      add\n      0x07\n      swap1\n      sload\n      swap1\n      0x0100\n      exp\n      swap1\n      div\n      0xff\n      and\n      iszero\n      iszero\n      iszero\n      iszero\n      dup2\n      mstore\n      pop\n      pop\n      dup2\n      mstore\n      pop\n      pop\n      swap1\n      pop\n        /* \"contracts/CourseSectionManagement.sol\":2599:2809  function getCourseSectionScore(bytes32 _studentSemesterKey, uint16 _courseSectionId) public view returns(CourseSection memory) {... */\n      swap3\n      swap2\n      pop\n      pop\n      jump\t// out\n        /* \"contracts/CourseSectionManagement.sol\":4969:6349  function updateStudentCourseScore(bytes32 _studentSemesterKey, uint16 _courseSectionId, uint16 _score, ScoreType _scoreType) public onlySemesterManagement onlyTeacher(_courseSectionId) {... */\n    tag_21:\n        /* \"contracts/CourseSectionManagement.sol\":1043:1068  semesterManagementAddress */\n      0x00\n      dup1\n      sload\n      swap1\n      0x0100\n      exp\n      swap1\n      div\n      0xffffffffffffffffffffffffffffffffffffffff\n      and\n        /* \"contracts/CourseSectionManagement.sol\":1029:1068  msg.sender == semesterManagementAddress */\n      0xffffffffffffffffffffffffffffffffffffffff\n      and\n        /* \"contracts/CourseSectionManagement.sol\":1029:1039  msg.sender */\n      caller\n        /* \"contracts/CourseSectionManagement.sol\":1029:1068  msg.sender == semesterManagementAddress */\n      0xffffffffffffffffffffffffffffffffffffffff\n      and\n      eq\n        /* \"contracts/CourseSectionManagement.sol\":1021:1147  require(msg.sender == semesterManagementAddress, ... */\n      tag_51\n      jumpi\n      mload(0x40)\n      0x08c379a000000000000000000000000000000000000000000000000000000000\n      dup2\n      mstore\n      0x04\n      add\n      tag_52\n      swap1\n      tag_53\n      jump\t// in\n    tag_52:\n      mload(0x40)\n      dup1\n      swap2\n      sub\n      swap1\n      revert\n    tag_51:\n        /* \"contracts/CourseSectionManagement.sol\":5136:5152  _courseSectionId */\n      dup3\n        /* \"contracts/CourseSectionManagement.sol\":1571:1593  address originalSender */\n      0x00\n        /* \"contracts/CourseSectionManagement.sol\":1596:1605  tx.origin */\n      origin\n        /* \"contracts/CourseSectionManagement.sol\":1571:1605  address originalSender = tx.origin */\n      swap1\n      pop\n        /* \"contracts/CourseSectionManagement.sol\":1689:1690  0 */\n      0x00\n        /* \"contracts/CourseSectionManagement.sol\":1638:1691  courseSectionTeachers[_courseSectionId] == address(0) */\n      0xffffffffffffffffffffffffffffffffffffffff\n      and\n        /* \"contracts/CourseSectionManagement.sol\":1638:1659  courseSectionTeachers */\n      0x04\n        /* \"contracts/CourseSectionManagement.sol\":1638:1677  courseSectionTeachers[_courseSectionId] */\n      0x00\n        /* \"contracts/CourseSectionManagement.sol\":1660:1676  _courseSectionId */\n      dup5\n        /* \"contracts/CourseSectionManagement.sol\":1638:1677  courseSectionTeachers[_courseSectionId] */\n      0xffff\n      and\n      0xffff\n      and\n      dup2\n      mstore\n      0x20\n      add\n      swap1\n      dup2\n      mstore\n      0x20\n      add\n      0x00\n      keccak256\n      0x00\n      swap1\n      sload\n      swap1\n      0x0100\n      exp\n      swap1\n      div\n      0xffffffffffffffffffffffffffffffffffffffff\n      and\n        /* \"contracts/CourseSectionManagement.sol\":1638:1691  courseSectionTeachers[_courseSectionId] == address(0) */\n      0xffffffffffffffffffffffffffffffffffffffff\n      and\n      eq\n        /* \"contracts/CourseSectionManagement.sol\":1638:1765  courseSectionTeachers[_courseSectionId] == address(0) ||... */\n      dup1\n      tag_55\n      jumpi\n      pop\n        /* \"contracts/CourseSectionManagement.sol\":1751:1765  originalSender */\n      dup1\n        /* \"contracts/CourseSectionManagement.sol\":1708:1765  courseSectionTeachers[_courseSectionId] == originalSender */\n      0xffffffffffffffffffffffffffffffffffffffff\n      and\n        /* \"contracts/CourseSectionManagement.sol\":1708:1729  courseSectionTeachers */\n      0x04\n        /* \"contracts/CourseSectionManagement.sol\":1708:1747  courseSectionTeachers[_courseSectionId] */\n      0x00\n        /* \"contracts/CourseSectionManagement.sol\":1730:1746  _courseSectionId */\n      dup5\n        /* \"contracts/CourseSectionManagement.sol\":1708:1747  courseSectionTeachers[_courseSectionId] */\n      0xffff\n      and\n      0xffff\n      and\n      dup2\n      mstore\n      0x20\n      add\n      swap1\n      dup2\n      mstore\n      0x20\n      add\n      0x00\n      keccak256\n      0x00\n      swap1\n      sload\n      swap1\n      0x0100\n      exp\n      swap1\n      div\n      0xffffffffffffffffffffffffffffffffffffffff\n      and\n        /* \"contracts/CourseSectionManagement.sol\":1708:1765  courseSectionTeachers[_courseSectionId] == originalSender */\n      0xffffffffffffffffffffffffffffffffffffffff\n      and\n      eq\n        /* \"contracts/CourseSectionManagement.sol\":1638:1765  courseSectionTeachers[_courseSectionId] == address(0) ||... */\n    tag_55:\n        /* \"contracts/CourseSectionManagement.sol\":1616:1839  require(... */\n      tag_56\n      jumpi\n      mload(0x40)\n      0x08c379a000000000000000000000000000000000000000000000000000000000\n      dup2\n      mstore\n      0x04\n      add\n      tag_57\n      swap1\n      tag_58\n      jump\t// in\n    tag_57:\n      mload(0x40)\n      dup1\n      swap2\n      sub\n      swap1\n      revert\n    tag_56:\n        /* \"contracts/CourseSectionManagement.sol\":5173:5191  courseSectionScore */\n      0x03\n        /* \"contracts/CourseSectionManagement.sol\":5173:5212  courseSectionScore[_studentSemesterKey] */\n      0x00\n        /* \"contracts/CourseSectionManagement.sol\":5192:5211  _studentSemesterKey */\n      dup8\n        /* \"contracts/CourseSectionManagement.sol\":5173:5212  courseSectionScore[_studentSemesterKey] */\n      dup2\n      mstore\n      0x20\n      add\n      swap1\n      dup2\n      mstore\n      0x20\n      add\n      0x00\n      keccak256\n        /* \"contracts/CourseSectionManagement.sol\":5173:5230  courseSectionScore[_studentSemesterKey][_courseSectionId] */\n      0x00\n        /* \"contracts/CourseSectionManagement.sol\":5213:5229  _courseSectionId */\n      dup7\n        /* \"contracts/CourseSectionManagement.sol\":5173:5230  courseSectionScore[_studentSemesterKey][_courseSectionId] */\n      0xffff\n      and\n      0xffff\n      and\n      dup2\n      mstore\n      0x20\n      add\n      swap1\n      dup2\n      mstore\n      0x20\n      add\n      0x00\n      keccak256\n        /* \"contracts/CourseSectionManagement.sol\":5173:5253  courseSectionScore[_studentSemesterKey][_courseSectionId].isCourseSectionExisted */\n      0x00\n      add\n      0x02\n      swap1\n      sload\n      swap1\n      0x0100\n      exp\n      swap1\n      div\n      0xff\n      and\n        /* \"contracts/CourseSectionManagement.sol\":5165:5279  require(courseSectionScore[_studentSemesterKey][_courseSectionId].isCourseSectionExisted, \"Course not existed !!\") */\n      tag_60\n      jumpi\n      mload(0x40)\n      0x08c379a000000000000000000000000000000000000000000000000000000000\n      dup2\n      mstore\n      0x04\n      add\n      tag_61\n      swap1\n      tag_62\n      jump\t// in\n    tag_61:\n      mload(0x40)\n      dup1\n      swap2\n      sub\n      swap1\n      revert\n    tag_60:\n        /* \"contracts/CourseSectionManagement.sol\":5298:5378  isScoreExistedInCourseSection(_studentSemesterKey, _courseSectionId, _scoreType) */\n      tag_63\n        /* \"contracts/CourseSectionManagement.sol\":5328:5347  _studentSemesterKey */\n      dup7\n        /* \"contracts/CourseSectionManagement.sol\":5349:5365  _courseSectionId */\n      dup7\n        /* \"contracts/CourseSectionManagement.sol\":5367:5377  _scoreType */\n      dup6\n        /* \"contracts/CourseSectionManagement.sol\":5298:5327  isScoreExistedInCourseSection */\n      tag_64\n        /* \"contracts/CourseSectionManagement.sol\":5298:5378  isScoreExistedInCourseSection(_studentSemesterKey, _courseSectionId, _scoreType) */\n      jump\t// in\n    tag_63:\n        /* \"contracts/CourseSectionManagement.sol\":5290:5413  require(isScoreExistedInCourseSection(_studentSemesterKey, _courseSectionId, _scoreType), \"Score not existed in course !!\") */\n      tag_65\n      jumpi\n      mload(0x40)\n      0x08c379a000000000000000000000000000000000000000000000000000000000\n      dup2\n      mstore\n      0x04\n      add\n      tag_66\n      swap1\n      tag_67\n      jump\t// in\n    tag_66:\n      mload(0x40)\n      dup1\n      swap2\n      sub\n      swap1\n      revert\n    tag_65:\n        /* \"contracts/CourseSectionManagement.sol\":5432:5452  isValidScore(_score) */\n      tag_68\n        /* \"contracts/CourseSectionManagement.sol\":5445:5451  _score */\n      dup5\n        /* \"contracts/CourseSectionManagement.sol\":5432:5444  isValidScore */\n      tag_69\n        /* \"contracts/CourseSectionManagement.sol\":5432:5452  isValidScore(_score) */\n      jump\t// in\n    tag_68:\n        /* \"contracts/CourseSectionManagement.sol\":5424:5528  require(isValidScore(_score), \"Score not valid, must be 0 or between 100 and 999, and divisible by 10!\") */\n      tag_70\n      jumpi\n      mload(0x40)\n      0x08c379a000000000000000000000000000000000000000000000000000000000\n      dup2\n      mstore\n      0x04\n      add\n      tag_71\n      swap1\n      tag_72\n      jump\t// in\n    tag_71:\n      mload(0x40)\n      dup1\n      swap2\n      sub\n      swap1\n      revert\n    tag_70:\n        /* \"contracts/CourseSectionManagement.sol\":5541:5576  CourseSection storage courseSection */\n      0x00\n        /* \"contracts/CourseSectionManagement.sol\":5579:5597  courseSectionScore */\n      0x03\n        /* \"contracts/CourseSectionManagement.sol\":5579:5618  courseSectionScore[_studentSemesterKey] */\n      0x00\n        /* \"contracts/CourseSectionManagement.sol\":5598:5617  _studentSemesterKey */\n      dup9\n        /* \"contracts/CourseSectionManagement.sol\":5579:5618  courseSectionScore[_studentSemesterKey] */\n      dup2\n      mstore\n      0x20\n      add\n      swap1\n      dup2\n      mstore\n      0x20\n      add\n      0x00\n      keccak256\n        /* \"contracts/CourseSectionManagement.sol\":5579:5636  courseSectionScore[_studentSemesterKey][_courseSectionId] */\n      0x00\n        /* \"contracts/CourseSectionManagement.sol\":5619:5635  _courseSectionId */\n      dup8\n        /* \"contracts/CourseSectionManagement.sol\":5579:5636  courseSectionScore[_studentSemesterKey][_courseSectionId] */\n      0xffff\n      and\n      0xffff\n      and\n      dup2\n      mstore\n      0x20\n      add\n      swap1\n      dup2\n      mstore\n      0x20\n      add\n      0x00\n      keccak256\n        /* \"contracts/CourseSectionManagement.sol\":5541:5636  CourseSection storage courseSection = courseSectionScore[_studentSemesterKey][_courseSectionId] */\n      swap1\n      pop\n        /* \"contracts/CourseSectionManagement.sol\":5712:5729  ScoreType.Midterm */\n      0x00\n        /* \"contracts/CourseSectionManagement.sol\":5698:5729  _scoreType == ScoreType.Midterm */\n      0x01\n      dup2\n      gt\n      iszero\n      tag_73\n      jumpi\n      tag_74\n      tag_75\n      jump\t// in\n    tag_74:\n    tag_73:\n        /* \"contracts/CourseSectionManagement.sol\":5698:5708  _scoreType */\n      dup5\n        /* \"contracts/CourseSectionManagement.sol\":5698:5729  _scoreType == ScoreType.Midterm */\n      0x01\n      dup2\n      gt\n      iszero\n      tag_76\n      jumpi\n      tag_77\n      tag_75\n      jump\t// in\n    tag_77:\n    tag_76:\n      sub\n        /* \"contracts/CourseSectionManagement.sol\":5694:5904  if (_scoreType == ScoreType.Midterm) {... */\n      tag_78\n      jumpi\n        /* \"contracts/CourseSectionManagement.sol\":5776:5782  _score */\n      dup5\n        /* \"contracts/CourseSectionManagement.sol\":5746:5759  courseSection */\n      dup2\n        /* \"contracts/CourseSectionManagement.sol\":5746:5765  courseSection.score */\n      0x01\n      add\n        /* \"contracts/CourseSectionManagement.sol\":5746:5773  courseSection.score.midterm */\n      0x00\n      add\n      0x00\n        /* \"contracts/CourseSectionManagement.sol\":5746:5782  courseSection.score.midterm = _score */\n      0x0100\n      exp\n      dup2\n      sload\n      dup2\n      0xffff\n      mul\n      not\n      and\n      swap1\n      dup4\n      0xffff\n      and\n      mul\n      or\n      swap1\n      sstore\n      pop\n        /* \"contracts/CourseSectionManagement.sol\":5694:5904  if (_scoreType == ScoreType.Midterm) {... */\n      jump(tag_79)\n    tag_78:\n        /* \"contracts/CourseSectionManagement.sol\":5818:5837  ScoreType.FinalExam */\n      0x01\n        /* \"contracts/CourseSectionManagement.sol\":5804:5837  _scoreType == ScoreType.FinalExam */\n      dup1\n      dup2\n      gt\n      iszero\n      tag_80\n      jumpi\n      tag_81\n      tag_75\n      jump\t// in\n    tag_81:\n    tag_80:\n        /* \"contracts/CourseSectionManagement.sol\":5804:5814  _scoreType */\n      dup5\n        /* \"contracts/CourseSectionManagement.sol\":5804:5837  _scoreType == ScoreType.FinalExam */\n      0x01\n      dup2\n      gt\n      iszero\n      tag_82\n      jumpi\n      tag_83\n      tag_75\n      jump\t// in\n    tag_83:\n    tag_82:\n      sub\n        /* \"contracts/CourseSectionManagement.sol\":5800:5904  if (_scoreType == ScoreType.FinalExam) {... */\n      tag_84\n      jumpi\n        /* \"contracts/CourseSectionManagement.sol\":5886:5892  _score */\n      dup5\n        /* \"contracts/CourseSectionManagement.sol\":5854:5867  courseSection */\n      dup2\n        /* \"contracts/CourseSectionManagement.sol\":5854:5873  courseSection.score */\n      0x01\n      add\n        /* \"contracts/CourseSectionManagement.sol\":5854:5883  courseSection.score.finalExam */\n      0x00\n      add\n      0x02\n        /* \"contracts/CourseSectionManagement.sol\":5854:5892  courseSection.score.finalExam = _score */\n      0x0100\n      exp\n      dup2\n      sload\n      dup2\n      0xffff\n      mul\n      not\n      and\n      swap1\n      dup4\n      0xffff\n      and\n      mul\n      or\n      swap1\n      sstore\n      pop\n        /* \"contracts/CourseSectionManagement.sol\":5800:5904  if (_scoreType == ScoreType.FinalExam) {... */\n    tag_84:\n        /* \"contracts/CourseSectionManagement.sol\":5694:5904  if (_scoreType == ScoreType.Midterm) {... */\n    tag_79:\n        /* \"contracts/CourseSectionManagement.sol\":6033:6041  uint16 i */\n      0x00\n        /* \"contracts/CourseSectionManagement.sol\":6028:6340  for (uint16 i = 0; i < studentCourseSections[_studentSemesterKey].length; i++) {... */\n    tag_85:\n        /* \"contracts/CourseSectionManagement.sol\":6051:6072  studentCourseSections */\n      0x02\n        /* \"contracts/CourseSectionManagement.sol\":6051:6093  studentCourseSections[_studentSemesterKey] */\n      0x00\n        /* \"contracts/CourseSectionManagement.sol\":6073:6092  _studentSemesterKey */\n      dup10\n        /* \"contracts/CourseSectionManagement.sol\":6051:6093  studentCourseSections[_studentSemesterKey] */\n      dup2\n      mstore\n      0x20\n      add\n      swap1\n      dup2\n      mstore\n      0x20\n      add\n      0x00\n      keccak256\n        /* \"contracts/CourseSectionManagement.sol\":6051:6100  studentCourseSections[_studentSemesterKey].length */\n      dup1\n      sload\n      swap1\n      pop\n        /* \"contracts/CourseSectionManagement.sol\":6047:6048  i */\n      dup2\n        /* \"contracts/CourseSectionManagement.sol\":6047:6100  i < studentCourseSections[_studentSemesterKey].length */\n      0xffff\n      and\n      lt\n        /* \"contracts/CourseSectionManagement.sol\":6028:6340  for (uint16 i = 0; i < studentCourseSections[_studentSemesterKey].length; i++) {... */\n      iszero\n      tag_86\n      jumpi\n        /* \"contracts/CourseSectionManagement.sol\":6191:6207  _courseSectionId */\n      dup7\n        /* \"contracts/CourseSectionManagement.sol\":6126:6207  studentCourseSections[_studentSemesterKey][i].courseSectionId == _courseSectionId */\n      0xffff\n      and\n        /* \"contracts/CourseSectionManagement.sol\":6126:6147  studentCourseSections */\n      0x02\n        /* \"contracts/CourseSectionManagement.sol\":6126:6168  studentCourseSections[_studentSemesterKey] */\n      0x00\n        /* \"contracts/CourseSectionManagement.sol\":6148:6167  _studentSemesterKey */\n      dup11\n        /* \"contracts/CourseSectionManagement.sol\":6126:6168  studentCourseSections[_studentSemesterKey] */\n      dup2\n      mstore\n      0x20\n      add\n      swap1\n      dup2\n      mstore\n      0x20\n      add\n      0x00\n      keccak256\n        /* \"contracts/CourseSectionManagement.sol\":6169:6170  i */\n      dup3\n        /* \"contracts/CourseSectionManagement.sol\":6126:6171  studentCourseSections[_studentSemesterKey][i] */\n      0xffff\n      and\n      dup2\n      sload\n      dup2\n      lt\n      tag_88\n      jumpi\n      tag_89\n      tag_90\n      jump\t// in\n    tag_89:\n    tag_88:\n      swap1\n      0x00\n      mstore\n      keccak256(0x00, 0x20)\n      swap1\n      0x02\n      mul\n      add\n        /* \"contracts/CourseSectionManagement.sol\":6126:6187  studentCourseSections[_studentSemesterKey][i].courseSectionId */\n      0x00\n      add\n      0x00\n      swap1\n      sload\n      swap1\n      0x0100\n      exp\n      swap1\n      div\n      0xffff\n      and\n        /* \"contracts/CourseSectionManagement.sol\":6126:6207  studentCourseSections[_studentSemesterKey][i].courseSectionId == _courseSectionId */\n      0xffff\n      and\n      sub\n        /* \"contracts/CourseSectionManagement.sol\":6122:6329  if (studentCourseSections[_studentSemesterKey][i].courseSectionId == _courseSectionId) {... */\n      tag_92\n      jumpi\n        /* \"contracts/CourseSectionManagement.sol\":6276:6289  courseSection */\n      dup2\n        /* \"contracts/CourseSectionManagement.sol\":6228:6249  studentCourseSections */\n      0x02\n        /* \"contracts/CourseSectionManagement.sol\":6228:6270  studentCourseSections[_studentSemesterKey] */\n      0x00\n        /* \"contracts/CourseSectionManagement.sol\":6250:6269  _studentSemesterKey */\n      dup11\n        /* \"contracts/CourseSectionManagement.sol\":6228:6270  studentCourseSections[_studentSemesterKey] */\n      dup2\n      mstore\n      0x20\n      add\n      swap1\n      dup2\n      mstore\n      0x20\n      add\n      0x00\n      keccak256\n        /* \"contracts/CourseSectionManagement.sol\":6271:6272  i */\n      dup3\n        /* \"contracts/CourseSectionManagement.sol\":6228:6273  studentCourseSections[_studentSemesterKey][i] */\n      0xffff\n      and\n      dup2\n      sload\n      dup2\n      lt\n      tag_93\n      jumpi\n      tag_94\n      tag_90\n      jump\t// in\n    tag_94:\n    tag_93:\n      swap1\n      0x00\n      mstore\n      keccak256(0x00, 0x20)\n      swap1\n      0x02\n      mul\n      add\n        /* \"contracts/CourseSectionManagement.sol\":6228:6289  studentCourseSections[_studentSemesterKey][i] = courseSection */\n      0x00\n      dup3\n      add\n      0x00\n      swap1\n      sload\n      swap1\n      0x0100\n      exp\n      swap1\n      div\n      0xffff\n      and\n      dup2\n      0x00\n      add\n      exp(0x0100, 0x00)\n      dup2\n      sload\n      dup2\n      0xffff\n      mul\n      not\n      and\n      swap1\n      dup4\n      0xffff\n      and\n      mul\n      or\n      swap1\n      sstore\n      pop\n      0x00\n      dup3\n      add\n      0x02\n      swap1\n      sload\n      swap1\n      0x0100\n      exp\n      swap1\n      div\n      0xff\n      and\n      dup2\n      0x00\n      add\n      exp(0x0100, 0x02)\n      dup2\n      sload\n      dup2\n      0xff\n      mul\n      not\n      and\n      swap1\n      dup4\n      iszero\n      iszero\n      mul\n      or\n      swap1\n      sstore\n      pop\n      0x01\n      dup3\n      add\n      dup2\n      0x01\n      add\n      0x00\n      dup3\n      add\n      0x00\n      swap1\n      sload\n      swap1\n      0x0100\n      exp\n      swap1\n      div\n      0xffff\n      and\n      dup2\n      0x00\n      add\n      exp(0x0100, 0x00)\n      dup2\n      sload\n      dup2\n      0xffff\n      mul\n      not\n      and\n      swap1\n      dup4\n      0xffff\n      and\n      mul\n      or\n      swap1\n      sstore\n      pop\n      0x00\n      dup3\n      add\n      0x02\n      swap1\n      sload\n      swap1\n      0x0100\n      exp\n      swap1\n      div\n      0xffff\n      and\n      dup2\n      0x00\n      add\n      exp(0x0100, 0x02)\n      dup2\n      sload\n      dup2\n      0xffff\n      mul\n      not\n      and\n      swap1\n      dup4\n      0xffff\n      and\n      mul\n      or\n      swap1\n      sstore\n      pop\n      0x00\n      dup3\n      add\n      0x04\n      swap1\n      sload\n      swap1\n      0x0100\n      exp\n      swap1\n      div\n      0xffff\n      and\n      dup2\n      0x00\n      add\n      exp(0x0100, 0x04)\n      dup2\n      sload\n      dup2\n      0xffff\n      mul\n      not\n      and\n      swap1\n      dup4\n      0xffff\n      and\n      mul\n      or\n      swap1\n      sstore\n      pop\n      0x00\n      dup3\n      add\n      0x06\n      swap1\n      sload\n      swap1\n      0x0100\n      exp\n      swap1\n      div\n      0xff\n      and\n      dup2\n      0x00\n      add\n      exp(0x0100, 0x06)\n      dup2\n      sload\n      dup2\n      0xff\n      mul\n      not\n      and\n      swap1\n      dup4\n      iszero\n      iszero\n      mul\n      or\n      swap1\n      sstore\n      pop\n      0x00\n      dup3\n      add\n      0x07\n      swap1\n      sload\n      swap1\n      0x0100\n      exp\n      swap1\n      div\n      0xff\n      and\n      dup2\n      0x00\n      add\n      exp(0x0100, 0x07)\n      dup2\n      sload\n      dup2\n      0xff\n      mul\n      not\n      and\n      swap1\n      dup4\n      iszero\n      iszero\n      mul\n      or\n      swap1\n      sstore\n      pop\n      pop\n      pop\n      swap1\n      pop\n      pop\n        /* \"contracts/CourseSectionManagement.sol\":6308:6313  break */\n      jump(tag_86)\n        /* \"contracts/CourseSectionManagement.sol\":6122:6329  if (studentCourseSections[_studentSemesterKey][i].courseSectionId == _courseSectionId) {... */\n    tag_92:\n        /* \"contracts/CourseSectionManagement.sol\":6102:6105  i++ */\n      dup1\n      dup1\n      tag_96\n      swap1\n      tag_97\n      jump\t// in\n    tag_96:\n      swap2\n      pop\n      pop\n        /* \"contracts/CourseSectionManagement.sol\":6028:6340  for (uint16 i = 0; i < studentCourseSections[_studentSemesterKey].length; i++) {... */\n      jump(tag_85)\n    tag_86:\n      pop\n        /* \"contracts/CourseSectionManagement.sol\":5154:6349  {... */\n      pop\n        /* \"contracts/CourseSectionManagement.sol\":1269:1859  {... */\n      pop\n        /* \"contracts/CourseSectionManagement.sol\":1158:1159  _ */\n      pop\n        /* \"contracts/CourseSectionManagement.sol\":4969:6349  function updateStudentCourseScore(bytes32 _studentSemesterKey, uint16 _courseSectionId, uint16 _score, ScoreType _scoreType) public onlySemesterManagement onlyTeacher(_courseSectionId) {... */\n      pop\n      pop\n      pop\n      pop\n      jump\t// out\n        /* \"contracts/CourseSectionManagement.sol\":2899:4918  function addCourseSectionScore(bytes32 _studentSemesterKey, uint16 _courseSectionId, uint16 _score, ScoreType _scoreType) public onlySemesterManagement onlyTeacher(_courseSectionId) {... */\n    tag_24:\n        /* \"contracts/CourseSectionManagement.sol\":1043:1068  semesterManagementAddress */\n      0x00\n      dup1\n      sload\n      swap1\n      0x0100\n      exp\n      swap1\n      div\n      0xffffffffffffffffffffffffffffffffffffffff\n      and\n        /* \"contracts/CourseSectionManagement.sol\":1029:1068  msg.sender == semesterManagementAddress */\n      0xffffffffffffffffffffffffffffffffffffffff\n      and\n        /* \"contracts/CourseSectionManagement.sol\":1029:1039  msg.sender */\n      caller\n        /* \"contracts/CourseSectionManagement.sol\":1029:1068  msg.sender == semesterManagementAddress */\n      0xffffffffffffffffffffffffffffffffffffffff\n      and\n      eq\n        /* \"contracts/CourseSectionManagement.sol\":1021:1147  require(msg.sender == semesterManagementAddress, ... */\n      tag_99\n      jumpi\n      mload(0x40)\n      0x08c379a000000000000000000000000000000000000000000000000000000000\n      dup2\n      mstore\n      0x04\n      add\n      tag_100\n      swap1\n      tag_53\n      jump\t// in\n    tag_100:\n      mload(0x40)\n      dup1\n      swap2\n      sub\n      swap1\n      revert\n    tag_99:\n        /* \"contracts/CourseSectionManagement.sol\":3063:3079  _courseSectionId */\n      dup3\n        /* \"contracts/CourseSectionManagement.sol\":1571:1593  address originalSender */\n      0x00\n        /* \"contracts/CourseSectionManagement.sol\":1596:1605  tx.origin */\n      origin\n        /* \"contracts/CourseSectionManagement.sol\":1571:1605  address originalSender = tx.origin */\n      swap1\n      pop\n        /* \"contracts/CourseSectionManagement.sol\":1689:1690  0 */\n      0x00\n        /* \"contracts/CourseSectionManagement.sol\":1638:1691  courseSectionTeachers[_courseSectionId] == address(0) */\n      0xffffffffffffffffffffffffffffffffffffffff\n      and\n        /* \"contracts/CourseSectionManagement.sol\":1638:1659  courseSectionTeachers */\n      0x04\n        /* \"contracts/CourseSectionManagement.sol\":1638:1677  courseSectionTeachers[_courseSectionId] */\n      0x00\n        /* \"contracts/CourseSectionManagement.sol\":1660:1676  _courseSectionId */\n      dup5\n        /* \"contracts/CourseSectionManagement.sol\":1638:1677  courseSectionTeachers[_courseSectionId] */\n      0xffff\n      and\n      0xffff\n      and\n      dup2\n      mstore\n      0x20\n      add\n      swap1\n      dup2\n      mstore\n      0x20\n      add\n      0x00\n      keccak256\n      0x00\n      swap1\n      sload\n      swap1\n      0x0100\n      exp\n      swap1\n      div\n      0xffffffffffffffffffffffffffffffffffffffff\n      and\n        /* \"contracts/CourseSectionManagement.sol\":1638:1691  courseSectionTeachers[_courseSectionId] == address(0) */\n      0xffffffffffffffffffffffffffffffffffffffff\n      and\n      eq\n        /* \"contracts/CourseSectionManagement.sol\":1638:1765  courseSectionTeachers[_courseSectionId] == address(0) ||... */\n      dup1\n      tag_102\n      jumpi\n      pop\n        /* \"contracts/CourseSectionManagement.sol\":1751:1765  originalSender */\n      dup1\n        /* \"contracts/CourseSectionManagement.sol\":1708:1765  courseSectionTeachers[_courseSectionId] == originalSender */\n      0xffffffffffffffffffffffffffffffffffffffff\n      and\n        /* \"contracts/CourseSectionManagement.sol\":1708:1729  courseSectionTeachers */\n      0x04\n        /* \"contracts/CourseSectionManagement.sol\":1708:1747  courseSectionTeachers[_courseSectionId] */\n      0x00\n        /* \"contracts/CourseSectionManagement.sol\":1730:1746  _courseSectionId */\n      dup5\n        /* \"contracts/CourseSectionManagement.sol\":1708:1747  courseSectionTeachers[_courseSectionId] */\n      0xffff\n      and\n      0xffff\n      and\n      dup2\n      mstore\n      0x20\n      add\n      swap1\n      dup2\n      mstore\n      0x20\n      add\n      0x00\n      keccak256\n      0x00\n      swap1\n      sload\n      swap1\n      0x0100\n      exp\n      swap1\n      div\n      0xffffffffffffffffffffffffffffffffffffffff\n      and\n        /* \"contracts/CourseSectionManagement.sol\":1708:1765  courseSectionTeachers[_courseSectionId] == originalSender */\n      0xffffffffffffffffffffffffffffffffffffffff\n      and\n      eq\n        /* \"contracts/CourseSectionManagement.sol\":1638:1765  courseSectionTeachers[_courseSectionId] == address(0) ||... */\n    tag_102:\n        /* \"contracts/CourseSectionManagement.sol\":1616:1839  require(... */\n      tag_103\n      jumpi\n      mload(0x40)\n      0x08c379a000000000000000000000000000000000000000000000000000000000\n      dup2\n      mstore\n      0x04\n      add\n      tag_104\n      swap1\n      tag_58\n      jump\t// in\n    tag_104:\n      mload(0x40)\n      dup1\n      swap2\n      sub\n      swap1\n      revert\n    tag_103:\n        /* \"contracts/CourseSectionManagement.sol\":3100:3120  isValidScore(_score) */\n      tag_106\n        /* \"contracts/CourseSectionManagement.sol\":3113:3119  _score */\n      dup5\n        /* \"contracts/CourseSectionManagement.sol\":3100:3112  isValidScore */\n      tag_69\n        /* \"contracts/CourseSectionManagement.sol\":3100:3120  isValidScore(_score) */\n      jump\t// in\n    tag_106:\n        /* \"contracts/CourseSectionManagement.sol\":3092:3196  require(isValidScore(_score), \"Score not valid, must be 0 or between 100 and 999, and divisible by 10!\") */\n      tag_107\n      jumpi\n      mload(0x40)\n      0x08c379a000000000000000000000000000000000000000000000000000000000\n      dup2\n      mstore\n      0x04\n      add\n      tag_108\n      swap1\n      tag_72\n      jump\t// in\n    tag_108:\n      mload(0x40)\n      dup1\n      swap2\n      sub\n      swap1\n      revert\n    tag_107:\n        /* \"contracts/CourseSectionManagement.sol\":3216:3296  isScoreExistedInCourseSection(_studentSemesterKey, _courseSectionId, _scoreType) */\n      tag_109\n        /* \"contracts/CourseSectionManagement.sol\":3246:3265  _studentSemesterKey */\n      dup7\n        /* \"contracts/CourseSectionManagement.sol\":3267:3283  _courseSectionId */\n      dup7\n        /* \"contracts/CourseSectionManagement.sol\":3285:3295  _scoreType */\n      dup6\n        /* \"contracts/CourseSectionManagement.sol\":3216:3245  isScoreExistedInCourseSection */\n      tag_64\n        /* \"contracts/CourseSectionManagement.sol\":3216:3296  isScoreExistedInCourseSection(_studentSemesterKey, _courseSectionId, _scoreType) */\n      jump\t// in\n    tag_109:\n        /* \"contracts/CourseSectionManagement.sol\":3215:3296  !isScoreExistedInCourseSection(_studentSemesterKey, _courseSectionId, _scoreType) */\n      iszero\n        /* \"contracts/CourseSectionManagement.sol\":3207:3338  require(!isScoreExistedInCourseSection(_studentSemesterKey, _courseSectionId, _scoreType), \"Score is already existed in course !!\") */\n      tag_110\n      jumpi\n      mload(0x40)\n      0x08c379a000000000000000000000000000000000000000000000000000000000\n      dup2\n      mstore\n      0x04\n      add\n      tag_111\n      swap1\n      tag_112\n      jump\t// in\n    tag_111:\n      mload(0x40)\n      dup1\n      swap2\n      sub\n      swap1\n      revert\n    tag_110:\n        /* \"contracts/CourseSectionManagement.sol\":3495:3496  0 */\n      0x00\n        /* \"contracts/CourseSectionManagement.sol\":3444:3497  courseSectionTeachers[_courseSectionId] == address(0) */\n      0xffffffffffffffffffffffffffffffffffffffff\n      and\n        /* \"contracts/CourseSectionManagement.sol\":3444:3465  courseSectionTeachers */\n      0x04\n        /* \"contracts/CourseSectionManagement.sol\":3444:3483  courseSectionTeachers[_courseSectionId] */\n      0x00\n        /* \"contracts/CourseSectionManagement.sol\":3466:3482  _courseSectionId */\n      dup8\n        /* \"contracts/CourseSectionManagement.sol\":3444:3483  courseSectionTeachers[_courseSectionId] */\n      0xffff\n      and\n      0xffff\n      and\n      dup2\n      mstore\n      0x20\n      add\n      swap1\n      dup2\n      mstore\n      0x20\n      add\n      0x00\n      keccak256\n      0x00\n      swap1\n      sload\n      swap1\n      0x0100\n      exp\n      swap1\n      div\n      0xffffffffffffffffffffffffffffffffffffffff\n      and\n        /* \"contracts/CourseSectionManagement.sol\":3444:3497  courseSectionTeachers[_courseSectionId] == address(0) */\n      0xffffffffffffffffffffffffffffffffffffffff\n      and\n      sub\n        /* \"contracts/CourseSectionManagement.sol\":3441:3577  if(courseSectionTeachers[_courseSectionId] == address(0)) {... */\n      tag_113\n      jumpi\n        /* \"contracts/CourseSectionManagement.sol\":3556:3565  tx.origin */\n      origin\n        /* \"contracts/CourseSectionManagement.sol\":3514:3535  courseSectionTeachers */\n      0x04\n        /* \"contracts/CourseSectionManagement.sol\":3514:3553  courseSectionTeachers[_courseSectionId] */\n      0x00\n        /* \"contracts/CourseSectionManagement.sol\":3536:3552  _courseSectionId */\n      dup8\n        /* \"contracts/CourseSectionManagement.sol\":3514:3553  courseSectionTeachers[_courseSectionId] */\n      0xffff\n      and\n      0xffff\n      and\n      dup2\n      mstore\n      0x20\n      add\n      swap1\n      dup2\n      mstore\n      0x20\n      add\n      0x00\n      keccak256\n      0x00\n        /* \"contracts/CourseSectionManagement.sol\":3514:3565  courseSectionTeachers[_courseSectionId] = tx.origin */\n      0x0100\n      exp\n      dup2\n      sload\n      dup2\n      0xffffffffffffffffffffffffffffffffffffffff\n      mul\n      not\n      and\n      swap1\n      dup4\n      0xffffffffffffffffffffffffffffffffffffffff\n      and\n      mul\n      or\n      swap1\n      sstore\n      pop\n        /* \"contracts/CourseSectionManagement.sol\":3441:3577  if(courseSectionTeachers[_courseSectionId] == address(0)) {... */\n    tag_113:\n        /* \"contracts/CourseSectionManagement.sol\":3589:3624  CourseSection storage courseSection */\n      0x00\n        /* \"contracts/CourseSectionManagement.sol\":3627:3645  courseSectionScore */\n      0x03\n        /* \"contracts/CourseSectionManagement.sol\":3627:3666  courseSectionScore[_studentSemesterKey] */\n      0x00\n        /* \"contracts/CourseSectionManagement.sol\":3646:3665  _studentSemesterKey */\n      dup9\n        /* \"contracts/CourseSectionManagement.sol\":3627:3666  courseSectionScore[_studentSemesterKey] */\n      dup2\n      mstore\n      0x20\n      add\n      swap1\n      dup2\n      mstore\n      0x20\n      add\n      0x00\n      keccak256\n        /* \"contracts/CourseSectionManagement.sol\":3627:3684  courseSectionScore[_studentSemesterKey][_courseSectionId] */\n      0x00\n        /* \"contracts/CourseSectionManagement.sol\":3667:3683  _courseSectionId */\n      dup8\n        /* \"contracts/CourseSectionManagement.sol\":3627:3684  courseSectionScore[_studentSemesterKey][_courseSectionId] */\n      0xffff\n      and\n      0xffff\n      and\n      dup2\n      mstore\n      0x20\n      add\n      swap1\n      dup2\n      mstore\n      0x20\n      add\n      0x00\n      keccak256\n        /* \"contracts/CourseSectionManagement.sol\":3589:3684  CourseSection storage courseSection = courseSectionScore[_studentSemesterKey][_courseSectionId] */\n      swap1\n      pop\n        /* \"contracts/CourseSectionManagement.sol\":3695:3722  bool isCourseSectionExisted */\n      0x00\n        /* \"contracts/CourseSectionManagement.sol\":3725:3738  courseSection */\n      dup2\n        /* \"contracts/CourseSectionManagement.sol\":3725:3761  courseSection.isCourseSectionExisted */\n      0x00\n      add\n      0x02\n      swap1\n      sload\n      swap1\n      0x0100\n      exp\n      swap1\n      div\n      0xff\n      and\n        /* \"contracts/CourseSectionManagement.sol\":3695:3761  bool isCourseSectionExisted = courseSection.isCourseSectionExisted */\n      swap1\n      pop\n        /* \"contracts/CourseSectionManagement.sol\":3779:3801  isCourseSectionExisted */\n      dup1\n        /* \"contracts/CourseSectionManagement.sol\":3774:4024  if (!isCourseSectionExisted) {... */\n      tag_114\n      jumpi\n        /* \"contracts/CourseSectionManagement.sol\":3857:3861  true */\n      0x01\n        /* \"contracts/CourseSectionManagement.sol\":3818:3831  courseSection */\n      dup3\n        /* \"contracts/CourseSectionManagement.sol\":3818:3854  courseSection.isCourseSectionExisted */\n      0x00\n      add\n      0x02\n        /* \"contracts/CourseSectionManagement.sol\":3818:3861  courseSection.isCourseSectionExisted = true */\n      0x0100\n      exp\n      dup2\n      sload\n      dup2\n      0xff\n      mul\n      not\n      and\n      swap1\n      dup4\n      iszero\n      iszero\n      mul\n      or\n      swap1\n      sstore\n      pop\n        /* \"contracts/CourseSectionManagement.sol\":3908:3924  _courseSectionId */\n      dup7\n        /* \"contracts/CourseSectionManagement.sol\":3876:3889  courseSection */\n      dup3\n        /* \"contracts/CourseSectionManagement.sol\":3876:3905  courseSection.courseSectionId */\n      0x00\n      add\n      0x00\n        /* \"contracts/CourseSectionManagement.sol\":3876:3924  courseSection.courseSectionId = _courseSectionId */\n      0x0100\n      exp\n      dup2\n      sload\n      dup2\n      0xffff\n      mul\n      not\n      and\n      swap1\n      dup4\n      0xffff\n      and\n      mul\n      or\n      swap1\n      sstore\n      pop\n        /* \"contracts/CourseSectionManagement.sol\":3999:4012  courseSection */\n      dup2\n        /* \"contracts/CourseSectionManagement.sol\":3939:3957  courseSectionScore */\n      0x03\n        /* \"contracts/CourseSectionManagement.sol\":3939:3978  courseSectionScore[_studentSemesterKey] */\n      0x00\n        /* \"contracts/CourseSectionManagement.sol\":3958:3977  _studentSemesterKey */\n      dup11\n        /* \"contracts/CourseSectionManagement.sol\":3939:3978  courseSectionScore[_studentSemesterKey] */\n      dup2\n      mstore\n      0x20\n      add\n      swap1\n      dup2\n      mstore\n      0x20\n      add\n      0x00\n      keccak256\n        /* \"contracts/CourseSectionManagement.sol\":3939:3996  courseSectionScore[_studentSemesterKey][_courseSectionId] */\n      0x00\n        /* \"contracts/CourseSectionManagement.sol\":3979:3995  _courseSectionId */\n      dup10\n        /* \"contracts/CourseSectionManagement.sol\":3939:3996  courseSectionScore[_studentSemesterKey][_courseSectionId] */\n      0xffff\n      and\n      0xffff\n      and\n      dup2\n      mstore\n      0x20\n      add\n      swap1\n      dup2\n      mstore\n      0x20\n      add\n      0x00\n      keccak256\n        /* \"contracts/CourseSectionManagement.sol\":3939:4012  courseSectionScore[_studentSemesterKey][_courseSectionId] = courseSection */\n      0x00\n      dup3\n      add\n      0x00\n      swap1\n      sload\n      swap1\n      0x0100\n      exp\n      swap1\n      div\n      0xffff\n      and\n      dup2\n      0x00\n      add\n      exp(0x0100, 0x00)\n      dup2\n      sload\n      dup2\n      0xffff\n      mul\n      not\n      and\n      swap1\n      dup4\n      0xffff\n      and\n      mul\n      or\n      swap1\n      sstore\n      pop\n      0x00\n      dup3\n      add\n      0x02\n      swap1\n      sload\n      swap1\n      0x0100\n      exp\n      swap1\n      div\n      0xff\n      and\n      dup2\n      0x00\n      add\n      exp(0x0100, 0x02)\n      dup2\n      sload\n      dup2\n      0xff\n      mul\n      not\n      and\n      swap1\n      dup4\n      iszero\n      iszero\n      mul\n      or\n      swap1\n      sstore\n      pop\n      0x01\n      dup3\n      add\n      dup2\n      0x01\n      add\n      0x00\n      dup3\n      add\n      0x00\n      swap1\n      sload\n      swap1\n      0x0100\n      exp\n      swap1\n      div\n      0xffff\n      and\n      dup2\n      0x00\n      add\n      exp(0x0100, 0x00)\n      dup2\n      sload\n      dup2\n      0xffff\n      mul\n      not\n      and\n      swap1\n      dup4\n      0xffff\n      and\n      mul\n      or\n      swap1\n      sstore\n      pop\n      0x00\n      dup3\n      add\n      0x02\n      swap1\n      sload\n      swap1\n      0x0100\n      exp\n      swap1\n      div\n      0xffff\n      and\n      dup2\n      0x00\n      add\n      exp(0x0100, 0x02)\n      dup2\n      sload\n      dup2\n      0xffff\n      mul\n      not\n      and\n      swap1\n      dup4\n      0xffff\n      and\n      mul\n      or\n      swap1\n      sstore\n      pop\n      0x00\n      dup3\n      add\n      0x04\n      swap1\n      sload\n      swap1\n      0x0100\n      exp\n      swap1\n      div\n      0xffff\n      and\n      dup2\n      0x00\n      add\n      exp(0x0100, 0x04)\n      dup2\n      sload\n      dup2\n      0xffff\n      mul\n      not\n      and\n      swap1\n      dup4\n      0xffff\n      and\n      mul\n      or\n      swap1\n      sstore\n      pop\n      0x00\n      dup3\n      add\n      0x06\n      swap1\n      sload\n      swap1\n      0x0100\n      exp\n      swap1\n      div\n      0xff\n      and\n      dup2\n      0x00\n      add\n      exp(0x0100, 0x06)\n      dup2\n      sload\n      dup2\n      0xff\n      mul\n      not\n      and\n      swap1\n      dup4\n      iszero\n      iszero\n      mul\n      or\n      swap1\n      sstore\n      pop\n      0x00\n      dup3\n      add\n      0x07\n      swap1\n      sload\n      swap1\n      0x0100\n      exp\n      swap1\n      div\n      0xff\n      and\n      dup2\n      0x00\n      add\n      exp(0x0100, 0x07)\n      dup2\n      sload\n      dup2\n      0xff\n      mul\n      not\n      and\n      swap1\n      dup4\n      iszero\n      iszero\n      mul\n      or\n      swap1\n      sstore\n      pop\n      pop\n      pop\n      swap1\n      pop\n      pop\n        /* \"contracts/CourseSectionManagement.sol\":3774:4024  if (!isCourseSectionExisted) {... */\n    tag_114:\n        /* \"contracts/CourseSectionManagement.sol\":4054:4071  ScoreType.Midterm */\n      0x00\n        /* \"contracts/CourseSectionManagement.sol\":4040:4071  _scoreType == ScoreType.Midterm */\n      0x01\n      dup2\n      gt\n      iszero\n      tag_115\n      jumpi\n      tag_116\n      tag_75\n      jump\t// in\n    tag_116:\n    tag_115:\n        /* \"contracts/CourseSectionManagement.sol\":4040:4050  _scoreType */\n      dup6\n        /* \"contracts/CourseSectionManagement.sol\":4040:4071  _scoreType == ScoreType.Midterm */\n      0x01\n      dup2\n      gt\n      iszero\n      tag_117\n      jumpi\n      tag_118\n      tag_75\n      jump\t// in\n    tag_118:\n    tag_117:\n      sub\n        /* \"contracts/CourseSectionManagement.sol\":4036:4356  if (_scoreType == ScoreType.Midterm) {... */\n      tag_119\n      jumpi\n        /* \"contracts/CourseSectionManagement.sol\":4118:4124  _score */\n      dup6\n        /* \"contracts/CourseSectionManagement.sol\":4088:4101  courseSection */\n      dup3\n        /* \"contracts/CourseSectionManagement.sol\":4088:4107  courseSection.score */\n      0x01\n      add\n        /* \"contracts/CourseSectionManagement.sol\":4088:4115  courseSection.score.midterm */\n      0x00\n      add\n      0x00\n        /* \"contracts/CourseSectionManagement.sol\":4088:4124  courseSection.score.midterm = _score */\n      0x0100\n      exp\n      dup2\n      sload\n      dup2\n      0xffff\n      mul\n      not\n      and\n      swap1\n      dup4\n      0xffff\n      and\n      mul\n      or\n      swap1\n      sstore\n      pop\n        /* \"contracts/CourseSectionManagement.sol\":4174:4178  true */\n      0x01\n        /* \"contracts/CourseSectionManagement.sol\":4139:4152  courseSection */\n      dup3\n        /* \"contracts/CourseSectionManagement.sol\":4139:4158  courseSection.score */\n      0x01\n      add\n        /* \"contracts/CourseSectionManagement.sol\":4139:4171  courseSection.score.isMidtermSet */\n      0x00\n      add\n      0x06\n        /* \"contracts/CourseSectionManagement.sol\":4139:4178  courseSection.score.isMidtermSet = true */\n      0x0100\n      exp\n      dup2\n      sload\n      dup2\n      0xff\n      mul\n      not\n      and\n      swap1\n      dup4\n      iszero\n      iszero\n      mul\n      or\n      swap1\n      sstore\n      pop\n        /* \"contracts/CourseSectionManagement.sol\":4036:4356  if (_scoreType == ScoreType.Midterm) {... */\n      jump(tag_120)\n    tag_119:\n        /* \"contracts/CourseSectionManagement.sol\":4214:4233  ScoreType.FinalExam */\n      0x01\n        /* \"contracts/CourseSectionManagement.sol\":4200:4233  _scoreType == ScoreType.FinalExam */\n      dup1\n      dup2\n      gt\n      iszero\n      tag_121\n      jumpi\n      tag_122\n      tag_75\n      jump\t// in\n    tag_122:\n    tag_121:\n        /* \"contracts/CourseSectionManagement.sol\":4200:4210  _scoreType */\n      dup6\n        /* \"contracts/CourseSectionManagement.sol\":4200:4233  _scoreType == ScoreType.FinalExam */\n      0x01\n      dup2\n      gt\n      iszero\n      tag_123\n      jumpi\n      tag_124\n      tag_75\n      jump\t// in\n    tag_124:\n    tag_123:\n      sub\n        /* \"contracts/CourseSectionManagement.sol\":4196:4356  if (_scoreType == ScoreType.FinalExam) {... */\n      tag_125\n      jumpi\n        /* \"contracts/CourseSectionManagement.sol\":4282:4288  _score */\n      dup6\n        /* \"contracts/CourseSectionManagement.sol\":4250:4263  courseSection */\n      dup3\n        /* \"contracts/CourseSectionManagement.sol\":4250:4269  courseSection.score */\n      0x01\n      add\n        /* \"contracts/CourseSectionManagement.sol\":4250:4279  courseSection.score.finalExam */\n      0x00\n      add\n      0x02\n        /* \"contracts/CourseSectionManagement.sol\":4250:4288  courseSection.score.finalExam = _score */\n      0x0100\n      exp\n      dup2\n      sload\n      dup2\n      0xffff\n      mul\n      not\n      and\n      swap1\n      dup4\n      0xffff\n      and\n      mul\n      or\n      swap1\n      sstore\n      pop\n        /* \"contracts/CourseSectionManagement.sol\":4340:4344  true */\n      0x01\n        /* \"contracts/CourseSectionManagement.sol\":4303:4316  courseSection */\n      dup3\n        /* \"contracts/CourseSectionManagement.sol\":4303:4322  courseSection.score */\n      0x01\n      add\n        /* \"contracts/CourseSectionManagement.sol\":4303:4337  courseSection.score.isFinalExamSet */\n      0x00\n      add\n      0x07\n        /* \"contracts/CourseSectionManagement.sol\":4303:4344  courseSection.score.isFinalExamSet = true */\n      0x0100\n      exp\n      dup2\n      sload\n      dup2\n      0xff\n      mul\n      not\n      and\n      swap1\n      dup4\n      iszero\n      iszero\n      mul\n      or\n      swap1\n      sstore\n      pop\n        /* \"contracts/CourseSectionManagement.sol\":4196:4356  if (_scoreType == ScoreType.FinalExam) {... */\n    tag_125:\n        /* \"contracts/CourseSectionManagement.sol\":4036:4356  if (_scoreType == ScoreType.Midterm) {... */\n    tag_120:\n        /* \"contracts/CourseSectionManagement.sol\":4434:4456  isCourseSectionExisted */\n      dup1\n        /* \"contracts/CourseSectionManagement.sol\":4429:4911  if (!isCourseSectionExisted) {... */\n      tag_126\n      jumpi\n        /* \"contracts/CourseSectionManagement.sol\":4473:4494  studentCourseSections */\n      0x02\n        /* \"contracts/CourseSectionManagement.sol\":4473:4515  studentCourseSections[_studentSemesterKey] */\n      0x00\n        /* \"contracts/CourseSectionManagement.sol\":4495:4514  _studentSemesterKey */\n      dup10\n        /* \"contracts/CourseSectionManagement.sol\":4473:4515  studentCourseSections[_studentSemesterKey] */\n      dup2\n      mstore\n      0x20\n      add\n      swap1\n      dup2\n      mstore\n      0x20\n      add\n      0x00\n      keccak256\n        /* \"contracts/CourseSectionManagement.sol\":4521:4534  courseSection */\n      dup3\n        /* \"contracts/CourseSectionManagement.sol\":4473:4535  studentCourseSections[_studentSemesterKey].push(courseSection) */\n      swap1\n      dup1\n      0x01\n      dup2\n      sload\n      add\n      dup1\n      dup3\n      sstore\n      dup1\n      swap2\n      pop\n      pop\n      0x01\n      swap1\n      sub\n      swap1\n      0x00\n      mstore\n      keccak256(0x00, 0x20)\n      swap1\n      0x02\n      mul\n      add\n      0x00\n      swap1\n      swap2\n      swap1\n      swap2\n      swap1\n      swap2\n      pop\n      0x00\n      dup3\n      add\n      0x00\n      swap1\n      sload\n      swap1\n      0x0100\n      exp\n      swap1\n      div\n      0xffff\n      and\n      dup2\n      0x00\n      add\n      exp(0x0100, 0x00)\n      dup2\n      sload\n      dup2\n      0xffff\n      mul\n      not\n      and\n      swap1\n      dup4\n      0xffff\n      and\n      mul\n      or\n      swap1\n      sstore\n      pop\n      0x00\n      dup3\n      add\n      0x02\n      swap1\n      sload\n      swap1\n      0x0100\n      exp\n      swap1\n      div\n      0xff\n      and\n      dup2\n      0x00\n      add\n      exp(0x0100, 0x02)\n      dup2\n      sload\n      dup2\n      0xff\n      mul\n      not\n      and\n      swap1\n      dup4\n      iszero\n      iszero\n      mul\n      or\n      swap1\n      sstore\n      pop\n      0x01\n      dup3\n      add\n      dup2\n      0x01\n      add\n      0x00\n      dup3\n      add\n      0x00\n      swap1\n      sload\n      swap1\n      0x0100\n      exp\n      swap1\n      div\n      0xffff\n      and\n      dup2\n      0x00\n      add\n      exp(0x0100, 0x00)\n      dup2\n      sload\n      dup2\n      0xffff\n      mul\n      not\n      and\n      swap1\n      dup4\n      0xffff\n      and\n      mul\n      or\n      swap1\n      sstore\n      pop\n      0x00\n      dup3\n      add\n      0x02\n      swap1\n      sload\n      swap1\n      0x0100\n      exp\n      swap1\n      div\n      0xffff\n      and\n      dup2\n      0x00\n      add\n      exp(0x0100, 0x02)\n      dup2\n      sload\n      dup2\n      0xffff\n      mul\n      not\n      and\n      swap1\n      dup4\n      0xffff\n      and\n      mul\n      or\n      swap1\n      sstore\n      pop\n      0x00\n      dup3\n      add\n      0x04\n      swap1\n      sload\n      swap1\n      0x0100\n      exp\n      swap1\n      div\n      0xffff\n      and\n      dup2\n      0x00\n      add\n      exp(0x0100, 0x04)\n      dup2\n      sload\n      dup2\n      0xffff\n      mul\n      not\n      and\n      swap1\n      dup4\n      0xffff\n      and\n      mul\n      or\n      swap1\n      sstore\n      pop\n      0x00\n      dup3\n      add\n      0x06\n      swap1\n      sload\n      swap1\n      0x0100\n      exp\n      swap1\n      div\n      0xff\n      and\n      dup2\n      0x00\n      add\n      exp(0x0100, 0x06)\n      dup2\n      sload\n      dup2\n      0xff\n      mul\n      not\n      and\n      swap1\n      dup4\n      iszero\n      iszero\n      mul\n      or\n      swap1\n      sstore\n      pop\n      0x00\n      dup3\n      add\n      0x07\n      swap1\n      sload\n      swap1\n      0x0100\n      exp\n      swap1\n      div\n      0xff\n      and\n      dup2\n      0x00\n      add\n      exp(0x0100, 0x07)\n      dup2\n      sload\n      dup2\n      0xff\n      mul\n      not\n      and\n      swap1\n      dup4\n      iszero\n      iszero\n      mul\n      or\n      swap1\n      sstore\n      pop\n      pop\n      pop\n      pop\n      pop\n        /* \"contracts/CourseSectionManagement.sol\":4429:4911  if (!isCourseSectionExisted) {... */\n      jump(tag_128)\n    tag_126:\n        /* \"contracts/CourseSectionManagement.sol\":4573:4581  uint16 i */\n      0x00\n        /* \"contracts/CourseSectionManagement.sol\":4568:4900  for (uint16 i = 0; i < studentCourseSections[_studentSemesterKey].length; i++) {... */\n    tag_129:\n        /* \"contracts/CourseSectionManagement.sol\":4591:4612  studentCourseSections */\n      0x02\n        /* \"contracts/CourseSectionManagement.sol\":4591:4633  studentCourseSections[_studentSemesterKey] */\n      0x00\n        /* \"contracts/CourseSectionManagement.sol\":4613:4632  _studentSemesterKey */\n      dup11\n        /* \"contracts/CourseSectionManagement.sol\":4591:4633  studentCourseSections[_studentSemesterKey] */\n      dup2\n      mstore\n      0x20\n      add\n      swap1\n      dup2\n      mstore\n      0x20\n      add\n      0x00\n      keccak256\n        /* \"contracts/CourseSectionManagement.sol\":4591:4640  studentCourseSections[_studentSemesterKey].length */\n      dup1\n      sload\n      swap1\n      pop\n        /* \"contracts/CourseSectionManagement.sol\":4587:4588  i */\n      dup2\n        /* \"contracts/CourseSectionManagement.sol\":4587:4640  i < studentCourseSections[_studentSemesterKey].length */\n      0xffff\n      and\n      lt\n        /* \"contracts/CourseSectionManagement.sol\":4568:4900  for (uint16 i = 0; i < studentCourseSections[_studentSemesterKey].length; i++) {... */\n      iszero\n      tag_130\n      jumpi\n        /* \"contracts/CourseSectionManagement.sol\":4735:4751  _courseSectionId */\n      dup8\n        /* \"contracts/CourseSectionManagement.sol\":4670:4751  studentCourseSections[_studentSemesterKey][i].courseSectionId == _courseSectionId */\n      0xffff\n      and\n        /* \"contracts/CourseSectionManagement.sol\":4670:4691  studentCourseSections */\n      0x02\n        /* \"contracts/CourseSectionManagement.sol\":4670:4712  studentCourseSections[_studentSemesterKey] */\n      0x00\n        /* \"contracts/CourseSectionManagement.sol\":4692:4711  _studentSemesterKey */\n      dup12\n        /* \"contracts/CourseSectionManagement.sol\":4670:4712  studentCourseSections[_studentSemesterKey] */\n      dup2\n      mstore\n      0x20\n      add\n      swap1\n      dup2\n      mstore\n      0x20\n      add\n      0x00\n      keccak256\n        /* \"contracts/CourseSectionManagement.sol\":4713:4714  i */\n      dup3\n        /* \"contracts/CourseSectionManagement.sol\":4670:4715  studentCourseSections[_studentSemesterKey][i] */\n      0xffff\n      and\n      dup2\n      sload\n      dup2\n      lt\n      tag_132\n      jumpi\n      tag_133\n      tag_90\n      jump\t// in\n    tag_133:\n    tag_132:\n      swap1\n      0x00\n      mstore\n      keccak256(0x00, 0x20)\n      swap1\n      0x02\n      mul\n      add\n        /* \"contracts/CourseSectionManagement.sol\":4670:4731  studentCourseSections[_studentSemesterKey][i].courseSectionId */\n      0x00\n      add\n      0x00\n      swap1\n      sload\n      swap1\n      0x0100\n      exp\n      swap1\n      div\n      0xffff\n      and\n        /* \"contracts/CourseSectionManagement.sol\":4670:4751  studentCourseSections[_studentSemesterKey][i].courseSectionId == _courseSectionId */\n      0xffff\n      and\n      sub\n        /* \"contracts/CourseSectionManagement.sol\":4666:4885  if (studentCourseSections[_studentSemesterKey][i].courseSectionId == _courseSectionId) {... */\n      tag_135\n      jumpi\n        /* \"contracts/CourseSectionManagement.sol\":4824:4837  courseSection */\n      dup3\n        /* \"contracts/CourseSectionManagement.sol\":4776:4797  studentCourseSections */\n      0x02\n        /* \"contracts/CourseSectionManagement.sol\":4776:4818  studentCourseSections[_studentSemesterKey] */\n      0x00\n        /* \"contracts/CourseSectionManagement.sol\":4798:4817  _studentSemesterKey */\n      dup12\n        /* \"contracts/CourseSectionManagement.sol\":4776:4818  studentCourseSections[_studentSemesterKey] */\n      dup2\n      mstore\n      0x20\n      add\n      swap1\n      dup2\n      mstore\n      0x20\n      add\n      0x00\n      keccak256\n        /* \"contracts/CourseSectionManagement.sol\":4819:4820  i */\n      dup3\n        /* \"contracts/CourseSectionManagement.sol\":4776:4821  studentCourseSections[_studentSemesterKey][i] */\n      0xffff\n      and\n      dup2\n      sload\n      dup2\n      lt\n      tag_136\n      jumpi\n      tag_137\n      tag_90\n      jump\t// in\n    tag_137:\n    tag_136:\n      swap1\n      0x00\n      mstore\n      keccak256(0x00, 0x20)\n      swap1\n      0x02\n      mul\n      add\n        /* \"contracts/CourseSectionManagement.sol\":4776:4837  studentCourseSections[_studentSemesterKey][i] = courseSection */\n      0x00\n      dup3\n      add\n      0x00\n      swap1\n      sload\n      swap1\n      0x0100\n      exp\n      swap1\n      div\n      0xffff\n      and\n      dup2\n      0x00\n      add\n      exp(0x0100, 0x00)\n      dup2\n      sload\n      dup2\n      0xffff\n      mul\n      not\n      and\n      swap1\n      dup4\n      0xffff\n      and\n      mul\n      or\n      swap1\n      sstore\n      pop\n      0x00\n      dup3\n      add\n      0x02\n      swap1\n      sload\n      swap1\n      0x0100\n      exp\n      swap1\n      div\n      0xff\n      and\n      dup2\n      0x00\n      add\n      exp(0x0100, 0x02)\n      dup2\n      sload\n      dup2\n      0xff\n      mul\n      not\n      and\n      swap1\n      dup4\n      iszero\n      iszero\n      mul\n      or\n      swap1\n      sstore\n      pop\n      0x01\n      dup3\n      add\n      dup2\n      0x01\n      add\n      0x00\n      dup3\n      add\n      0x00\n      swap1\n      sload\n      swap1\n      0x0100\n      exp\n      swap1\n      div\n      0xffff\n      and\n      dup2\n      0x00\n      add\n      exp(0x0100, 0x00)\n      dup2\n      sload\n      dup2\n      0xffff\n      mul\n      not\n      and\n      swap1\n      dup4\n      0xffff\n      and\n      mul\n      or\n      swap1\n      sstore\n      pop\n      0x00\n      dup3\n      add\n      0x02\n      swap1\n      sload\n      swap1\n      0x0100\n      exp\n      swap1\n      div\n      0xffff\n      and\n      dup2\n      0x00\n      add\n      exp(0x0100, 0x02)\n      dup2\n      sload\n      dup2\n      0xffff\n      mul\n      not\n      and\n      swap1\n      dup4\n      0xffff\n      and\n      mul\n      or\n      swap1\n      sstore\n      pop\n      0x00\n      dup3\n      add\n      0x04\n      swap1\n      sload\n      swap1\n      0x0100\n      exp\n      swap1\n      div\n      0xffff\n      and\n      dup2\n      0x00\n      add\n      exp(0x0100, 0x04)\n      dup2\n      sload\n      dup2\n      0xffff\n      mul\n      not\n      and\n      swap1\n      dup4\n      0xffff\n      and\n      mul\n      or\n      swap1\n      sstore\n      pop\n      0x00\n      dup3\n      add\n      0x06\n      swap1\n      sload\n      swap1\n      0x0100\n      exp\n      swap1\n      div\n      0xff\n      and\n      dup2\n      0x00\n      add\n      exp(0x0100, 0x06)\n      dup2\n      sload\n      dup2\n      0xff\n      mul\n      not\n      and\n      swap1\n      dup4\n      iszero\n      iszero\n      mul\n      or\n      swap1\n      sstore\n      pop\n      0x00\n      dup3\n      add\n      0x07\n      swap1\n      sload\n      swap1\n      0x0100\n      exp\n      swap1\n      div\n      0xff\n      and\n      dup2\n      0x00\n      add\n      exp(0x0100, 0x07)\n      dup2\n      sload\n      dup2\n      0xff\n      mul\n      not\n      and\n      swap1\n      dup4\n      iszero\n      iszero\n      mul\n      or\n      swap1\n      sstore\n      pop\n      pop\n      pop\n      swap1\n      pop\n      pop\n        /* \"contracts/CourseSectionManagement.sol\":4860:4865  break */\n      jump(tag_130)\n        /* \"contracts/CourseSectionManagement.sol\":4666:4885  if (studentCourseSections[_studentSemesterKey][i].courseSectionId == _courseSectionId) {... */\n    tag_135:\n        /* \"contracts/CourseSectionManagement.sol\":4642:4645  i++ */\n      dup1\n      dup1\n      tag_139\n      swap1\n      tag_97\n      jump\t// in\n    tag_139:\n      swap2\n      pop\n      pop\n        /* \"contracts/CourseSectionManagement.sol\":4568:4900  for (uint16 i = 0; i < studentCourseSections[_studentSemesterKey].length; i++) {... */\n      jump(tag_129)\n    tag_130:\n      pop\n        /* \"contracts/CourseSectionManagement.sol\":4429:4911  if (!isCourseSectionExisted) {... */\n    tag_128:\n        /* \"contracts/CourseSectionManagement.sol\":3081:4918  {... */\n      pop\n      pop\n        /* \"contracts/CourseSectionManagement.sol\":1269:1859  {... */\n      pop\n        /* \"contracts/CourseSectionManagement.sol\":1158:1159  _ */\n      pop\n        /* \"contracts/CourseSectionManagement.sol\":2899:4918  function addCourseSectionScore(bytes32 _studentSemesterKey, uint16 _courseSectionId, uint16 _score, ScoreType _scoreType) public onlySemesterManagement onlyTeacher(_courseSectionId) {... */\n      pop\n      pop\n      pop\n      pop\n      jump\t// out\n        /* \"contracts/CourseSectionManagement.sol\":2366:2541  function getStudentCourseSections(bytes32 _studentSemesterKey) public view returns(CourseSection[] memory) {... */\n    tag_28:\n        /* \"contracts/CourseSectionManagement.sol\":2449:2471  CourseSection[] memory */\n      0x60\n        /* \"contracts/CourseSectionManagement.sol\":2491:2512  studentCourseSections */\n      0x02\n        /* \"contracts/CourseSectionManagement.sol\":2491:2533  studentCourseSections[_studentSemesterKey] */\n      0x00\n        /* \"contracts/CourseSectionManagement.sol\":2513:2532  _studentSemesterKey */\n      dup4\n        /* \"contracts/CourseSectionManagement.sol\":2491:2533  studentCourseSections[_studentSemesterKey] */\n      dup2\n      mstore\n      0x20\n      add\n      swap1\n      dup2\n      mstore\n      0x20\n      add\n      0x00\n      keccak256\n        /* \"contracts/CourseSectionManagement.sol\":2484:2533  return studentCourseSections[_studentSemesterKey] */\n      dup1\n      sload\n      dup1\n      0x20\n      mul\n      0x20\n      add\n      mload(0x40)\n      swap1\n      dup2\n      add\n      0x40\n      mstore\n      dup1\n      swap3\n      swap2\n      swap1\n      dup2\n      dup2\n      mstore\n      0x20\n      add\n      0x00\n      swap1\n    tag_141:\n      dup3\n      dup3\n      lt\n      iszero\n      tag_142\n      jumpi\n      dup4\n      dup3\n      swap1\n      0x00\n      mstore\n      keccak256(0x00, 0x20)\n      swap1\n      0x02\n      mul\n      add\n      mload(0x40)\n      dup1\n      0x60\n      add\n      0x40\n      mstore\n      swap1\n      dup2\n      0x00\n      dup3\n      add\n      0x00\n      swap1\n      sload\n      swap1\n      0x0100\n      exp\n      swap1\n      div\n      0xffff\n      and\n      0xffff\n      and\n      0xffff\n      and\n      dup2\n      mstore\n      0x20\n      add\n      0x00\n      dup3\n      add\n      0x02\n      swap1\n      sload\n      swap1\n      0x0100\n      exp\n      swap1\n      div\n      0xff\n      and\n      iszero\n      iszero\n      iszero\n      iszero\n      dup2\n      mstore\n      0x20\n      add\n      0x01\n      dup3\n      add\n      mload(0x40)\n      dup1\n      0xa0\n      add\n      0x40\n      mstore\n      swap1\n      dup2\n      0x00\n      dup3\n      add\n      0x00\n      swap1\n      sload\n      swap1\n      0x0100\n      exp\n      swap1\n      div\n      0xffff\n      and\n      0xffff\n      and\n      0xffff\n      and\n      dup2\n      mstore\n      0x20\n      add\n      0x00\n      dup3\n      add\n      0x02\n      swap1\n      sload\n      swap1\n      0x0100\n      exp\n      swap1\n      div\n      0xffff\n      and\n      0xffff\n      and\n      0xffff\n      and\n      dup2\n      mstore\n      0x20\n      add\n      0x00\n      dup3\n      add\n      0x04\n      swap1\n      sload\n      swap1\n      0x0100\n      exp\n      swap1\n      div\n      0xffff\n      and\n      0xffff\n      and\n      0xffff\n      and\n      dup2\n      mstore\n      0x20\n      add\n      0x00\n      dup3\n      add\n      0x06\n      swap1\n      sload\n      swap1\n      0x0100\n      exp\n      swap1\n      div\n      0xff\n      and\n      iszero\n      iszero\n      iszero\n      iszero\n      dup2\n      mstore\n      0x20\n      add\n      0x00\n      dup3\n      add\n      0x07\n      swap1\n      sload\n      swap1\n      0x0100\n      exp\n      swap1\n      div\n      0xff\n      and\n      iszero\n      iszero\n      iszero\n      iszero\n      dup2\n      mstore\n      pop\n      pop\n      dup2\n      mstore\n      pop\n      pop\n      dup2\n      mstore\n      0x20\n      add\n      swap1\n      0x01\n      add\n      swap1\n      jump(tag_141)\n    tag_142:\n      pop\n      pop\n      pop\n      pop\n      swap1\n      pop\n        /* \"contracts/CourseSectionManagement.sol\":2366:2541  function getStudentCourseSections(bytes32 _studentSemesterKey) public view returns(CourseSection[] memory) {... */\n      swap2\n      swap1\n      pop\n      jump\t// out\n        /* \"contracts/CourseSectionManagement.sol\":1935:2283  function updateSemesterManagementAddress(address _semesterManagementAddress) public {... */\n    tag_34:\n        /* \"contracts/CourseSectionManagement.sol\":2052:2057  admin */\n      0x01\n      0x00\n      swap1\n      sload\n      swap1\n      0x0100\n      exp\n      swap1\n      div\n      0xffffffffffffffffffffffffffffffffffffffff\n      and\n        /* \"contracts/CourseSectionManagement.sol\":2038:2057  msg.sender == admin */\n      0xffffffffffffffffffffffffffffffffffffffff\n      and\n        /* \"contracts/CourseSectionManagement.sol\":2038:2048  msg.sender */\n      caller\n        /* \"contracts/CourseSectionManagement.sol\":2038:2057  msg.sender == admin */\n      0xffffffffffffffffffffffffffffffffffffffff\n      and\n      eq\n        /* \"contracts/CourseSectionManagement.sol\":2030:2111  require(msg.sender == admin, \"Only admin can update semester management address\") */\n      tag_145\n      jumpi\n      mload(0x40)\n      0x08c379a000000000000000000000000000000000000000000000000000000000\n      dup2\n      mstore\n      0x04\n      add\n      tag_146\n      swap1\n      tag_147\n      jump\t// in\n    tag_146:\n      mload(0x40)\n      dup1\n      swap2\n      sub\n      swap1\n      revert\n    tag_145:\n        /* \"contracts/CourseSectionManagement.sol\":2168:2169  0 */\n      0x00\n        /* \"contracts/CourseSectionManagement.sol\":2130:2170  _semesterManagementAddress != address(0) */\n      0xffffffffffffffffffffffffffffffffffffffff\n      and\n        /* \"contracts/CourseSectionManagement.sol\":2130:2156  _semesterManagementAddress */\n      dup2\n        /* \"contracts/CourseSectionManagement.sol\":2130:2170  _semesterManagementAddress != address(0) */\n      0xffffffffffffffffffffffffffffffffffffffff\n      and\n      sub\n        /* \"contracts/CourseSectionManagement.sol\":2122:2210  require(_semesterManagementAddress != address(0), \"Invalid semester management address\") */\n      tag_148\n      jumpi\n      mload(0x40)\n      0x08c379a000000000000000000000000000000000000000000000000000000000\n      dup2\n      mstore\n      0x04\n      add\n      tag_149\n      swap1\n      tag_150\n      jump\t// in\n    tag_149:\n      mload(0x40)\n      dup1\n      swap2\n      sub\n      swap1\n      revert\n    tag_148:\n        /* \"contracts/CourseSectionManagement.sol\":2249:2275  _semesterManagementAddress */\n      dup1\n        /* \"contracts/CourseSectionManagement.sol\":2221:2246  semesterManagementAddress */\n      0x00\n      dup1\n        /* \"contracts/CourseSectionManagement.sol\":2221:2275  semesterManagementAddress = _semesterManagementAddress */\n      0x0100\n      exp\n      dup2\n      sload\n      dup2\n      0xffffffffffffffffffffffffffffffffffffffff\n      mul\n      not\n      and\n      swap1\n      dup4\n      0xffffffffffffffffffffffffffffffffffffffff\n      and\n      mul\n      or\n      swap1\n      sstore\n      pop\n        /* \"contracts/CourseSectionManagement.sol\":1935:2283  function updateSemesterManagementAddress(address _semesterManagementAddress) public {... */\n      pop\n      jump\t// out\n        /* \"contracts/CourseSectionManagement.sol\":7084:7237  function getCourseSectionTeacher(uint16 _courseSectionId) public view returns (address) {... */\n    tag_38:\n        /* \"contracts/CourseSectionManagement.sol\":7163:7170  address */\n      0x00\n        /* \"contracts/CourseSectionManagement.sol\":7190:7211  courseSectionTeachers */\n      0x04\n        /* \"contracts/CourseSectionManagement.sol\":7190:7229  courseSectionTeachers[_courseSectionId] */\n      0x00\n        /* \"contracts/CourseSectionManagement.sol\":7212:7228  _courseSectionId */\n      dup4\n        /* \"contracts/CourseSectionManagement.sol\":7190:7229  courseSectionTeachers[_courseSectionId] */\n      0xffff\n      and\n      0xffff\n      and\n      dup2\n      mstore\n      0x20\n      add\n      swap1\n      dup2\n      mstore\n      0x20\n      add\n      0x00\n      keccak256\n      0x00\n      swap1\n      sload\n      swap1\n      0x0100\n      exp\n      swap1\n      div\n      0xffffffffffffffffffffffffffffffffffffffff\n      and\n        /* \"contracts/CourseSectionManagement.sol\":7183:7229  return courseSectionTeachers[_courseSectionId] */\n      swap1\n      pop\n        /* \"contracts/CourseSectionManagement.sol\":7084:7237  function getCourseSectionTeacher(uint16 _courseSectionId) public view returns (address) {... */\n      swap2\n      swap1\n      pop\n      jump\t// out\n        /* \"contracts/CourseSectionManagement.sol\":281:321  address public semesterManagementAddress */\n    tag_42:\n      0x00\n      dup1\n      sload\n      swap1\n      0x0100\n      exp\n      swap1\n      div\n      0xffffffffffffffffffffffffffffffffffffffff\n      and\n      dup2\n      jump\t// out\n        /* \"contracts/CourseSectionManagement.sol\":328:348  address public admin */\n    tag_45:\n      0x01\n      0x00\n      swap1\n      sload\n      swap1\n      0x0100\n      exp\n      swap1\n      div\n      0xffffffffffffffffffffffffffffffffffffffff\n      and\n      dup2\n      jump\t// out\n        /* \"contracts/CourseSectionManagement.sol\":6466:7009  function isScoreExistedInCourseSection(bytes32 _studentSemesterKey, uint16 _courseSectionId, ScoreType _scoreType) private view returns (bool) {... */\n    tag_64:\n        /* \"contracts/CourseSectionManagement.sol\":6603:6607  bool */\n      0x00\n        /* \"contracts/CourseSectionManagement.sol\":6620:6655  CourseSection storage courseSection */\n      dup1\n        /* \"contracts/CourseSectionManagement.sol\":6658:6676  courseSectionScore */\n      0x03\n        /* \"contracts/CourseSectionManagement.sol\":6658:6697  courseSectionScore[_studentSemesterKey] */\n      0x00\n        /* \"contracts/CourseSectionManagement.sol\":6677:6696  _studentSemesterKey */\n      dup7\n        /* \"contracts/CourseSectionManagement.sol\":6658:6697  courseSectionScore[_studentSemesterKey] */\n      dup2\n      mstore\n      0x20\n      add\n      swap1\n      dup2\n      mstore\n      0x20\n      add\n      0x00\n      keccak256\n        /* \"contracts/CourseSectionManagement.sol\":6658:6715  courseSectionScore[_studentSemesterKey][_courseSectionId] */\n      0x00\n        /* \"contracts/CourseSectionManagement.sol\":6698:6714  _courseSectionId */\n      dup6\n        /* \"contracts/CourseSectionManagement.sol\":6658:6715  courseSectionScore[_studentSemesterKey][_courseSectionId] */\n      0xffff\n      and\n      0xffff\n      and\n      dup2\n      mstore\n      0x20\n      add\n      swap1\n      dup2\n      mstore\n      0x20\n      add\n      0x00\n      keccak256\n        /* \"contracts/CourseSectionManagement.sol\":6620:6715  CourseSection storage courseSection = courseSectionScore[_studentSemesterKey][_courseSectionId] */\n      swap1\n      pop\n        /* \"contracts/CourseSectionManagement.sol\":6728:6738  bool isSet */\n      0x00\n        /* \"contracts/CourseSectionManagement.sol\":6777:6794  ScoreType.Midterm */\n      dup1\n        /* \"contracts/CourseSectionManagement.sol\":6763:6794  _scoreType == ScoreType.Midterm */\n      0x01\n      dup2\n      gt\n      iszero\n      tag_153\n      jumpi\n      tag_154\n      tag_75\n      jump\t// in\n    tag_154:\n    tag_153:\n        /* \"contracts/CourseSectionManagement.sol\":6763:6773  _scoreType */\n      dup5\n        /* \"contracts/CourseSectionManagement.sol\":6763:6794  _scoreType == ScoreType.Midterm */\n      0x01\n      dup2\n      gt\n      iszero\n      tag_155\n      jumpi\n      tag_156\n      tag_75\n      jump\t// in\n    tag_156:\n    tag_155:\n      sub\n        /* \"contracts/CourseSectionManagement.sol\":6759:6977  if (_scoreType == ScoreType.Midterm) {... */\n      tag_157\n      jumpi\n        /* \"contracts/CourseSectionManagement.sol\":6819:6832  courseSection */\n      dup2\n        /* \"contracts/CourseSectionManagement.sol\":6819:6838  courseSection.score */\n      0x01\n      add\n        /* \"contracts/CourseSectionManagement.sol\":6819:6851  courseSection.score.isMidtermSet */\n      0x00\n      add\n      0x06\n      swap1\n      sload\n      swap1\n      0x0100\n      exp\n      swap1\n      div\n      0xff\n      and\n        /* \"contracts/CourseSectionManagement.sol\":6811:6851  isSet = courseSection.score.isMidtermSet */\n      swap1\n      pop\n        /* \"contracts/CourseSectionManagement.sol\":6759:6977  if (_scoreType == ScoreType.Midterm) {... */\n      jump(tag_158)\n    tag_157:\n        /* \"contracts/CourseSectionManagement.sol\":6887:6906  ScoreType.FinalExam */\n      0x01\n        /* \"contracts/CourseSectionManagement.sol\":6873:6906  _scoreType == ScoreType.FinalExam */\n      dup1\n      dup2\n      gt\n      iszero\n      tag_159\n      jumpi\n      tag_160\n      tag_75\n      jump\t// in\n    tag_160:\n    tag_159:\n        /* \"contracts/CourseSectionManagement.sol\":6873:6883  _scoreType */\n      dup5\n        /* \"contracts/CourseSectionManagement.sol\":6873:6906  _scoreType == ScoreType.FinalExam */\n      0x01\n      dup2\n      gt\n      iszero\n      tag_161\n      jumpi\n      tag_162\n      tag_75\n      jump\t// in\n    tag_162:\n    tag_161:\n      sub\n        /* \"contracts/CourseSectionManagement.sol\":6869:6977  if (_scoreType == ScoreType.FinalExam) {... */\n      tag_163\n      jumpi\n        /* \"contracts/CourseSectionManagement.sol\":6931:6944  courseSection */\n      dup2\n        /* \"contracts/CourseSectionManagement.sol\":6931:6950  courseSection.score */\n      0x01\n      add\n        /* \"contracts/CourseSectionManagement.sol\":6931:6965  courseSection.score.isFinalExamSet */\n      0x00\n      add\n      0x07\n      swap1\n      sload\n      swap1\n      0x0100\n      exp\n      swap1\n      div\n      0xff\n      and\n        /* \"contracts/CourseSectionManagement.sol\":6923:6965  isSet = courseSection.score.isFinalExamSet */\n      swap1\n      pop\n        /* \"contracts/CourseSectionManagement.sol\":6869:6977  if (_scoreType == ScoreType.FinalExam) {... */\n    tag_163:\n        /* \"contracts/CourseSectionManagement.sol\":6759:6977  if (_scoreType == ScoreType.Midterm) {... */\n    tag_158:\n        /* \"contracts/CourseSectionManagement.sol\":6996:7001  isSet */\n      dup1\n        /* \"contracts/CourseSectionManagement.sol\":6989:7001  return isSet */\n      swap3\n      pop\n      pop\n      pop\n        /* \"contracts/CourseSectionManagement.sol\":6466:7009  function isScoreExistedInCourseSection(bytes32 _studentSemesterKey, uint16 _courseSectionId, ScoreType _scoreType) private view returns (bool) {... */\n      swap4\n      swap3\n      pop\n      pop\n      pop\n      jump\t// out\n        /* \"contracts/CourseSectionManagement.sol\":7302:7466  function isValidScore(uint16 _score) private pure returns (bool) {... */\n    tag_69:\n        /* \"contracts/CourseSectionManagement.sol\":7361:7365  bool */\n      0x00\n        /* \"contracts/CourseSectionManagement.sol\":7396:7397  0 */\n      dup1\n        /* \"contracts/CourseSectionManagement.sol\":7386:7392  _score */\n      dup3\n        /* \"contracts/CourseSectionManagement.sol\":7386:7397  _score == 0 */\n      0xffff\n      and\n      eq\n        /* \"contracts/CourseSectionManagement.sol\":7385:7458  (_score == 0) || ((_score >= 100 && _score <= 999) && (_score % 10 == 0)) */\n      dup1\n      tag_165\n      jumpi\n      pop\n        /* \"contracts/CourseSectionManagement.sol\":7414:7417  100 */\n      0x64\n        /* \"contracts/CourseSectionManagement.sol\":7404:7410  _score */\n      dup3\n        /* \"contracts/CourseSectionManagement.sol\":7404:7417  _score >= 100 */\n      0xffff\n      and\n      lt\n      iszero\n        /* \"contracts/CourseSectionManagement.sol\":7404:7434  _score >= 100 && _score <= 999 */\n      dup1\n      iszero\n      tag_166\n      jumpi\n      pop\n        /* \"contracts/CourseSectionManagement.sol\":7431:7434  999 */\n      0x03e7\n        /* \"contracts/CourseSectionManagement.sol\":7421:7427  _score */\n      dup3\n        /* \"contracts/CourseSectionManagement.sol\":7421:7434  _score <= 999 */\n      0xffff\n      and\n      gt\n      iszero\n        /* \"contracts/CourseSectionManagement.sol\":7404:7434  _score >= 100 && _score <= 999 */\n    tag_166:\n        /* \"contracts/CourseSectionManagement.sol\":7403:7457  (_score >= 100 && _score <= 999) && (_score % 10 == 0) */\n      dup1\n      iszero\n      tag_167\n      jumpi\n      pop\n        /* \"contracts/CourseSectionManagement.sol\":7455:7456  0 */\n      0x00\n        /* \"contracts/CourseSectionManagement.sol\":7449:7451  10 */\n      0x0a\n        /* \"contracts/CourseSectionManagement.sol\":7440:7446  _score */\n      dup4\n        /* \"contracts/CourseSectionManagement.sol\":7440:7451  _score % 10 */\n      tag_168\n      swap2\n      swap1\n      tag_169\n      jump\t// in\n    tag_168:\n        /* \"contracts/CourseSectionManagement.sol\":7440:7456  _score % 10 == 0 */\n      0xffff\n      and\n      eq\n        /* \"contracts/CourseSectionManagement.sol\":7403:7457  (_score >= 100 && _score <= 999) && (_score % 10 == 0) */\n    tag_167:\n        /* \"contracts/CourseSectionManagement.sol\":7385:7458  (_score == 0) || ((_score >= 100 && _score <= 999) && (_score % 10 == 0)) */\n    tag_165:\n        /* \"contracts/CourseSectionManagement.sol\":7378:7458  return (_score == 0) || ((_score >= 100 && _score <= 999) && (_score % 10 == 0)) */\n      swap1\n      pop\n        /* \"contracts/CourseSectionManagement.sol\":7302:7466  function isValidScore(uint16 _score) private pure returns (bool) {... */\n      swap2\n      swap1\n      pop\n      jump\t// out\n    tag_48:\n      mload(0x40)\n      dup1\n      0x60\n      add\n      0x40\n      mstore\n      dup1\n      and(0xffff, 0x00)\n      dup2\n      mstore\n      0x20\n      add\n      iszero(iszero(0x00))\n      dup2\n      mstore\n      0x20\n      add\n      tag_170\n      tag_171\n      jump\t// in\n    tag_170:\n      dup2\n      mstore\n      pop\n      swap1\n      jump\t// out\n    tag_171:\n      mload(0x40)\n      dup1\n      0xa0\n      add\n      0x40\n      mstore\n      dup1\n      and(0xffff, 0x00)\n      dup2\n      mstore\n      0x20\n      add\n      and(0xffff, 0x00)\n      dup2\n      mstore\n      0x20\n      add\n      and(0xffff, 0x00)\n      dup2\n      mstore\n      0x20\n      add\n      iszero(iszero(0x00))\n      dup2\n      mstore\n      0x20\n      add\n      iszero(iszero(0x00))\n      dup2\n      mstore\n      pop\n      swap1\n      jump\t// out\n        /* \"#utility.yul\":88:205   */\n    tag_173:\n        /* \"#utility.yul\":197:198   */\n      0x00\n        /* \"#utility.yul\":194:195   */\n      dup1\n        /* \"#utility.yul\":187:199   */\n      revert\n        /* \"#utility.yul\":334:411   */\n    tag_175:\n        /* \"#utility.yul\":371:378   */\n      0x00\n        /* \"#utility.yul\":400:405   */\n      dup2\n        /* \"#utility.yul\":389:405   */\n      swap1\n      pop\n        /* \"#utility.yul\":334:411   */\n      swap2\n      swap1\n      pop\n      jump\t// out\n        /* \"#utility.yul\":417:539   */\n    tag_176:\n        /* \"#utility.yul\":490:514   */\n      tag_225\n        /* \"#utility.yul\":508:513   */\n      dup2\n        /* \"#utility.yul\":490:514   */\n      tag_175\n      jump\t// in\n    tag_225:\n        /* \"#utility.yul\":483:488   */\n      dup2\n        /* \"#utility.yul\":480:515   */\n      eq\n        /* \"#utility.yul\":470:533   */\n      tag_226\n      jumpi\n        /* \"#utility.yul\":529:530   */\n      0x00\n        /* \"#utility.yul\":526:527   */\n      dup1\n        /* \"#utility.yul\":519:531   */\n      revert\n        /* \"#utility.yul\":470:533   */\n    tag_226:\n        /* \"#utility.yul\":417:539   */\n      pop\n      jump\t// out\n        /* \"#utility.yul\":545:684   */\n    tag_177:\n        /* \"#utility.yul\":591:596   */\n      0x00\n        /* \"#utility.yul\":629:635   */\n      dup2\n        /* \"#utility.yul\":616:636   */\n      calldataload\n        /* \"#utility.yul\":607:636   */\n      swap1\n      pop\n        /* \"#utility.yul\":645:678   */\n      tag_228\n        /* \"#utility.yul\":672:677   */\n      dup2\n        /* \"#utility.yul\":645:678   */\n      tag_176\n      jump\t// in\n    tag_228:\n        /* \"#utility.yul\":545:684   */\n      swap3\n      swap2\n      pop\n      pop\n      jump\t// out\n        /* \"#utility.yul\":690:779   */\n    tag_178:\n        /* \"#utility.yul\":726:733   */\n      0x00\n        /* \"#utility.yul\":766:772   */\n      0xffff\n        /* \"#utility.yul\":759:764   */\n      dup3\n        /* \"#utility.yul\":755:773   */\n      and\n        /* \"#utility.yul\":744:773   */\n      swap1\n      pop\n        /* \"#utility.yul\":690:779   */\n      swap2\n      swap1\n      pop\n      jump\t// out\n        /* \"#utility.yul\":785:905   */\n    tag_179:\n        /* \"#utility.yul\":857:880   */\n      tag_231\n        /* \"#utility.yul\":874:879   */\n      dup2\n        /* \"#utility.yul\":857:880   */\n      tag_178\n      jump\t// in\n    tag_231:\n        /* \"#utility.yul\":850:855   */\n      dup2\n        /* \"#utility.yul\":847:881   */\n      eq\n        /* \"#utility.yul\":837:899   */\n      tag_232\n      jumpi\n        /* \"#utility.yul\":895:896   */\n      0x00\n        /* \"#utility.yul\":892:893   */\n      dup1\n        /* \"#utility.yul\":885:897   */\n      revert\n        /* \"#utility.yul\":837:899   */\n    tag_232:\n        /* \"#utility.yul\":785:905   */\n      pop\n      jump\t// out\n        /* \"#utility.yul\":911:1048   */\n    tag_180:\n        /* \"#utility.yul\":956:961   */\n      0x00\n        /* \"#utility.yul\":994:1000   */\n      dup2\n        /* \"#utility.yul\":981:1001   */\n      calldataload\n        /* \"#utility.yul\":972:1001   */\n      swap1\n      pop\n        /* \"#utility.yul\":1010:1042   */\n      tag_234\n        /* \"#utility.yul\":1036:1041   */\n      dup2\n        /* \"#utility.yul\":1010:1042   */\n      tag_179\n      jump\t// in\n    tag_234:\n        /* \"#utility.yul\":911:1048   */\n      swap3\n      swap2\n      pop\n      pop\n      jump\t// out\n        /* \"#utility.yul\":1054:1526   */\n    tag_14:\n        /* \"#utility.yul\":1121:1127   */\n      0x00\n        /* \"#utility.yul\":1129:1135   */\n      dup1\n        /* \"#utility.yul\":1178:1180   */\n      0x40\n        /* \"#utility.yul\":1166:1175   */\n      dup4\n        /* \"#utility.yul\":1157:1164   */\n      dup6\n        /* \"#utility.yul\":1153:1176   */\n      sub\n        /* \"#utility.yul\":1149:1181   */\n      slt\n        /* \"#utility.yul\":1146:1265   */\n      iszero\n      tag_236\n      jumpi\n        /* \"#utility.yul\":1184:1263   */\n      tag_237\n      tag_173\n      jump\t// in\n    tag_237:\n        /* \"#utility.yul\":1146:1265   */\n    tag_236:\n        /* \"#utility.yul\":1304:1305   */\n      0x00\n        /* \"#utility.yul\":1329:1382   */\n      tag_238\n        /* \"#utility.yul\":1374:1381   */\n      dup6\n        /* \"#utility.yul\":1365:1371   */\n      dup3\n        /* \"#utility.yul\":1354:1363   */\n      dup7\n        /* \"#utility.yul\":1350:1372   */\n      add\n        /* \"#utility.yul\":1329:1382   */\n      tag_177\n      jump\t// in\n    tag_238:\n        /* \"#utility.yul\":1319:1382   */\n      swap3\n      pop\n        /* \"#utility.yul\":1275:1392   */\n      pop\n        /* \"#utility.yul\":1431:1433   */\n      0x20\n        /* \"#utility.yul\":1457:1509   */\n      tag_239\n        /* \"#utility.yul\":1501:1508   */\n      dup6\n        /* \"#utility.yul\":1492:1498   */\n      dup3\n        /* \"#utility.yul\":1481:1490   */\n      dup7\n        /* \"#utility.yul\":1477:1499   */\n      add\n        /* \"#utility.yul\":1457:1509   */\n      tag_180\n      jump\t// in\n    tag_239:\n        /* \"#utility.yul\":1447:1509   */\n      swap2\n      pop\n        /* \"#utility.yul\":1402:1519   */\n      pop\n        /* \"#utility.yul\":1054:1526   */\n      swap3\n      pop\n      swap3\n      swap1\n      pop\n      jump\t// out\n        /* \"#utility.yul\":1532:1637   */\n    tag_181:\n        /* \"#utility.yul\":1607:1630   */\n      tag_241\n        /* \"#utility.yul\":1624:1629   */\n      dup2\n        /* \"#utility.yul\":1607:1630   */\n      tag_178\n      jump\t// in\n    tag_241:\n        /* \"#utility.yul\":1602:1605   */\n      dup3\n        /* \"#utility.yul\":1595:1631   */\n      mstore\n        /* \"#utility.yul\":1532:1637   */\n      pop\n      pop\n      jump\t// out\n        /* \"#utility.yul\":1643:1733   */\n    tag_182:\n        /* \"#utility.yul\":1677:1684   */\n      0x00\n        /* \"#utility.yul\":1720:1725   */\n      dup2\n        /* \"#utility.yul\":1713:1726   */\n      iszero\n        /* \"#utility.yul\":1706:1727   */\n      iszero\n        /* \"#utility.yul\":1695:1727   */\n      swap1\n      pop\n        /* \"#utility.yul\":1643:1733   */\n      swap2\n      swap1\n      pop\n      jump\t// out\n        /* \"#utility.yul\":1739:1838   */\n    tag_183:\n        /* \"#utility.yul\":1810:1831   */\n      tag_244\n        /* \"#utility.yul\":1825:1830   */\n      dup2\n        /* \"#utility.yul\":1810:1831   */\n      tag_182\n      jump\t// in\n    tag_244:\n        /* \"#utility.yul\":1805:1808   */\n      dup3\n        /* \"#utility.yul\":1798:1832   */\n      mstore\n        /* \"#utility.yul\":1739:1838   */\n      pop\n      pop\n      jump\t// out\n        /* \"#utility.yul\":1880:2904   */\n    tag_184:\n        /* \"#utility.yul\":2011:2015   */\n      0xa0\n        /* \"#utility.yul\":2006:2009   */\n      dup3\n        /* \"#utility.yul\":2002:2016   */\n      add\n        /* \"#utility.yul\":2101:2105   */\n      0x00\n        /* \"#utility.yul\":2094:2099   */\n      dup3\n        /* \"#utility.yul\":2090:2106   */\n      add\n        /* \"#utility.yul\":2084:2107   */\n      mload\n        /* \"#utility.yul\":2120:2181   */\n      tag_246\n        /* \"#utility.yul\":2175:2179   */\n      0x00\n        /* \"#utility.yul\":2170:2173   */\n      dup6\n        /* \"#utility.yul\":2166:2180   */\n      add\n        /* \"#utility.yul\":2152:2164   */\n      dup3\n        /* \"#utility.yul\":2120:2181   */\n      tag_181\n      jump\t// in\n    tag_246:\n        /* \"#utility.yul\":2026:2191   */\n      pop\n        /* \"#utility.yul\":2278:2282   */\n      0x20\n        /* \"#utility.yul\":2271:2276   */\n      dup3\n        /* \"#utility.yul\":2267:2283   */\n      add\n        /* \"#utility.yul\":2261:2284   */\n      mload\n        /* \"#utility.yul\":2297:2358   */\n      tag_247\n        /* \"#utility.yul\":2352:2356   */\n      0x20\n        /* \"#utility.yul\":2347:2350   */\n      dup6\n        /* \"#utility.yul\":2343:2357   */\n      add\n        /* \"#utility.yul\":2329:2341   */\n      dup3\n        /* \"#utility.yul\":2297:2358   */\n      tag_181\n      jump\t// in\n    tag_247:\n        /* \"#utility.yul\":2201:2368   */\n      pop\n        /* \"#utility.yul\":2453:2457   */\n      0x40\n        /* \"#utility.yul\":2446:2451   */\n      dup3\n        /* \"#utility.yul\":2442:2458   */\n      add\n        /* \"#utility.yul\":2436:2459   */\n      mload\n        /* \"#utility.yul\":2472:2533   */\n      tag_248\n        /* \"#utility.yul\":2527:2531   */\n      0x40\n        /* \"#utility.yul\":2522:2525   */\n      dup6\n        /* \"#utility.yul\":2518:2532   */\n      add\n        /* \"#utility.yul\":2504:2516   */\n      dup3\n        /* \"#utility.yul\":2472:2533   */\n      tag_181\n      jump\t// in\n    tag_248:\n        /* \"#utility.yul\":2378:2543   */\n      pop\n        /* \"#utility.yul\":2633:2637   */\n      0x60\n        /* \"#utility.yul\":2626:2631   */\n      dup3\n        /* \"#utility.yul\":2622:2638   */\n      add\n        /* \"#utility.yul\":2616:2639   */\n      mload\n        /* \"#utility.yul\":2652:2709   */\n      tag_249\n        /* \"#utility.yul\":2703:2707   */\n      0x60\n        /* \"#utility.yul\":2698:2701   */\n      dup6\n        /* \"#utility.yul\":2694:2708   */\n      add\n        /* \"#utility.yul\":2680:2692   */\n      dup3\n        /* \"#utility.yul\":2652:2709   */\n      tag_183\n      jump\t// in\n    tag_249:\n        /* \"#utility.yul\":2553:2719   */\n      pop\n        /* \"#utility.yul\":2811:2815   */\n      0x80\n        /* \"#utility.yul\":2804:2809   */\n      dup3\n        /* \"#utility.yul\":2800:2816   */\n      add\n        /* \"#utility.yul\":2794:2817   */\n      mload\n        /* \"#utility.yul\":2830:2887   */\n      tag_250\n        /* \"#utility.yul\":2881:2885   */\n      0x80\n        /* \"#utility.yul\":2876:2879   */\n      dup6\n        /* \"#utility.yul\":2872:2886   */\n      add\n        /* \"#utility.yul\":2858:2870   */\n      dup3\n        /* \"#utility.yul\":2830:2887   */\n      tag_183\n      jump\t// in\n    tag_250:\n        /* \"#utility.yul\":2729:2897   */\n      pop\n        /* \"#utility.yul\":1980:2904   */\n      pop\n        /* \"#utility.yul\":1880:2904   */\n      pop\n      pop\n      jump\t// out\n        /* \"#utility.yul\":2962:3719   */\n    tag_185:\n        /* \"#utility.yul\":3119:3123   */\n      0xe0\n        /* \"#utility.yul\":3114:3117   */\n      dup3\n        /* \"#utility.yul\":3110:3124   */\n      add\n        /* \"#utility.yul\":3217:3221   */\n      0x00\n        /* \"#utility.yul\":3210:3215   */\n      dup3\n        /* \"#utility.yul\":3206:3222   */\n      add\n        /* \"#utility.yul\":3200:3223   */\n      mload\n        /* \"#utility.yul\":3236:3297   */\n      tag_252\n        /* \"#utility.yul\":3291:3295   */\n      0x00\n        /* \"#utility.yul\":3286:3289   */\n      dup6\n        /* \"#utility.yul\":3282:3296   */\n      add\n        /* \"#utility.yul\":3268:3280   */\n      dup3\n        /* \"#utility.yul\":3236:3297   */\n      tag_181\n      jump\t// in\n    tag_252:\n        /* \"#utility.yul\":3134:3307   */\n      pop\n        /* \"#utility.yul\":3407:3411   */\n      0x20\n        /* \"#utility.yul\":3400:3405   */\n      dup3\n        /* \"#utility.yul\":3396:3412   */\n      add\n        /* \"#utility.yul\":3390:3413   */\n      mload\n        /* \"#utility.yul\":3426:3483   */\n      tag_253\n        /* \"#utility.yul\":3477:3481   */\n      0x20\n        /* \"#utility.yul\":3472:3475   */\n      dup6\n        /* \"#utility.yul\":3468:3482   */\n      add\n        /* \"#utility.yul\":3454:3466   */\n      dup3\n        /* \"#utility.yul\":3426:3483   */\n      tag_183\n      jump\t// in\n    tag_253:\n        /* \"#utility.yul\":3317:3493   */\n      pop\n        /* \"#utility.yul\":3576:3580   */\n      0x40\n        /* \"#utility.yul\":3569:3574   */\n      dup3\n        /* \"#utility.yul\":3565:3581   */\n      add\n        /* \"#utility.yul\":3559:3582   */\n      mload\n        /* \"#utility.yul\":3595:3702   */\n      tag_254\n        /* \"#utility.yul\":3696:3700   */\n      0x40\n        /* \"#utility.yul\":3691:3694   */\n      dup6\n        /* \"#utility.yul\":3687:3701   */\n      add\n        /* \"#utility.yul\":3673:3685   */\n      dup3\n        /* \"#utility.yul\":3595:3702   */\n      tag_184\n      jump\t// in\n    tag_254:\n        /* \"#utility.yul\":3503:3712   */\n      pop\n        /* \"#utility.yul\":3088:3719   */\n      pop\n        /* \"#utility.yul\":2962:3719   */\n      pop\n      pop\n      jump\t// out\n        /* \"#utility.yul\":3725:4068   */\n    tag_17:\n        /* \"#utility.yul\":3878:3882   */\n      0x00\n        /* \"#utility.yul\":3916:3919   */\n      0xe0\n        /* \"#utility.yul\":3905:3914   */\n      dup3\n        /* \"#utility.yul\":3901:3920   */\n      add\n        /* \"#utility.yul\":3893:3920   */\n      swap1\n      pop\n        /* \"#utility.yul\":3930:4061   */\n      tag_256\n        /* \"#utility.yul\":4058:4059   */\n      0x00\n        /* \"#utility.yul\":4047:4056   */\n      dup4\n        /* \"#utility.yul\":4043:4060   */\n      add\n        /* \"#utility.yul\":4034:4040   */\n      dup5\n        /* \"#utility.yul\":3930:4061   */\n      tag_185\n      jump\t// in\n    tag_256:\n        /* \"#utility.yul\":3725:4068   */\n      swap3\n      swap2\n      pop\n      pop\n      jump\t// out\n        /* \"#utility.yul\":4074:4186   */\n    tag_186:\n        /* \"#utility.yul\":4160:4161   */\n      0x02\n        /* \"#utility.yul\":4153:4158   */\n      dup2\n        /* \"#utility.yul\":4150:4162   */\n      lt\n        /* \"#utility.yul\":4140:4180   */\n      tag_258\n      jumpi\n        /* \"#utility.yul\":4176:4177   */\n      0x00\n        /* \"#utility.yul\":4173:4174   */\n      dup1\n        /* \"#utility.yul\":4166:4178   */\n      revert\n        /* \"#utility.yul\":4140:4180   */\n    tag_258:\n        /* \"#utility.yul\":4074:4186   */\n      pop\n      jump\t// out\n        /* \"#utility.yul\":4192:4357   */\n    tag_187:\n        /* \"#utility.yul\":4251:4256   */\n      0x00\n        /* \"#utility.yul\":4289:4295   */\n      dup2\n        /* \"#utility.yul\":4276:4296   */\n      calldataload\n        /* \"#utility.yul\":4267:4296   */\n      swap1\n      pop\n        /* \"#utility.yul\":4305:4351   */\n      tag_260\n        /* \"#utility.yul\":4345:4350   */\n      dup2\n        /* \"#utility.yul\":4305:4351   */\n      tag_186\n      jump\t// in\n    tag_260:\n        /* \"#utility.yul\":4192:4357   */\n      swap3\n      swap2\n      pop\n      pop\n      jump\t// out\n        /* \"#utility.yul\":4363:5150   */\n    tag_20:\n        /* \"#utility.yul\":4460:4466   */\n      0x00\n        /* \"#utility.yul\":4468:4474   */\n      dup1\n        /* \"#utility.yul\":4476:4482   */\n      0x00\n        /* \"#utility.yul\":4484:4490   */\n      dup1\n        /* \"#utility.yul\":4533:4536   */\n      0x80\n        /* \"#utility.yul\":4521:4530   */\n      dup6\n        /* \"#utility.yul\":4512:4519   */\n      dup8\n        /* \"#utility.yul\":4508:4531   */\n      sub\n        /* \"#utility.yul\":4504:4537   */\n      slt\n        /* \"#utility.yul\":4501:4621   */\n      iszero\n      tag_262\n      jumpi\n        /* \"#utility.yul\":4540:4619   */\n      tag_263\n      tag_173\n      jump\t// in\n    tag_263:\n        /* \"#utility.yul\":4501:4621   */\n    tag_262:\n        /* \"#utility.yul\":4660:4661   */\n      0x00\n        /* \"#utility.yul\":4685:4738   */\n      tag_264\n        /* \"#utility.yul\":4730:4737   */\n      dup8\n        /* \"#utility.yul\":4721:4727   */\n      dup3\n        /* \"#utility.yul\":4710:4719   */\n      dup9\n        /* \"#utility.yul\":4706:4728   */\n      add\n        /* \"#utility.yul\":4685:4738   */\n      tag_177\n      jump\t// in\n    tag_264:\n        /* \"#utility.yul\":4675:4738   */\n      swap5\n      pop\n        /* \"#utility.yul\":4631:4748   */\n      pop\n        /* \"#utility.yul\":4787:4789   */\n      0x20\n        /* \"#utility.yul\":4813:4865   */\n      tag_265\n        /* \"#utility.yul\":4857:4864   */\n      dup8\n        /* \"#utility.yul\":4848:4854   */\n      dup3\n        /* \"#utility.yul\":4837:4846   */\n      dup9\n        /* \"#utility.yul\":4833:4855   */\n      add\n        /* \"#utility.yul\":4813:4865   */\n      tag_180\n      jump\t// in\n    tag_265:\n        /* \"#utility.yul\":4803:4865   */\n      swap4\n      pop\n        /* \"#utility.yul\":4758:4875   */\n      pop\n        /* \"#utility.yul\":4914:4916   */\n      0x40\n        /* \"#utility.yul\":4940:4992   */\n      tag_266\n        /* \"#utility.yul\":4984:4991   */\n      dup8\n        /* \"#utility.yul\":4975:4981   */\n      dup3\n        /* \"#utility.yul\":4964:4973   */\n      dup9\n        /* \"#utility.yul\":4960:4982   */\n      add\n        /* \"#utility.yul\":4940:4992   */\n      tag_180\n      jump\t// in\n    tag_266:\n        /* \"#utility.yul\":4930:4992   */\n      swap3\n      pop\n        /* \"#utility.yul\":4885:5002   */\n      pop\n        /* \"#utility.yul\":5041:5043   */\n      0x60\n        /* \"#utility.yul\":5067:5133   */\n      tag_267\n        /* \"#utility.yul\":5125:5132   */\n      dup8\n        /* \"#utility.yul\":5116:5122   */\n      dup3\n        /* \"#utility.yul\":5105:5114   */\n      dup9\n        /* \"#utility.yul\":5101:5123   */\n      add\n        /* \"#utility.yul\":5067:5133   */\n      tag_187\n      jump\t// in\n    tag_267:\n        /* \"#utility.yul\":5057:5133   */\n      swap2\n      pop\n        /* \"#utility.yul\":5012:5143   */\n      pop\n        /* \"#utility.yul\":4363:5150   */\n      swap3\n      swap6\n      swap2\n      swap5\n      pop\n      swap3\n      pop\n      jump\t// out\n        /* \"#utility.yul\":5156:5485   */\n    tag_27:\n        /* \"#utility.yul\":5215:5221   */\n      0x00\n        /* \"#utility.yul\":5264:5266   */\n      0x20\n        /* \"#utility.yul\":5252:5261   */\n      dup3\n        /* \"#utility.yul\":5243:5250   */\n      dup5\n        /* \"#utility.yul\":5239:5262   */\n      sub\n        /* \"#utility.yul\":5235:5267   */\n      slt\n        /* \"#utility.yul\":5232:5351   */\n      iszero\n      tag_269\n      jumpi\n        /* \"#utility.yul\":5270:5349   */\n      tag_270\n      tag_173\n      jump\t// in\n    tag_270:\n        /* \"#utility.yul\":5232:5351   */\n    tag_269:\n        /* \"#utility.yul\":5390:5391   */\n      0x00\n        /* \"#utility.yul\":5415:5468   */\n      tag_271\n        /* \"#utility.yul\":5460:5467   */\n      dup5\n        /* \"#utility.yul\":5451:5457   */\n      dup3\n        /* \"#utility.yul\":5440:5449   */\n      dup6\n        /* \"#utility.yul\":5436:5458   */\n      add\n        /* \"#utility.yul\":5415:5468   */\n      tag_177\n      jump\t// in\n    tag_271:\n        /* \"#utility.yul\":5405:5468   */\n      swap2\n      pop\n        /* \"#utility.yul\":5361:5478   */\n      pop\n        /* \"#utility.yul\":5156:5485   */\n      swap3\n      swap2\n      pop\n      pop\n      jump\t// out\n        /* \"#utility.yul\":5491:5635   */\n    tag_188:\n        /* \"#utility.yul\":5588:5594   */\n      0x00\n        /* \"#utility.yul\":5622:5627   */\n      dup2\n        /* \"#utility.yul\":5616:5628   */\n      mload\n        /* \"#utility.yul\":5606:5628   */\n      swap1\n      pop\n        /* \"#utility.yul\":5491:5635   */\n      swap2\n      swap1\n      pop\n      jump\t// out\n        /* \"#utility.yul\":5641:5855   */\n    tag_189:\n        /* \"#utility.yul\":5770:5781   */\n      0x00\n        /* \"#utility.yul\":5804:5810   */\n      dup3\n        /* \"#utility.yul\":5799:5802   */\n      dup3\n        /* \"#utility.yul\":5792:5811   */\n      mstore\n        /* \"#utility.yul\":5844:5848   */\n      0x20\n        /* \"#utility.yul\":5839:5842   */\n      dup3\n        /* \"#utility.yul\":5835:5849   */\n      add\n        /* \"#utility.yul\":5820:5849   */\n      swap1\n      pop\n        /* \"#utility.yul\":5641:5855   */\n      swap3\n      swap2\n      pop\n      pop\n      jump\t// out\n        /* \"#utility.yul\":5861:6023   */\n    tag_190:\n        /* \"#utility.yul\":5958:5962   */\n      0x00\n        /* \"#utility.yul\":5981:5984   */\n      dup2\n        /* \"#utility.yul\":5973:5984   */\n      swap1\n      pop\n        /* \"#utility.yul\":6011:6015   */\n      0x20\n        /* \"#utility.yul\":6006:6009   */\n      dup3\n        /* \"#utility.yul\":6002:6016   */\n      add\n        /* \"#utility.yul\":5994:6016   */\n      swap1\n      pop\n        /* \"#utility.yul\":5861:6023   */\n      swap2\n      swap1\n      pop\n      jump\t// out\n        /* \"#utility.yul\":6081:6828   */\n    tag_191:\n        /* \"#utility.yul\":6228:6232   */\n      0xe0\n        /* \"#utility.yul\":6223:6226   */\n      dup3\n        /* \"#utility.yul\":6219:6233   */\n      add\n        /* \"#utility.yul\":6326:6330   */\n      0x00\n        /* \"#utility.yul\":6319:6324   */\n      dup3\n        /* \"#utility.yul\":6315:6331   */\n      add\n        /* \"#utility.yul\":6309:6332   */\n      mload\n        /* \"#utility.yul\":6345:6406   */\n      tag_276\n        /* \"#utility.yul\":6400:6404   */\n      0x00\n        /* \"#utility.yul\":6395:6398   */\n      dup6\n        /* \"#utility.yul\":6391:6405   */\n      add\n        /* \"#utility.yul\":6377:6389   */\n      dup3\n        /* \"#utility.yul\":6345:6406   */\n      tag_181\n      jump\t// in\n    tag_276:\n        /* \"#utility.yul\":6243:6416   */\n      pop\n        /* \"#utility.yul\":6516:6520   */\n      0x20\n        /* \"#utility.yul\":6509:6514   */\n      dup3\n        /* \"#utility.yul\":6505:6521   */\n      add\n        /* \"#utility.yul\":6499:6522   */\n      mload\n        /* \"#utility.yul\":6535:6592   */\n      tag_277\n        /* \"#utility.yul\":6586:6590   */\n      0x20\n        /* \"#utility.yul\":6581:6584   */\n      dup6\n        /* \"#utility.yul\":6577:6591   */\n      add\n        /* \"#utility.yul\":6563:6575   */\n      dup3\n        /* \"#utility.yul\":6535:6592   */\n      tag_183\n      jump\t// in\n    tag_277:\n        /* \"#utility.yul\":6426:6602   */\n      pop\n        /* \"#utility.yul\":6685:6689   */\n      0x40\n        /* \"#utility.yul\":6678:6683   */\n      dup3\n        /* \"#utility.yul\":6674:6690   */\n      add\n        /* \"#utility.yul\":6668:6691   */\n      mload\n        /* \"#utility.yul\":6704:6811   */\n      tag_278\n        /* \"#utility.yul\":6805:6809   */\n      0x40\n        /* \"#utility.yul\":6800:6803   */\n      dup6\n        /* \"#utility.yul\":6796:6810   */\n      add\n        /* \"#utility.yul\":6782:6794   */\n      dup3\n        /* \"#utility.yul\":6704:6811   */\n      tag_184\n      jump\t// in\n    tag_278:\n        /* \"#utility.yul\":6612:6821   */\n      pop\n        /* \"#utility.yul\":6197:6828   */\n      pop\n        /* \"#utility.yul\":6081:6828   */\n      pop\n      pop\n      jump\t// out\n        /* \"#utility.yul\":6834:7133   */\n    tag_192:\n        /* \"#utility.yul\":6963:6973   */\n      0x00\n        /* \"#utility.yul\":6984:7090   */\n      tag_280\n        /* \"#utility.yul\":7086:7089   */\n      dup4\n        /* \"#utility.yul\":7078:7084   */\n      dup4\n        /* \"#utility.yul\":6984:7090   */\n      tag_191\n      jump\t// in\n    tag_280:\n        /* \"#utility.yul\":7122:7126   */\n      0xe0\n        /* \"#utility.yul\":7117:7120   */\n      dup4\n        /* \"#utility.yul\":7113:7127   */\n      add\n        /* \"#utility.yul\":7099:7127   */\n      swap1\n      pop\n        /* \"#utility.yul\":6834:7133   */\n      swap3\n      swap2\n      pop\n      pop\n      jump\t// out\n        /* \"#utility.yul\":7139:7282   */\n    tag_193:\n        /* \"#utility.yul\":7239:7243   */\n      0x00\n        /* \"#utility.yul\":7271:7275   */\n      0x20\n        /* \"#utility.yul\":7266:7269   */\n      dup3\n        /* \"#utility.yul\":7262:7276   */\n      add\n        /* \"#utility.yul\":7254:7276   */\n      swap1\n      pop\n        /* \"#utility.yul\":7139:7282   */\n      swap2\n      swap1\n      pop\n      jump\t// out\n        /* \"#utility.yul\":7344:8316   */\n    tag_194:\n        /* \"#utility.yul\":7523:7526   */\n      0x00\n        /* \"#utility.yul\":7552:7636   */\n      tag_283\n        /* \"#utility.yul\":7630:7635   */\n      dup3\n        /* \"#utility.yul\":7552:7636   */\n      tag_188\n      jump\t// in\n    tag_283:\n        /* \"#utility.yul\":7652:7768   */\n      tag_284\n        /* \"#utility.yul\":7761:7767   */\n      dup2\n        /* \"#utility.yul\":7756:7759   */\n      dup6\n        /* \"#utility.yul\":7652:7768   */\n      tag_189\n      jump\t// in\n    tag_284:\n        /* \"#utility.yul\":7645:7768   */\n      swap4\n      pop\n        /* \"#utility.yul\":7792:7878   */\n      tag_285\n        /* \"#utility.yul\":7872:7877   */\n      dup4\n        /* \"#utility.yul\":7792:7878   */\n      tag_190\n      jump\t// in\n    tag_285:\n        /* \"#utility.yul\":7901:7908   */\n      dup1\n        /* \"#utility.yul\":7932:7933   */\n      0x00\n        /* \"#utility.yul\":7917:8291   */\n    tag_286:\n        /* \"#utility.yul\":7942:7948   */\n      dup4\n        /* \"#utility.yul\":7939:7940   */\n      dup2\n        /* \"#utility.yul\":7936:7949   */\n      lt\n        /* \"#utility.yul\":7917:8291   */\n      iszero\n      tag_288\n      jumpi\n        /* \"#utility.yul\":8018:8024   */\n      dup2\n        /* \"#utility.yul\":8012:8025   */\n      mload\n        /* \"#utility.yul\":8045:8168   */\n      tag_289\n        /* \"#utility.yul\":8164:8167   */\n      dup9\n        /* \"#utility.yul\":8149:8162   */\n      dup3\n        /* \"#utility.yul\":8045:8168   */\n      tag_192\n      jump\t// in\n    tag_289:\n        /* \"#utility.yul\":8038:8168   */\n      swap8\n      pop\n        /* \"#utility.yul\":8191:8281   */\n      tag_290\n        /* \"#utility.yul\":8274:8280   */\n      dup4\n        /* \"#utility.yul\":8191:8281   */\n      tag_193\n      jump\t// in\n    tag_290:\n        /* \"#utility.yul\":8181:8281   */\n      swap3\n      pop\n        /* \"#utility.yul\":7977:8291   */\n      pop\n        /* \"#utility.yul\":7964:7965   */\n      0x01\n        /* \"#utility.yul\":7961:7962   */\n      dup2\n        /* \"#utility.yul\":7957:7966   */\n      add\n        /* \"#utility.yul\":7952:7966   */\n      swap1\n      pop\n        /* \"#utility.yul\":7917:8291   */\n      jump(tag_286)\n    tag_288:\n        /* \"#utility.yul\":7921:7935   */\n      pop\n        /* \"#utility.yul\":8307:8310   */\n      dup6\n        /* \"#utility.yul\":8300:8310   */\n      swap4\n      pop\n        /* \"#utility.yul\":7528:8316   */\n      pop\n      pop\n      pop\n        /* \"#utility.yul\":7344:8316   */\n      swap3\n      swap2\n      pop\n      pop\n      jump\t// out\n        /* \"#utility.yul\":8322:8815   */\n    tag_30:\n        /* \"#utility.yul\":8525:8529   */\n      0x00\n        /* \"#utility.yul\":8563:8565   */\n      0x20\n        /* \"#utility.yul\":8552:8561   */\n      dup3\n        /* \"#utility.yul\":8548:8566   */\n      add\n        /* \"#utility.yul\":8540:8566   */\n      swap1\n      pop\n        /* \"#utility.yul\":8612:8621   */\n      dup2\n        /* \"#utility.yul\":8606:8610   */\n      dup2\n        /* \"#utility.yul\":8602:8622   */\n      sub\n        /* \"#utility.yul\":8598:8599   */\n      0x00\n        /* \"#utility.yul\":8587:8596   */\n      dup4\n        /* \"#utility.yul\":8583:8600   */\n      add\n        /* \"#utility.yul\":8576:8623   */\n      mstore\n        /* \"#utility.yul\":8640:8808   */\n      tag_292\n        /* \"#utility.yul\":8803:8807   */\n      dup2\n        /* \"#utility.yul\":8794:8800   */\n      dup5\n        /* \"#utility.yul\":8640:8808   */\n      tag_194\n      jump\t// in\n    tag_292:\n        /* \"#utility.yul\":8632:8808   */\n      swap1\n      pop\n        /* \"#utility.yul\":8322:8815   */\n      swap3\n      swap2\n      pop\n      pop\n      jump\t// out\n        /* \"#utility.yul\":8821:8947   */\n    tag_195:\n        /* \"#utility.yul\":8858:8865   */\n      0x00\n        /* \"#utility.yul\":8898:8940   */\n      0xffffffffffffffffffffffffffffffffffffffff\n        /* \"#utility.yul\":8891:8896   */\n      dup3\n        /* \"#utility.yul\":8887:8941   */\n      and\n        /* \"#utility.yul\":8876:8941   */\n      swap1\n      pop\n        /* \"#utility.yul\":8821:8947   */\n      swap2\n      swap1\n      pop\n      jump\t// out\n        /* \"#utility.yul\":8953:9049   */\n    tag_196:\n        /* \"#utility.yul\":8990:8997   */\n      0x00\n        /* \"#utility.yul\":9019:9043   */\n      tag_295\n        /* \"#utility.yul\":9037:9042   */\n      dup3\n        /* \"#utility.yul\":9019:9043   */\n      tag_195\n      jump\t// in\n    tag_295:\n        /* \"#utility.yul\":9008:9043   */\n      swap1\n      pop\n        /* \"#utility.yul\":8953:9049   */\n      swap2\n      swap1\n      pop\n      jump\t// out\n        /* \"#utility.yul\":9055:9177   */\n    tag_197:\n        /* \"#utility.yul\":9128:9152   */\n      tag_297\n        /* \"#utility.yul\":9146:9151   */\n      dup2\n        /* \"#utility.yul\":9128:9152   */\n      tag_196\n      jump\t// in\n    tag_297:\n        /* \"#utility.yul\":9121:9126   */\n      dup2\n        /* \"#utility.yul\":9118:9153   */\n      eq\n        /* \"#utility.yul\":9108:9171   */\n      tag_298\n      jumpi\n        /* \"#utility.yul\":9167:9168   */\n      0x00\n        /* \"#utility.yul\":9164:9165   */\n      dup1\n        /* \"#utility.yul\":9157:9169   */\n      revert\n        /* \"#utility.yul\":9108:9171   */\n    tag_298:\n        /* \"#utility.yul\":9055:9177   */\n      pop\n      jump\t// out\n        /* \"#utility.yul\":9183:9322   */\n    tag_198:\n        /* \"#utility.yul\":9229:9234   */\n      0x00\n        /* \"#utility.yul\":9267:9273   */\n      dup2\n        /* \"#utility.yul\":9254:9274   */\n      calldataload\n        /* \"#utility.yul\":9245:9274   */\n      swap1\n      pop\n        /* \"#utility.yul\":9283:9316   */\n      tag_300\n        /* \"#utility.yul\":9310:9315   */\n      dup2\n        /* \"#utility.yul\":9283:9316   */\n      tag_197\n      jump\t// in\n    tag_300:\n        /* \"#utility.yul\":9183:9322   */\n      swap3\n      swap2\n      pop\n      pop\n      jump\t// out\n        /* \"#utility.yul\":9328:9657   */\n    tag_33:\n        /* \"#utility.yul\":9387:9393   */\n      0x00\n        /* \"#utility.yul\":9436:9438   */\n      0x20\n        /* \"#utility.yul\":9424:9433   */\n      dup3\n        /* \"#utility.yul\":9415:9422   */\n      dup5\n        /* \"#utility.yul\":9411:9434   */\n      sub\n        /* \"#utility.yul\":9407:9439   */\n      slt\n        /* \"#utility.yul\":9404:9523   */\n      iszero\n      tag_302\n      jumpi\n        /* \"#utility.yul\":9442:9521   */\n      tag_303\n      tag_173\n      jump\t// in\n    tag_303:\n        /* \"#utility.yul\":9404:9523   */\n    tag_302:\n        /* \"#utility.yul\":9562:9563   */\n      0x00\n        /* \"#utility.yul\":9587:9640   */\n      tag_304\n        /* \"#utility.yul\":9632:9639   */\n      dup5\n        /* \"#utility.yul\":9623:9629   */\n      dup3\n        /* \"#utility.yul\":9612:9621   */\n      dup6\n        /* \"#utility.yul\":9608:9630   */\n      add\n        /* \"#utility.yul\":9587:9640   */\n      tag_198\n      jump\t// in\n    tag_304:\n        /* \"#utility.yul\":9577:9640   */\n      swap2\n      pop\n        /* \"#utility.yul\":9533:9650   */\n      pop\n        /* \"#utility.yul\":9328:9657   */\n      swap3\n      swap2\n      pop\n      pop\n      jump\t// out\n        /* \"#utility.yul\":9663:9990   */\n    tag_37:\n        /* \"#utility.yul\":9721:9727   */\n      0x00\n        /* \"#utility.yul\":9770:9772   */\n      0x20\n        /* \"#utility.yul\":9758:9767   */\n      dup3\n        /* \"#utility.yul\":9749:9756   */\n      dup5\n        /* \"#utility.yul\":9745:9768   */\n      sub\n        /* \"#utility.yul\":9741:9773   */\n      slt\n        /* \"#utility.yul\":9738:9857   */\n      iszero\n      tag_306\n      jumpi\n        /* \"#utility.yul\":9776:9855   */\n      tag_307\n      tag_173\n      jump\t// in\n    tag_307:\n        /* \"#utility.yul\":9738:9857   */\n    tag_306:\n        /* \"#utility.yul\":9896:9897   */\n      0x00\n        /* \"#utility.yul\":9921:9973   */\n      tag_308\n        /* \"#utility.yul\":9965:9972   */\n      dup5\n        /* \"#utility.yul\":9956:9962   */\n      dup3\n        /* \"#utility.yul\":9945:9954   */\n      dup6\n        /* \"#utility.yul\":9941:9963   */\n      add\n        /* \"#utility.yul\":9921:9973   */\n      tag_180\n      jump\t// in\n    tag_308:\n        /* \"#utility.yul\":9911:9973   */\n      swap2\n      pop\n        /* \"#utility.yul\":9867:9983   */\n      pop\n        /* \"#utility.yul\":9663:9990   */\n      swap3\n      swap2\n      pop\n      pop\n      jump\t// out\n        /* \"#utility.yul\":9996:10114   */\n    tag_199:\n        /* \"#utility.yul\":10083:10107   */\n      tag_310\n        /* \"#utility.yul\":10101:10106   */\n      dup2\n        /* \"#utility.yul\":10083:10107   */\n      tag_196\n      jump\t// in\n    tag_310:\n        /* \"#utility.yul\":10078:10081   */\n      dup3\n        /* \"#utility.yul\":10071:10108   */\n      mstore\n        /* \"#utility.yul\":9996:10114   */\n      pop\n      pop\n      jump\t// out\n        /* \"#utility.yul\":10120:10342   */\n    tag_40:\n        /* \"#utility.yul\":10213:10217   */\n      0x00\n        /* \"#utility.yul\":10251:10253   */\n      0x20\n        /* \"#utility.yul\":10240:10249   */\n      dup3\n        /* \"#utility.yul\":10236:10254   */\n      add\n        /* \"#utility.yul\":10228:10254   */\n      swap1\n      pop\n        /* \"#utility.yul\":10264:10335   */\n      tag_312\n        /* \"#utility.yul\":10332:10333   */\n      0x00\n        /* \"#utility.yul\":10321:10330   */\n      dup4\n        /* \"#utility.yul\":10317:10334   */\n      add\n        /* \"#utility.yul\":10308:10314   */\n      dup5\n        /* \"#utility.yul\":10264:10335   */\n      tag_199\n      jump\t// in\n    tag_312:\n        /* \"#utility.yul\":10120:10342   */\n      swap3\n      swap2\n      pop\n      pop\n      jump\t// out\n        /* \"#utility.yul\":10348:10517   */\n    tag_200:\n        /* \"#utility.yul\":10432:10443   */\n      0x00\n        /* \"#utility.yul\":10466:10472   */\n      dup3\n        /* \"#utility.yul\":10461:10464   */\n      dup3\n        /* \"#utility.yul\":10454:10473   */\n      mstore\n        /* \"#utility.yul\":10506:10510   */\n      0x20\n        /* \"#utility.yul\":10501:10504   */\n      dup3\n        /* \"#utility.yul\":10497:10511   */\n      add\n        /* \"#utility.yul\":10482:10511   */\n      swap1\n      pop\n        /* \"#utility.yul\":10348:10517   */\n      swap3\n      swap2\n      pop\n      pop\n      jump\t// out\n        /* \"#utility.yul\":10523:10766   */\n    tag_201:\n        /* \"#utility.yul\":10663:10697   */\n      0x4f6e6c792073656d6573746572206d616e6167656d656e7420636f6e74726163\n        /* \"#utility.yul\":10659:10660   */\n      0x00\n        /* \"#utility.yul\":10651:10657   */\n      dup3\n        /* \"#utility.yul\":10647:10661   */\n      add\n        /* \"#utility.yul\":10640:10698   */\n      mstore\n        /* \"#utility.yul\":10732:10758   */\n      0x742063616e2063616c6c20746869732066756e6374696f6e0000000000000000\n        /* \"#utility.yul\":10727:10729   */\n      0x20\n        /* \"#utility.yul\":10719:10725   */\n      dup3\n        /* \"#utility.yul\":10715:10730   */\n      add\n        /* \"#utility.yul\":10708:10759   */\n      mstore\n        /* \"#utility.yul\":10523:10766   */\n      pop\n      jump\t// out\n        /* \"#utility.yul\":10772:11138   */\n    tag_202:\n        /* \"#utility.yul\":10914:10917   */\n      0x00\n        /* \"#utility.yul\":10935:11002   */\n      tag_316\n        /* \"#utility.yul\":10999:11001   */\n      0x38\n        /* \"#utility.yul\":10994:10997   */\n      dup4\n        /* \"#utility.yul\":10935:11002   */\n      tag_200\n      jump\t// in\n    tag_316:\n        /* \"#utility.yul\":10928:11002   */\n      swap2\n      pop\n        /* \"#utility.yul\":11011:11104   */\n      tag_317\n        /* \"#utility.yul\":11100:11103   */\n      dup3\n        /* \"#utility.yul\":11011:11104   */\n      tag_201\n      jump\t// in\n    tag_317:\n        /* \"#utility.yul\":11129:11131   */\n      0x40\n        /* \"#utility.yul\":11124:11127   */\n      dup3\n        /* \"#utility.yul\":11120:11132   */\n      add\n        /* \"#utility.yul\":11113:11132   */\n      swap1\n      pop\n        /* \"#utility.yul\":10772:11138   */\n      swap2\n      swap1\n      pop\n      jump\t// out\n        /* \"#utility.yul\":11144:11563   */\n    tag_53:\n        /* \"#utility.yul\":11310:11314   */\n      0x00\n        /* \"#utility.yul\":11348:11350   */\n      0x20\n        /* \"#utility.yul\":11337:11346   */\n      dup3\n        /* \"#utility.yul\":11333:11351   */\n      add\n        /* \"#utility.yul\":11325:11351   */\n      swap1\n      pop\n        /* \"#utility.yul\":11397:11406   */\n      dup2\n        /* \"#utility.yul\":11391:11395   */\n      dup2\n        /* \"#utility.yul\":11387:11407   */\n      sub\n        /* \"#utility.yul\":11383:11384   */\n      0x00\n        /* \"#utility.yul\":11372:11381   */\n      dup4\n        /* \"#utility.yul\":11368:11385   */\n      add\n        /* \"#utility.yul\":11361:11408   */\n      mstore\n        /* \"#utility.yul\":11425:11556   */\n      tag_319\n        /* \"#utility.yul\":11551:11555   */\n      dup2\n        /* \"#utility.yul\":11425:11556   */\n      tag_202\n      jump\t// in\n    tag_319:\n        /* \"#utility.yul\":11417:11556   */\n      swap1\n      pop\n        /* \"#utility.yul\":11144:11563   */\n      swap2\n      swap1\n      pop\n      jump\t// out\n        /* \"#utility.yul\":11569:11801   */\n    tag_203:\n        /* \"#utility.yul\":11709:11743   */\n      0x4f6e6c792061737369676e656420746561636865722063616e20706572666f72\n        /* \"#utility.yul\":11705:11706   */\n      0x00\n        /* \"#utility.yul\":11697:11703   */\n      dup3\n        /* \"#utility.yul\":11693:11707   */\n      add\n        /* \"#utility.yul\":11686:11744   */\n      mstore\n        /* \"#utility.yul\":11778:11793   */\n      0x6d207468697320616374696f6e00000000000000000000000000000000000000\n        /* \"#utility.yul\":11773:11775   */\n      0x20\n        /* \"#utility.yul\":11765:11771   */\n      dup3\n        /* \"#utility.yul\":11761:11776   */\n      add\n        /* \"#utility.yul\":11754:11794   */\n      mstore\n        /* \"#utility.yul\":11569:11801   */\n      pop\n      jump\t// out\n        /* \"#utility.yul\":11807:12173   */\n    tag_204:\n        /* \"#utility.yul\":11949:11952   */\n      0x00\n        /* \"#utility.yul\":11970:12037   */\n      tag_322\n        /* \"#utility.yul\":12034:12036   */\n      0x2d\n        /* \"#utility.yul\":12029:12032   */\n      dup4\n        /* \"#utility.yul\":11970:12037   */\n      tag_200\n      jump\t// in\n    tag_322:\n        /* \"#utility.yul\":11963:12037   */\n      swap2\n      pop\n        /* \"#utility.yul\":12046:12139   */\n      tag_323\n        /* \"#utility.yul\":12135:12138   */\n      dup3\n        /* \"#utility.yul\":12046:12139   */\n      tag_203\n      jump\t// in\n    tag_323:\n        /* \"#utility.yul\":12164:12166   */\n      0x40\n        /* \"#utility.yul\":12159:12162   */\n      dup3\n        /* \"#utility.yul\":12155:12167   */\n      add\n        /* \"#utility.yul\":12148:12167   */\n      swap1\n      pop\n        /* \"#utility.yul\":11807:12173   */\n      swap2\n      swap1\n      pop\n      jump\t// out\n        /* \"#utility.yul\":12179:12598   */\n    tag_58:\n        /* \"#utility.yul\":12345:12349   */\n      0x00\n        /* \"#utility.yul\":12383:12385   */\n      0x20\n        /* \"#utility.yul\":12372:12381   */\n      dup3\n        /* \"#utility.yul\":12368:12386   */\n      add\n        /* \"#utility.yul\":12360:12386   */\n      swap1\n      pop\n        /* \"#utility.yul\":12432:12441   */\n      dup2\n        /* \"#utility.yul\":12426:12430   */\n      dup2\n        /* \"#utility.yul\":12422:12442   */\n      sub\n        /* \"#utility.yul\":12418:12419   */\n      0x00\n        /* \"#utility.yul\":12407:12416   */\n      dup4\n        /* \"#utility.yul\":12403:12420   */\n      add\n        /* \"#utility.yul\":12396:12443   */\n      mstore\n        /* \"#utility.yul\":12460:12591   */\n      tag_325\n        /* \"#utility.yul\":12586:12590   */\n      dup2\n        /* \"#utility.yul\":12460:12591   */\n      tag_204\n      jump\t// in\n    tag_325:\n        /* \"#utility.yul\":12452:12591   */\n      swap1\n      pop\n        /* \"#utility.yul\":12179:12598   */\n      swap2\n      swap1\n      pop\n      jump\t// out\n        /* \"#utility.yul\":12604:12775   */\n    tag_205:\n        /* \"#utility.yul\":12744:12767   */\n      0x436f75727365206e6f7420657869737465642021210000000000000000000000\n        /* \"#utility.yul\":12740:12741   */\n      0x00\n        /* \"#utility.yul\":12732:12738   */\n      dup3\n        /* \"#utility.yul\":12728:12742   */\n      add\n        /* \"#utility.yul\":12721:12768   */\n      mstore\n        /* \"#utility.yul\":12604:12775   */\n      pop\n      jump\t// out\n        /* \"#utility.yul\":12781:13147   */\n    tag_206:\n        /* \"#utility.yul\":12923:12926   */\n      0x00\n        /* \"#utility.yul\":12944:13011   */\n      tag_328\n        /* \"#utility.yul\":13008:13010   */\n      0x15\n        /* \"#utility.yul\":13003:13006   */\n      dup4\n        /* \"#utility.yul\":12944:13011   */\n      tag_200\n      jump\t// in\n    tag_328:\n        /* \"#utility.yul\":12937:13011   */\n      swap2\n      pop\n        /* \"#utility.yul\":13020:13113   */\n      tag_329\n        /* \"#utility.yul\":13109:13112   */\n      dup3\n        /* \"#utility.yul\":13020:13113   */\n      tag_205\n      jump\t// in\n    tag_329:\n        /* \"#utility.yul\":13138:13140   */\n      0x20\n        /* \"#utility.yul\":13133:13136   */\n      dup3\n        /* \"#utility.yul\":13129:13141   */\n      add\n        /* \"#utility.yul\":13122:13141   */\n      swap1\n      pop\n        /* \"#utility.yul\":12781:13147   */\n      swap2\n      swap1\n      pop\n      jump\t// out\n        /* \"#utility.yul\":13153:13572   */\n    tag_62:\n        /* \"#utility.yul\":13319:13323   */\n      0x00\n        /* \"#utility.yul\":13357:13359   */\n      0x20\n        /* \"#utility.yul\":13346:13355   */\n      dup3\n        /* \"#utility.yul\":13342:13360   */\n      add\n        /* \"#utility.yul\":13334:13360   */\n      swap1\n      pop\n        /* \"#utility.yul\":13406:13415   */\n      dup2\n        /* \"#utility.yul\":13400:13404   */\n      dup2\n        /* \"#utility.yul\":13396:13416   */\n      sub\n        /* \"#utility.yul\":13392:13393   */\n      0x00\n        /* \"#utility.yul\":13381:13390   */\n      dup4\n        /* \"#utility.yul\":13377:13394   */\n      add\n        /* \"#utility.yul\":13370:13417   */\n      mstore\n        /* \"#utility.yul\":13434:13565   */\n      tag_331\n        /* \"#utility.yul\":13560:13564   */\n      dup2\n        /* \"#utility.yul\":13434:13565   */\n      tag_206\n      jump\t// in\n    tag_331:\n        /* \"#utility.yul\":13426:13565   */\n      swap1\n      pop\n        /* \"#utility.yul\":13153:13572   */\n      swap2\n      swap1\n      pop\n      jump\t// out\n        /* \"#utility.yul\":13578:13758   */\n    tag_207:\n        /* \"#utility.yul\":13718:13750   */\n      0x53636f7265206e6f74206578697374656420696e20636f757273652021210000\n        /* \"#utility.yul\":13714:13715   */\n      0x00\n        /* \"#utility.yul\":13706:13712   */\n      dup3\n        /* \"#utility.yul\":13702:13716   */\n      add\n        /* \"#utility.yul\":13695:13751   */\n      mstore\n        /* \"#utility.yul\":13578:13758   */\n      pop\n      jump\t// out\n        /* \"#utility.yul\":13764:14130   */\n    tag_208:\n        /* \"#utility.yul\":13906:13909   */\n      0x00\n        /* \"#utility.yul\":13927:13994   */\n      tag_334\n        /* \"#utility.yul\":13991:13993   */\n      0x1e\n        /* \"#utility.yul\":13986:13989   */\n      dup4\n        /* \"#utility.yul\":13927:13994   */\n      tag_200\n      jump\t// in\n    tag_334:\n        /* \"#utility.yul\":13920:13994   */\n      swap2\n      pop\n        /* \"#utility.yul\":14003:14096   */\n      tag_335\n        /* \"#utility.yul\":14092:14095   */\n      dup3\n        /* \"#utility.yul\":14003:14096   */\n      tag_207\n      jump\t// in\n    tag_335:\n        /* \"#utility.yul\":14121:14123   */\n      0x20\n        /* \"#utility.yul\":14116:14119   */\n      dup3\n        /* \"#utility.yul\":14112:14124   */\n      add\n        /* \"#utility.yul\":14105:14124   */\n      swap1\n      pop\n        /* \"#utility.yul\":13764:14130   */\n      swap2\n      swap1\n      pop\n      jump\t// out\n        /* \"#utility.yul\":14136:14555   */\n    tag_67:\n        /* \"#utility.yul\":14302:14306   */\n      0x00\n        /* \"#utility.yul\":14340:14342   */\n      0x20\n        /* \"#utility.yul\":14329:14338   */\n      dup3\n        /* \"#utility.yul\":14325:14343   */\n      add\n        /* \"#utility.yul\":14317:14343   */\n      swap1\n      pop\n        /* \"#utility.yul\":14389:14398   */\n      dup2\n        /* \"#utility.yul\":14383:14387   */\n      dup2\n        /* \"#utility.yul\":14379:14399   */\n      sub\n        /* \"#utility.yul\":14375:14376   */\n      0x00\n        /* \"#utility.yul\":14364:14373   */\n      dup4\n        /* \"#utility.yul\":14360:14377   */\n      add\n        /* \"#utility.yul\":14353:14400   */\n      mstore\n        /* \"#utility.yul\":14417:14548   */\n      tag_337\n        /* \"#utility.yul\":14543:14547   */\n      dup2\n        /* \"#utility.yul\":14417:14548   */\n      tag_208\n      jump\t// in\n    tag_337:\n        /* \"#utility.yul\":14409:14548   */\n      swap1\n      pop\n        /* \"#utility.yul\":14136:14555   */\n      swap2\n      swap1\n      pop\n      jump\t// out\n        /* \"#utility.yul\":14561:14856   */\n    tag_209:\n        /* \"#utility.yul\":14701:14735   */\n      0x53636f7265206e6f742076616c69642c206d7573742062652030206f72206265\n        /* \"#utility.yul\":14697:14698   */\n      0x00\n        /* \"#utility.yul\":14689:14695   */\n      dup3\n        /* \"#utility.yul\":14685:14699   */\n      add\n        /* \"#utility.yul\":14678:14736   */\n      mstore\n        /* \"#utility.yul\":14770:14804   */\n      0x747765656e2031303020616e64203939392c20616e6420646976697369626c65\n        /* \"#utility.yul\":14765:14767   */\n      0x20\n        /* \"#utility.yul\":14757:14763   */\n      dup3\n        /* \"#utility.yul\":14753:14768   */\n      add\n        /* \"#utility.yul\":14746:14805   */\n      mstore\n        /* \"#utility.yul\":14839:14848   */\n      0x2062792031302100000000000000000000000000000000000000000000000000\n        /* \"#utility.yul\":14834:14836   */\n      0x40\n        /* \"#utility.yul\":14826:14832   */\n      dup3\n        /* \"#utility.yul\":14822:14837   */\n      add\n        /* \"#utility.yul\":14815:14849   */\n      mstore\n        /* \"#utility.yul\":14561:14856   */\n      pop\n      jump\t// out\n        /* \"#utility.yul\":14862:15228   */\n    tag_210:\n        /* \"#utility.yul\":15004:15007   */\n      0x00\n        /* \"#utility.yul\":15025:15092   */\n      tag_340\n        /* \"#utility.yul\":15089:15091   */\n      0x47\n        /* \"#utility.yul\":15084:15087   */\n      dup4\n        /* \"#utility.yul\":15025:15092   */\n      tag_200\n      jump\t// in\n    tag_340:\n        /* \"#utility.yul\":15018:15092   */\n      swap2\n      pop\n        /* \"#utility.yul\":15101:15194   */\n      tag_341\n        /* \"#utility.yul\":15190:15193   */\n      dup3\n        /* \"#utility.yul\":15101:15194   */\n      tag_209\n      jump\t// in\n    tag_341:\n        /* \"#utility.yul\":15219:15221   */\n      0x60\n        /* \"#utility.yul\":15214:15217   */\n      dup3\n        /* \"#utility.yul\":15210:15222   */\n      add\n        /* \"#utility.yul\":15203:15222   */\n      swap1\n      pop\n        /* \"#utility.yul\":14862:15228   */\n      swap2\n      swap1\n      pop\n      jump\t// out\n        /* \"#utility.yul\":15234:15653   */\n    tag_72:\n        /* \"#utility.yul\":15400:15404   */\n      0x00\n        /* \"#utility.yul\":15438:15440   */\n      0x20\n        /* \"#utility.yul\":15427:15436   */\n      dup3\n        /* \"#utility.yul\":15423:15441   */\n      add\n        /* \"#utility.yul\":15415:15441   */\n      swap1\n      pop\n        /* \"#utility.yul\":15487:15496   */\n      dup2\n        /* \"#utility.yul\":15481:15485   */\n      dup2\n        /* \"#utility.yul\":15477:15497   */\n      sub\n        /* \"#utility.yul\":15473:15474   */\n      0x00\n        /* \"#utility.yul\":15462:15471   */\n      dup4\n        /* \"#utility.yul\":15458:15475   */\n      add\n        /* \"#utility.yul\":15451:15498   */\n      mstore\n        /* \"#utility.yul\":15515:15646   */\n      tag_343\n        /* \"#utility.yul\":15641:15645   */\n      dup2\n        /* \"#utility.yul\":15515:15646   */\n      tag_210\n      jump\t// in\n    tag_343:\n        /* \"#utility.yul\":15507:15646   */\n      swap1\n      pop\n        /* \"#utility.yul\":15234:15653   */\n      swap2\n      swap1\n      pop\n      jump\t// out\n        /* \"#utility.yul\":15659:15839   */\n    tag_75:\n        /* \"#utility.yul\":15707:15784   */\n      0x4e487b7100000000000000000000000000000000000000000000000000000000\n        /* \"#utility.yul\":15704:15705   */\n      0x00\n        /* \"#utility.yul\":15697:15785   */\n      mstore\n        /* \"#utility.yul\":15804:15808   */\n      0x21\n        /* \"#utility.yul\":15801:15802   */\n      0x04\n        /* \"#utility.yul\":15794:15809   */\n      mstore\n        /* \"#utility.yul\":15828:15832   */\n      0x24\n        /* \"#utility.yul\":15825:15826   */\n      0x00\n        /* \"#utility.yul\":15818:15833   */\n      revert\n        /* \"#utility.yul\":15845:16025   */\n    tag_90:\n        /* \"#utility.yul\":15893:15970   */\n      0x4e487b7100000000000000000000000000000000000000000000000000000000\n        /* \"#utility.yul\":15890:15891   */\n      0x00\n        /* \"#utility.yul\":15883:15971   */\n      mstore\n        /* \"#utility.yul\":15990:15994   */\n      0x32\n        /* \"#utility.yul\":15987:15988   */\n      0x04\n        /* \"#utility.yul\":15980:15995   */\n      mstore\n        /* \"#utility.yul\":16014:16018   */\n      0x24\n        /* \"#utility.yul\":16011:16012   */\n      0x00\n        /* \"#utility.yul\":16004:16019   */\n      revert\n        /* \"#utility.yul\":16031:16211   */\n    tag_211:\n        /* \"#utility.yul\":16079:16156   */\n      0x4e487b7100000000000000000000000000000000000000000000000000000000\n        /* \"#utility.yul\":16076:16077   */\n      0x00\n        /* \"#utility.yul\":16069:16157   */\n      mstore\n        /* \"#utility.yul\":16176:16180   */\n      0x11\n        /* \"#utility.yul\":16173:16174   */\n      0x04\n        /* \"#utility.yul\":16166:16181   */\n      mstore\n        /* \"#utility.yul\":16200:16204   */\n      0x24\n        /* \"#utility.yul\":16197:16198   */\n      0x00\n        /* \"#utility.yul\":16190:16205   */\n      revert\n        /* \"#utility.yul\":16217:16388   */\n    tag_97:\n        /* \"#utility.yul\":16255:16258   */\n      0x00\n        /* \"#utility.yul\":16278:16301   */\n      tag_348\n        /* \"#utility.yul\":16295:16300   */\n      dup3\n        /* \"#utility.yul\":16278:16301   */\n      tag_178\n      jump\t// in\n    tag_348:\n        /* \"#utility.yul\":16269:16301   */\n      swap2\n      pop\n        /* \"#utility.yul\":16323:16329   */\n      0xffff\n        /* \"#utility.yul\":16316:16321   */\n      dup3\n        /* \"#utility.yul\":16313:16330   */\n      sub\n        /* \"#utility.yul\":16310:16353   */\n      tag_349\n      jumpi\n        /* \"#utility.yul\":16333:16351   */\n      tag_350\n      tag_211\n      jump\t// in\n    tag_350:\n        /* \"#utility.yul\":16310:16353   */\n    tag_349:\n        /* \"#utility.yul\":16380:16381   */\n      0x01\n        /* \"#utility.yul\":16373:16378   */\n      dup3\n        /* \"#utility.yul\":16369:16382   */\n      add\n        /* \"#utility.yul\":16362:16382   */\n      swap1\n      pop\n        /* \"#utility.yul\":16217:16388   */\n      swap2\n      swap1\n      pop\n      jump\t// out\n        /* \"#utility.yul\":16394:16618   */\n    tag_212:\n        /* \"#utility.yul\":16534:16568   */\n      0x53636f726520697320616c7265616479206578697374656420696e20636f7572\n        /* \"#utility.yul\":16530:16531   */\n      0x00\n        /* \"#utility.yul\":16522:16528   */\n      dup3\n        /* \"#utility.yul\":16518:16532   */\n      add\n        /* \"#utility.yul\":16511:16569   */\n      mstore\n        /* \"#utility.yul\":16603:16610   */\n      0x7365202121000000000000000000000000000000000000000000000000000000\n        /* \"#utility.yul\":16598:16600   */\n      0x20\n        /* \"#utility.yul\":16590:16596   */\n      dup3\n        /* \"#utility.yul\":16586:16601   */\n      add\n        /* \"#utility.yul\":16579:16611   */\n      mstore\n        /* \"#utility.yul\":16394:16618   */\n      pop\n      jump\t// out\n        /* \"#utility.yul\":16624:16990   */\n    tag_213:\n        /* \"#utility.yul\":16766:16769   */\n      0x00\n        /* \"#utility.yul\":16787:16854   */\n      tag_353\n        /* \"#utility.yul\":16851:16853   */\n      0x25\n        /* \"#utility.yul\":16846:16849   */\n      dup4\n        /* \"#utility.yul\":16787:16854   */\n      tag_200\n      jump\t// in\n    tag_353:\n        /* \"#utility.yul\":16780:16854   */\n      swap2\n      pop\n        /* \"#utility.yul\":16863:16956   */\n      tag_354\n        /* \"#utility.yul\":16952:16955   */\n      dup3\n        /* \"#utility.yul\":16863:16956   */\n      tag_212\n      jump\t// in\n    tag_354:\n        /* \"#utility.yul\":16981:16983   */\n      0x40\n        /* \"#utility.yul\":16976:16979   */\n      dup3\n        /* \"#utility.yul\":16972:16984   */\n      add\n        /* \"#utility.yul\":16965:16984   */\n      swap1\n      pop\n        /* \"#utility.yul\":16624:16990   */\n      swap2\n      swap1\n      pop\n      jump\t// out\n        /* \"#utility.yul\":16996:17415   */\n    tag_112:\n        /* \"#utility.yul\":17162:17166   */\n      0x00\n        /* \"#utility.yul\":17200:17202   */\n      0x20\n        /* \"#utility.yul\":17189:17198   */\n      dup3\n        /* \"#utility.yul\":17185:17203   */\n      add\n        /* \"#utility.yul\":17177:17203   */\n      swap1\n      pop\n        /* \"#utility.yul\":17249:17258   */\n      dup2\n        /* \"#utility.yul\":17243:17247   */\n      dup2\n        /* \"#utility.yul\":17239:17259   */\n      sub\n        /* \"#utility.yul\":17235:17236   */\n      0x00\n        /* \"#utility.yul\":17224:17233   */\n      dup4\n        /* \"#utility.yul\":17220:17237   */\n      add\n        /* \"#utility.yul\":17213:17260   */\n      mstore\n        /* \"#utility.yul\":17277:17408   */\n      tag_356\n        /* \"#utility.yul\":17403:17407   */\n      dup2\n        /* \"#utility.yul\":17277:17408   */\n      tag_213\n      jump\t// in\n    tag_356:\n        /* \"#utility.yul\":17269:17408   */\n      swap1\n      pop\n        /* \"#utility.yul\":16996:17415   */\n      swap2\n      swap1\n      pop\n      jump\t// out\n        /* \"#utility.yul\":17421:17657   */\n    tag_214:\n        /* \"#utility.yul\":17561:17595   */\n      0x4f6e6c792061646d696e2063616e207570646174652073656d6573746572206d\n        /* \"#utility.yul\":17557:17558   */\n      0x00\n        /* \"#utility.yul\":17549:17555   */\n      dup3\n        /* \"#utility.yul\":17545:17559   */\n      add\n        /* \"#utility.yul\":17538:17596   */\n      mstore\n        /* \"#utility.yul\":17630:17649   */\n      0x616e6167656d656e742061646472657373000000000000000000000000000000\n        /* \"#utility.yul\":17625:17627   */\n      0x20\n        /* \"#utility.yul\":17617:17623   */\n      dup3\n        /* \"#utility.yul\":17613:17628   */\n      add\n        /* \"#utility.yul\":17606:17650   */\n      mstore\n        /* \"#utility.yul\":17421:17657   */\n      pop\n      jump\t// out\n        /* \"#utility.yul\":17663:18029   */\n    tag_215:\n        /* \"#utility.yul\":17805:17808   */\n      0x00\n        /* \"#utility.yul\":17826:17893   */\n      tag_359\n        /* \"#utility.yul\":17890:17892   */\n      0x31\n        /* \"#utility.yul\":17885:17888   */\n      dup4\n        /* \"#utility.yul\":17826:17893   */\n      tag_200\n      jump\t// in\n    tag_359:\n        /* \"#utility.yul\":17819:17893   */\n      swap2\n      pop\n        /* \"#utility.yul\":17902:17995   */\n      tag_360\n        /* \"#utility.yul\":17991:17994   */\n      dup3\n        /* \"#utility.yul\":17902:17995   */\n      tag_214\n      jump\t// in\n    tag_360:\n        /* \"#utility.yul\":18020:18022   */\n      0x40\n        /* \"#utility.yul\":18015:18018   */\n      dup3\n        /* \"#utility.yul\":18011:18023   */\n      add\n        /* \"#utility.yul\":18004:18023   */\n      swap1\n      pop\n        /* \"#utility.yul\":17663:18029   */\n      swap2\n      swap1\n      pop\n      jump\t// out\n        /* \"#utility.yul\":18035:18454   */\n    tag_147:\n        /* \"#utility.yul\":18201:18205   */\n      0x00\n        /* \"#utility.yul\":18239:18241   */\n      0x20\n        /* \"#utility.yul\":18228:18237   */\n      dup3\n        /* \"#utility.yul\":18224:18242   */\n      add\n        /* \"#utility.yul\":18216:18242   */\n      swap1\n      pop\n        /* \"#utility.yul\":18288:18297   */\n      dup2\n        /* \"#utility.yul\":18282:18286   */\n      dup2\n        /* \"#utility.yul\":18278:18298   */\n      sub\n        /* \"#utility.yul\":18274:18275   */\n      0x00\n        /* \"#utility.yul\":18263:18272   */\n      dup4\n        /* \"#utility.yul\":18259:18276   */\n      add\n        /* \"#utility.yul\":18252:18299   */\n      mstore\n        /* \"#utility.yul\":18316:18447   */\n      tag_362\n        /* \"#utility.yul\":18442:18446   */\n      dup2\n        /* \"#utility.yul\":18316:18447   */\n      tag_215\n      jump\t// in\n    tag_362:\n        /* \"#utility.yul\":18308:18447   */\n      swap1\n      pop\n        /* \"#utility.yul\":18035:18454   */\n      swap2\n      swap1\n      pop\n      jump\t// out\n        /* \"#utility.yul\":18460:18682   */\n    tag_216:\n        /* \"#utility.yul\":18600:18634   */\n      0x496e76616c69642073656d6573746572206d616e6167656d656e742061646472\n        /* \"#utility.yul\":18596:18597   */\n      0x00\n        /* \"#utility.yul\":18588:18594   */\n      dup3\n        /* \"#utility.yul\":18584:18598   */\n      add\n        /* \"#utility.yul\":18577:18635   */\n      mstore\n        /* \"#utility.yul\":18669:18674   */\n      0x6573730000000000000000000000000000000000000000000000000000000000\n        /* \"#utility.yul\":18664:18666   */\n      0x20\n        /* \"#utility.yul\":18656:18662   */\n      dup3\n        /* \"#utility.yul\":18652:18667   */\n      add\n        /* \"#utility.yul\":18645:18675   */\n      mstore\n        /* \"#utility.yul\":18460:18682   */\n      pop\n      jump\t// out\n        /* \"#utility.yul\":18688:19054   */\n    tag_217:\n        /* \"#utility.yul\":18830:18833   */\n      0x00\n        /* \"#utility.yul\":18851:18918   */\n      tag_365\n        /* \"#utility.yul\":18915:18917   */\n      0x23\n        /* \"#utility.yul\":18910:18913   */\n      dup4\n        /* \"#utility.yul\":18851:18918   */\n      tag_200\n      jump\t// in\n    tag_365:\n        /* \"#utility.yul\":18844:18918   */\n      swap2\n      pop\n        /* \"#utility.yul\":18927:19020   */\n      tag_366\n        /* \"#utility.yul\":19016:19019   */\n      dup3\n        /* \"#utility.yul\":18927:19020   */\n      tag_216\n      jump\t// in\n    tag_366:\n        /* \"#utility.yul\":19045:19047   */\n      0x40\n        /* \"#utility.yul\":19040:19043   */\n      dup3\n        /* \"#utility.yul\":19036:19048   */\n      add\n        /* \"#utility.yul\":19029:19048   */\n      swap1\n      pop\n        /* \"#utility.yul\":18688:19054   */\n      swap2\n      swap1\n      pop\n      jump\t// out\n        /* \"#utility.yul\":19060:19479   */\n    tag_150:\n        /* \"#utility.yul\":19226:19230   */\n      0x00\n        /* \"#utility.yul\":19264:19266   */\n      0x20\n        /* \"#utility.yul\":19253:19262   */\n      dup3\n        /* \"#utility.yul\":19249:19267   */\n      add\n        /* \"#utility.yul\":19241:19267   */\n      swap1\n      pop\n        /* \"#utility.yul\":19313:19322   */\n      dup2\n        /* \"#utility.yul\":19307:19311   */\n      dup2\n        /* \"#utility.yul\":19303:19323   */\n      sub\n        /* \"#utility.yul\":19299:19300   */\n      0x00\n        /* \"#utility.yul\":19288:19297   */\n      dup4\n        /* \"#utility.yul\":19284:19301   */\n      add\n        /* \"#utility.yul\":19277:19324   */\n      mstore\n        /* \"#utility.yul\":19341:19472   */\n      tag_368\n        /* \"#utility.yul\":19467:19471   */\n      dup2\n        /* \"#utility.yul\":19341:19472   */\n      tag_217\n      jump\t// in\n    tag_368:\n        /* \"#utility.yul\":19333:19472   */\n      swap1\n      pop\n        /* \"#utility.yul\":19060:19479   */\n      swap2\n      swap1\n      pop\n      jump\t// out\n        /* \"#utility.yul\":19485:19665   */\n    tag_218:\n        /* \"#utility.yul\":19533:19610   */\n      0x4e487b7100000000000000000000000000000000000000000000000000000000\n        /* \"#utility.yul\":19530:19531   */\n      0x00\n        /* \"#utility.yul\":19523:19611   */\n      mstore\n        /* \"#utility.yul\":19630:19634   */\n      0x12\n        /* \"#utility.yul\":19627:19628   */\n      0x04\n        /* \"#utility.yul\":19620:19635   */\n      mstore\n        /* \"#utility.yul\":19654:19658   */\n      0x24\n        /* \"#utility.yul\":19651:19652   */\n      0x00\n        /* \"#utility.yul\":19644:19659   */\n      revert\n        /* \"#utility.yul\":19671:19844   */\n    tag_169:\n        /* \"#utility.yul\":19702:19703   */\n      0x00\n        /* \"#utility.yul\":19719:19738   */\n      tag_371\n        /* \"#utility.yul\":19736:19737   */\n      dup3\n        /* \"#utility.yul\":19719:19738   */\n      tag_178\n      jump\t// in\n    tag_371:\n        /* \"#utility.yul\":19714:19738   */\n      swap2\n      pop\n        /* \"#utility.yul\":19752:19771   */\n      tag_372\n        /* \"#utility.yul\":19769:19770   */\n      dup4\n        /* \"#utility.yul\":19752:19771   */\n      tag_178\n      jump\t// in\n    tag_372:\n        /* \"#utility.yul\":19747:19771   */\n      swap3\n      pop\n        /* \"#utility.yul\":19790:19791   */\n      dup3\n        /* \"#utility.yul\":19780:19815   */\n      tag_373\n      jumpi\n        /* \"#utility.yul\":19795:19813   */\n      tag_374\n      tag_218\n      jump\t// in\n    tag_374:\n        /* \"#utility.yul\":19780:19815   */\n    tag_373:\n        /* \"#utility.yul\":19836:19837   */\n      dup3\n        /* \"#utility.yul\":19833:19834   */\n      dup3\n        /* \"#utility.yul\":19829:19838   */\n      mod\n        /* \"#utility.yul\":19824:19838   */\n      swap1\n      pop\n        /* \"#utility.yul\":19671:19844   */\n      swap3\n      swap2\n      pop\n      pop\n      jump\t// out\n\n    auxdata: 0xa2646970667358221220f9510710b42f42745eaf8453b1f1ca6f06a2890ee8021e9a6e2587eb8675b07864736f6c634300081a0033\n}\n",
				"bytecode": {
					"linkReferences": {},
					"object": "6080604052348015600e575f80fd5b503360015f6101000a81548173ffffffffffffffffffffffffffffffffffffffff021916908373ffffffffffffffffffffffffffffffffffffffff160217905550611ff48061005c5f395ff3fe608060405234801561000f575f80fd5b5060043610610086575f3560e01c8063369dc9df11610059578063369dc9df146101225780633dd775171461013e5780637f78bc691461016e578063f851a4401461018c57610086565b80630c5f8f021461008a578063218e703d146100ba578063260a5355146100d657806330c17ac0146100f2575b5f80fd5b6100a4600480360381019061009f919061169f565b6101aa565b6040516100b191906117ac565b60405180910390f35b6100d460048036038101906100cf91906117e8565b6102c9565b005b6100f060048036038101906100eb91906117e8565b610850565b005b61010c6004803603810190610107919061184c565b6111ad565b604051610119919061195f565b60405180910390f35b61013c600480360381019061013791906119d9565b6112f6565b005b61015860048036038101906101539190611a04565b611435565b6040516101659190611a3e565b60405180910390f35b610176611476565b6040516101839190611a3e565b60405180910390f35b610194611499565b6040516101a19190611a3e565b60405180910390f35b6101b26115cc565b60035f8481526020019081526020015f205f8361ffff1661ffff1681526020019081526020015f206040518060600160405290815f82015f9054906101000a900461ffff1661ffff1661ffff1681526020015f820160029054906101000a900460ff16151515158152602001600182016040518060a00160405290815f82015f9054906101000a900461ffff1661ffff1661ffff1681526020015f820160029054906101000a900461ffff1661ffff1661ffff1681526020015f820160049054906101000a900461ffff1661ffff1661ffff1681526020015f820160069054906101000a900460ff161515151581526020015f820160079054906101000a900460ff16151515158152505081525050905092915050565b5f8054906101000a900473ffffffffffffffffffffffffffffffffffffffff1673ffffffffffffffffffffffffffffffffffffffff163373ffffffffffffffffffffffffffffffffffffffff1614610356576040517f08c379a000000000000000000000000000000000000000000000000000000000815260040161034d90611ad7565b60405180910390fd5b825f3290505f73ffffffffffffffffffffffffffffffffffffffff1660045f8461ffff1661ffff1681526020019081526020015f205f9054906101000a900473ffffffffffffffffffffffffffffffffffffffff1673ffffffffffffffffffffffffffffffffffffffff16148061043057508073ffffffffffffffffffffffffffffffffffffffff1660045f8461ffff1661ffff1681526020019081526020015f205f9054906101000a900473ffffffffffffffffffffffffffffffffffffffff1673ffffffffffffffffffffffffffffffffffffffff16145b61046f576040517f08c379a000000000000000000000000000000000000000000000000000000000815260040161046690611b65565b60405180910390fd5b60035f8781526020019081526020015f205f8661ffff1661ffff1681526020019081526020015f205f0160029054906101000a900460ff166104e6576040517f08c379a00000000000000000000000000000000000000000000000000000000081526004016104dd90611bcd565b60405180910390fd5b6104f18686856114be565b610530576040517f08c379a000000000000000000000000000000000000000000000000000000000815260040161052790611c35565b60405180910390fd5b61053984611580565b610578576040517f08c379a000000000000000000000000000000000000000000000000000000000815260040161056f90611ce9565b60405180910390fd5b5f60035f8881526020019081526020015f205f8761ffff1661ffff1681526020019081526020015f2090505f60018111156105b6576105b5611d07565b5b8460018111156105c9576105c8611d07565b5b036105f35784816001015f015f6101000a81548161ffff021916908361ffff160217905550610641565b60018081111561060657610605611d07565b5b84600181111561061957610618611d07565b5b036106405784816001015f0160026101000a81548161ffff021916908361ffff1602179055505b5b5f5b60025f8981526020019081526020015f20805490508161ffff161015610846578661ffff1660025f8a81526020019081526020015f208261ffff168154811061068f5761068e611d34565b5b905f5260205f2090600202015f015f9054906101000a900461ffff1661ffff1603610833578160025f8a81526020019081526020015f208261ffff16815481106106dc576106db611d34565b5b905f5260205f2090600202015f82015f9054906101000a900461ffff16815f015f6101000a81548161ffff021916908361ffff1602179055505f820160029054906101000a900460ff16815f0160026101000a81548160ff02191690831515021790555060018201816001015f82015f9054906101000a900461ffff16815f015f6101000a81548161ffff021916908361ffff1602179055505f820160029054906101000a900461ffff16815f0160026101000a81548161ffff021916908361ffff1602179055505f820160049054906101000a900461ffff16815f0160046101000a81548161ffff021916908361ffff1602179055505f820160069054906101000a900460ff16815f0160066101000a81548160ff0219169083151502179055505f820160079054906101000a900460ff16815f0160076101000a81548160ff0219169083151502179055505050905050610846565b808061083e90611d8e565b915050610643565b5050505050505050565b5f8054906101000a900473ffffffffffffffffffffffffffffffffffffffff1673ffffffffffffffffffffffffffffffffffffffff163373ffffffffffffffffffffffffffffffffffffffff16146108dd576040517f08c379a00000000000000000000000000000000000000000000000000000000081526004016108d490611ad7565b60405180910390fd5b825f3290505f73ffffffffffffffffffffffffffffffffffffffff1660045f8461ffff1661ffff1681526020019081526020015f205f9054906101000a900473ffffffffffffffffffffffffffffffffffffffff1673ffffffffffffffffffffffffffffffffffffffff1614806109b757508073ffffffffffffffffffffffffffffffffffffffff1660045f8461ffff1661ffff1681526020019081526020015f205f9054906101000a900473ffffffffffffffffffffffffffffffffffffffff1673ffffffffffffffffffffffffffffffffffffffff16145b6109f6576040517f08c379a00000000000000000000000000000000000000000000000000000000081526004016109ed90611b65565b60405180910390fd5b6109ff84611580565b610a3e576040517f08c379a0000000000000000000000000000000000000000000000000000000008152600401610a3590611ce9565b60405180910390fd5b610a498686856114be565b15610a89576040517f08c379a0000000000000000000000000000000000000000000000000000000008152600401610a8090611e27565b60405180910390fd5b5f73ffffffffffffffffffffffffffffffffffffffff1660045f8761ffff1661ffff1681526020019081526020015f205f9054906101000a900473ffffffffffffffffffffffffffffffffffffffff1673ffffffffffffffffffffffffffffffffffffffff1603610b4c573260045f8761ffff1661ffff1681526020019081526020015f205f6101000a81548173ffffffffffffffffffffffffffffffffffffffff021916908373ffffffffffffffffffffffffffffffffffffffff1602179055505b5f60035f8881526020019081526020015f205f8761ffff1661ffff1681526020019081526020015f2090505f815f0160029054906101000a900460ff16905080610d39576001825f0160026101000a81548160ff02191690831515021790555086825f015f6101000a81548161ffff021916908361ffff1602179055508160035f8a81526020019081526020015f205f8961ffff1661ffff1681526020019081526020015f205f82015f9054906101000a900461ffff16815f015f6101000a81548161ffff021916908361ffff1602179055505f820160029054906101000a900460ff16815f0160026101000a81548160ff02191690831515021790555060018201816001015f82015f9054906101000a900461ffff16815f015f6101000a81548161ffff021916908361ffff1602179055505f820160029054906101000a900461ffff16815f0160026101000a81548161ffff021916908361ffff1602179055505f820160049054906101000a900461ffff16815f0160046101000a81548161ffff021916908361ffff1602179055505f820160069054906101000a900460ff16815f0160066101000a81548160ff0219169083151502179055505f820160079054906101000a900460ff16815f0160076101000a81548160ff02191690831515021790555050509050505b5f6001811115610d4c57610d4b611d07565b5b856001811115610d5f57610d5e611d07565b5b03610da85785826001015f015f6101000a81548161ffff021916908361ffff1602179055506001826001015f0160066101000a81548160ff021916908315150217905550610e15565b600180811115610dbb57610dba611d07565b5b856001811115610dce57610dcd611d07565b5b03610e145785826001015f0160026101000a81548161ffff021916908361ffff1602179055506001826001015f0160076101000a81548160ff0219169083151502179055505b5b80610f9c5760025f8981526020019081526020015f2082908060018154018082558091505060019003905f5260205f2090600202015f909190919091505f82015f9054906101000a900461ffff16815f015f6101000a81548161ffff021916908361ffff1602179055505f820160029054906101000a900460ff16815f0160026101000a81548160ff02191690831515021790555060018201816001015f82015f9054906101000a900461ffff16815f015f6101000a81548161ffff021916908361ffff1602179055505f820160029054906101000a900461ffff16815f0160026101000a81548161ffff021916908361ffff1602179055505f820160049054906101000a900461ffff16815f0160046101000a81548161ffff021916908361ffff1602179055505f820160069054906101000a900460ff16815f0160066101000a81548160ff0219169083151502179055505f820160079054906101000a900460ff16815f0160076101000a81548160ff021916908315150217905550505050506111a3565b5f5b60025f8a81526020019081526020015f20805490508161ffff1610156111a1578761ffff1660025f8b81526020019081526020015f208261ffff1681548110610fea57610fe9611d34565b5b905f5260205f2090600202015f015f9054906101000a900461ffff1661ffff160361118e578260025f8b81526020019081526020015f208261ffff168154811061103757611036611d34565b5b905f5260205f2090600202015f82015f9054906101000a900461ffff16815f015f6101000a81548161ffff021916908361ffff1602179055505f820160029054906101000a900460ff16815f0160026101000a81548160ff02191690831515021790555060018201816001015f82015f9054906101000a900461ffff16815f015f6101000a81548161ffff021916908361ffff1602179055505f820160029054906101000a900461ffff16815f0160026101000a81548161ffff021916908361ffff1602179055505f820160049054906101000a900461ffff16815f0160046101000a81548161ffff021916908361ffff1602179055505f820160069054906101000a900460ff16815f0160066101000a81548160ff0219169083151502179055505f820160079054906101000a900460ff16815f0160076101000a81548160ff02191690831515021790555050509050506111a1565b808061119990611d8e565b915050610f9e565b505b5050505050505050565b606060025f8381526020019081526020015f20805480602002602001604051908101604052809291908181526020015f905b828210156112eb578382905f5260205f2090600202016040518060600160405290815f82015f9054906101000a900461ffff1661ffff1661ffff1681526020015f820160029054906101000a900460ff16151515158152602001600182016040518060a00160405290815f82015f9054906101000a900461ffff1661ffff1661ffff1681526020015f820160029054906101000a900461ffff1661ffff1661ffff1681526020015f820160049054906101000a900461ffff1661ffff1661ffff1681526020015f820160069054906101000a900460ff161515151581526020015f820160079054906101000a900460ff16151515158152505081525050815260200190600101906111df565b505050509050919050565b60015f9054906101000a900473ffffffffffffffffffffffffffffffffffffffff1673ffffffffffffffffffffffffffffffffffffffff163373ffffffffffffffffffffffffffffffffffffffff1614611385576040517f08c379a000000000000000000000000000000000000000000000000000000000815260040161137c90611eb5565b60405180910390fd5b5f73ffffffffffffffffffffffffffffffffffffffff168173ffffffffffffffffffffffffffffffffffffffff16036113f3576040517f08c379a00000000000000000000000000000000000000000000000000000000081526004016113ea90611f43565b60405180910390fd5b805f806101000a81548173ffffffffffffffffffffffffffffffffffffffff021916908373ffffffffffffffffffffffffffffffffffffffff16021790555050565b5f60045f8361ffff1661ffff1681526020019081526020015f205f9054906101000a900473ffffffffffffffffffffffffffffffffffffffff169050919050565b5f8054906101000a900473ffffffffffffffffffffffffffffffffffffffff1681565b60015f9054906101000a900473ffffffffffffffffffffffffffffffffffffffff1681565b5f8060035f8681526020019081526020015f205f8561ffff1661ffff1681526020019081526020015f2090505f8060018111156114fe576114fd611d07565b5b84600181111561151157611510611d07565b5b0361153157816001015f0160069054906101000a900460ff169050611574565b60018081111561154457611543611d07565b5b84600181111561155757611556611d07565b5b0361157357816001015f0160079054906101000a900460ff1690505b5b80925050509392505050565b5f808261ffff1614806115c5575060648261ffff16101580156115a957506103e78261ffff1611155b80156115c457505f600a836115be9190611f8e565b61ffff16145b5b9050919050565b60405180606001604052805f61ffff1681526020015f151581526020016115f16115f7565b81525090565b6040518060a001604052805f61ffff1681526020015f61ffff1681526020015f61ffff1681526020015f151581526020015f151581525090565b5f80fd5b5f819050919050565b61164781611635565b8114611651575f80fd5b50565b5f813590506116628161163e565b92915050565b5f61ffff82169050919050565b61167e81611668565b8114611688575f80fd5b50565b5f8135905061169981611675565b92915050565b5f80604083850312156116b5576116b4611631565b5b5f6116c285828601611654565b92505060206116d38582860161168b565b9150509250929050565b6116e681611668565b82525050565b5f8115159050919050565b611700816116ec565b82525050565b60a082015f82015161171a5f8501826116dd565b50602082015161172d60208501826116dd565b50604082015161174060408501826116dd565b50606082015161175360608501826116f7565b50608082015161176660808501826116f7565b50505050565b60e082015f8201516117805f8501826116dd565b50602082015161179360208501826116f7565b5060408201516117a66040850182611706565b50505050565b5f60e0820190506117bf5f83018461176c565b92915050565b600281106117d1575f80fd5b50565b5f813590506117e2816117c5565b92915050565b5f805f8060808587031215611800576117ff611631565b5b5f61180d87828801611654565b945050602061181e8782880161168b565b935050604061182f8782880161168b565b9250506060611840878288016117d4565b91505092959194509250565b5f6020828403121561186157611860611631565b5b5f61186e84828501611654565b91505092915050565b5f81519050919050565b5f82825260208201905092915050565b5f819050602082019050919050565b60e082015f8201516118b45f8501826116dd565b5060208201516118c760208501826116f7565b5060408201516118da6040850182611706565b50505050565b5f6118eb83836118a0565b60e08301905092915050565b5f602082019050919050565b5f61190d82611877565b6119178185611881565b935061192283611891565b805f5b8381101561195257815161193988826118e0565b9750611944836118f7565b925050600181019050611925565b5085935050505092915050565b5f6020820190508181035f8301526119778184611903565b905092915050565b5f73ffffffffffffffffffffffffffffffffffffffff82169050919050565b5f6119a88261197f565b9050919050565b6119b88161199e565b81146119c2575f80fd5b50565b5f813590506119d3816119af565b92915050565b5f602082840312156119ee576119ed611631565b5b5f6119fb848285016119c5565b91505092915050565b5f60208284031215611a1957611a18611631565b5b5f611a268482850161168b565b91505092915050565b611a388161199e565b82525050565b5f602082019050611a515f830184611a2f565b92915050565b5f82825260208201905092915050565b7f4f6e6c792073656d6573746572206d616e6167656d656e7420636f6e747261635f8201527f742063616e2063616c6c20746869732066756e6374696f6e0000000000000000602082015250565b5f611ac1603883611a57565b9150611acc82611a67565b604082019050919050565b5f6020820190508181035f830152611aee81611ab5565b9050919050565b7f4f6e6c792061737369676e656420746561636865722063616e20706572666f725f8201527f6d207468697320616374696f6e00000000000000000000000000000000000000602082015250565b5f611b4f602d83611a57565b9150611b5a82611af5565b604082019050919050565b5f6020820190508181035f830152611b7c81611b43565b9050919050565b7f436f75727365206e6f74206578697374656420212100000000000000000000005f82015250565b5f611bb7601583611a57565b9150611bc282611b83565b602082019050919050565b5f6020820190508181035f830152611be481611bab565b9050919050565b7f53636f7265206e6f74206578697374656420696e20636f7572736520212100005f82015250565b5f611c1f601e83611a57565b9150611c2a82611beb565b602082019050919050565b5f6020820190508181035f830152611c4c81611c13565b9050919050565b7f53636f7265206e6f742076616c69642c206d7573742062652030206f722062655f8201527f747765656e2031303020616e64203939392c20616e6420646976697369626c6560208201527f2062792031302100000000000000000000000000000000000000000000000000604082015250565b5f611cd3604783611a57565b9150611cde82611c53565b606082019050919050565b5f6020820190508181035f830152611d0081611cc7565b9050919050565b7f4e487b71000000000000000000000000000000000000000000000000000000005f52602160045260245ffd5b7f4e487b71000000000000000000000000000000000000000000000000000000005f52603260045260245ffd5b7f4e487b71000000000000000000000000000000000000000000000000000000005f52601160045260245ffd5b5f611d9882611668565b915061ffff8203611dac57611dab611d61565b5b600182019050919050565b7f53636f726520697320616c7265616479206578697374656420696e20636f75725f8201527f7365202121000000000000000000000000000000000000000000000000000000602082015250565b5f611e11602583611a57565b9150611e1c82611db7565b604082019050919050565b5f6020820190508181035f830152611e3e81611e05565b9050919050565b7f4f6e6c792061646d696e2063616e207570646174652073656d6573746572206d5f8201527f616e6167656d656e742061646472657373000000000000000000000000000000602082015250565b5f611e9f603183611a57565b9150611eaa82611e45565b604082019050919050565b5f6020820190508181035f830152611ecc81611e93565b9050919050565b7f496e76616c69642073656d6573746572206d616e6167656d656e7420616464725f8201527f6573730000000000000000000000000000000000000000000000000000000000602082015250565b5f611f2d602383611a57565b9150611f3882611ed3565b604082019050919050565b5f6020820190508181035f830152611f5a81611f21565b9050919050565b7f4e487b71000000000000000000000000000000000000000000000000000000005f52601260045260245ffd5b5f611f9882611668565b9150611fa383611668565b925082611fb357611fb2611f61565b5b82820690509291505056fea2646970667358221220f9510710b42f42745eaf8453b1f1ca6f06a2890ee8021e9a6e2587eb8675b07864736f6c634300081a0033",
					"opcodes": "PUSH1 0x80 PUSH1 0x40 MSTORE CALLVALUE DUP1 ISZERO PUSH1 0xE JUMPI PUSH0 DUP1 REVERT JUMPDEST POP CALLER PUSH1 0x1 PUSH0 PUSH2 0x100 EXP DUP2 SLOAD DUP2 PUSH20 0xFFFFFFFFFFFFFFFFFFFFFFFFFFFFFFFFFFFFFFFF MUL NOT AND SWAP1 DUP4 PUSH20 0xFFFFFFFFFFFFFFFFFFFFFFFFFFFFFFFFFFFFFFFF AND MUL OR SWAP1 SSTORE POP PUSH2 0x1FF4 DUP1 PUSH2 0x5C PUSH0 CODECOPY PUSH0 RETURN INVALID PUSH1 0x80 PUSH1 0x40 MSTORE CALLVALUE DUP1 ISZERO PUSH2 0xF JUMPI PUSH0 DUP1 REVERT JUMPDEST POP PUSH1 0x4 CALLDATASIZE LT PUSH2 0x86 JUMPI PUSH0 CALLDATALOAD PUSH1 0xE0 SHR DUP1 PUSH4 0x369DC9DF GT PUSH2 0x59 JUMPI DUP1 PUSH4 0x369DC9DF EQ PUSH2 0x122 JUMPI DUP1 PUSH4 0x3DD77517 EQ PUSH2 0x13E JUMPI DUP1 PUSH4 0x7F78BC69 EQ PUSH2 0x16E JUMPI DUP1 PUSH4 0xF851A440 EQ PUSH2 0x18C JUMPI PUSH2 0x86 JUMP JUMPDEST DUP1 PUSH4 0xC5F8F02 EQ PUSH2 0x8A JUMPI DUP1 PUSH4 0x218E703D EQ PUSH2 0xBA JUMPI DUP1 PUSH4 0x260A5355 EQ PUSH2 0xD6 JUMPI DUP1 PUSH4 0x30C17AC0 EQ PUSH2 0xF2 JUMPI JUMPDEST PUSH0 DUP1 REVERT JUMPDEST PUSH2 0xA4 PUSH1 0x4 DUP1 CALLDATASIZE SUB DUP2 ADD SWAP1 PUSH2 0x9F SWAP2 SWAP1 PUSH2 0x169F JUMP JUMPDEST PUSH2 0x1AA JUMP JUMPDEST PUSH1 0x40 MLOAD PUSH2 0xB1 SWAP2 SWAP1 PUSH2 0x17AC JUMP JUMPDEST PUSH1 0x40 MLOAD DUP1 SWAP2 SUB SWAP1 RETURN JUMPDEST PUSH2 0xD4 PUSH1 0x4 DUP1 CALLDATASIZE SUB DUP2 ADD SWAP1 PUSH2 0xCF SWAP2 SWAP1 PUSH2 0x17E8 JUMP JUMPDEST PUSH2 0x2C9 JUMP JUMPDEST STOP JUMPDEST PUSH2 0xF0 PUSH1 0x4 DUP1 CALLDATASIZE SUB DUP2 ADD SWAP1 PUSH2 0xEB SWAP2 SWAP1 PUSH2 0x17E8 JUMP JUMPDEST PUSH2 0x850 JUMP JUMPDEST STOP JUMPDEST PUSH2 0x10C PUSH1 0x4 DUP1 CALLDATASIZE SUB DUP2 ADD SWAP1 PUSH2 0x107 SWAP2 SWAP1 PUSH2 0x184C JUMP JUMPDEST PUSH2 0x11AD JUMP JUMPDEST PUSH1 0x40 MLOAD PUSH2 0x119 SWAP2 SWAP1 PUSH2 0x195F JUMP JUMPDEST PUSH1 0x40 MLOAD DUP1 SWAP2 SUB SWAP1 RETURN JUMPDEST PUSH2 0x13C PUSH1 0x4 DUP1 CALLDATASIZE SUB DUP2 ADD SWAP1 PUSH2 0x137 SWAP2 SWAP1 PUSH2 0x19D9 JUMP JUMPDEST PUSH2 0x12F6 JUMP JUMPDEST STOP JUMPDEST PUSH2 0x158 PUSH1 0x4 DUP1 CALLDATASIZE SUB DUP2 ADD SWAP1 PUSH2 0x153 SWAP2 SWAP1 PUSH2 0x1A04 JUMP JUMPDEST PUSH2 0x1435 JUMP JUMPDEST PUSH1 0x40 MLOAD PUSH2 0x165 SWAP2 SWAP1 PUSH2 0x1A3E JUMP JUMPDEST PUSH1 0x40 MLOAD DUP1 SWAP2 SUB SWAP1 RETURN JUMPDEST PUSH2 0x176 PUSH2 0x1476 JUMP JUMPDEST PUSH1 0x40 MLOAD PUSH2 0x183 SWAP2 SWAP1 PUSH2 0x1A3E JUMP JUMPDEST PUSH1 0x40 MLOAD DUP1 SWAP2 SUB SWAP1 RETURN JUMPDEST PUSH2 0x194 PUSH2 0x1499 JUMP JUMPDEST PUSH1 0x40 MLOAD PUSH2 0x1A1 SWAP2 SWAP1 PUSH2 0x1A3E JUMP JUMPDEST PUSH1 0x40 MLOAD DUP1 SWAP2 SUB SWAP1 RETURN JUMPDEST PUSH2 0x1B2 PUSH2 0x15CC JUMP JUMPDEST PUSH1 0x3 PUSH0 DUP5 DUP2 MSTORE PUSH1 0x20 ADD SWAP1 DUP2 MSTORE PUSH1 0x20 ADD PUSH0 KECCAK256 PUSH0 DUP4 PUSH2 0xFFFF AND PUSH2 0xFFFF AND DUP2 MSTORE PUSH1 0x20 ADD SWAP1 DUP2 MSTORE PUSH1 0x20 ADD PUSH0 KECCAK256 PUSH1 0x40 MLOAD DUP1 PUSH1 0x60 ADD PUSH1 0x40 MSTORE SWAP1 DUP2 PUSH0 DUP3 ADD PUSH0 SWAP1 SLOAD SWAP1 PUSH2 0x100 EXP SWAP1 DIV PUSH2 0xFFFF AND PUSH2 0xFFFF AND PUSH2 0xFFFF AND DUP2 MSTORE PUSH1 0x20 ADD PUSH0 DUP3 ADD PUSH1 0x2 SWAP1 SLOAD SWAP1 PUSH2 0x100 EXP SWAP1 DIV PUSH1 0xFF AND ISZERO ISZERO ISZERO ISZERO DUP2 MSTORE PUSH1 0x20 ADD PUSH1 0x1 DUP3 ADD PUSH1 0x40 MLOAD DUP1 PUSH1 0xA0 ADD PUSH1 0x40 MSTORE SWAP1 DUP2 PUSH0 DUP3 ADD PUSH0 SWAP1 SLOAD SWAP1 PUSH2 0x100 EXP SWAP1 DIV PUSH2 0xFFFF AND PUSH2 0xFFFF AND PUSH2 0xFFFF AND DUP2 MSTORE PUSH1 0x20 ADD PUSH0 DUP3 ADD PUSH1 0x2 SWAP1 SLOAD SWAP1 PUSH2 0x100 EXP SWAP1 DIV PUSH2 0xFFFF AND PUSH2 0xFFFF AND PUSH2 0xFFFF AND DUP2 MSTORE PUSH1 0x20 ADD PUSH0 DUP3 ADD PUSH1 0x4 SWAP1 SLOAD SWAP1 PUSH2 0x100 EXP SWAP1 DIV PUSH2 0xFFFF AND PUSH2 0xFFFF AND PUSH2 0xFFFF AND DUP2 MSTORE PUSH1 0x20 ADD PUSH0 DUP3 ADD PUSH1 0x6 SWAP1 SLOAD SWAP1 PUSH2 0x100 EXP SWAP1 DIV PUSH1 0xFF AND ISZERO ISZERO ISZERO ISZERO DUP2 MSTORE PUSH1 0x20 ADD PUSH0 DUP3 ADD PUSH1 0x7 SWAP1 SLOAD SWAP1 PUSH2 0x100 EXP SWAP1 DIV PUSH1 0xFF AND ISZERO ISZERO ISZERO ISZERO DUP2 MSTORE POP POP DUP2 MSTORE POP POP SWAP1 POP SWAP3 SWAP2 POP POP JUMP JUMPDEST PUSH0 DUP1 SLOAD SWAP1 PUSH2 0x100 EXP SWAP1 DIV PUSH20 0xFFFFFFFFFFFFFFFFFFFFFFFFFFFFFFFFFFFFFFFF AND PUSH20 0xFFFFFFFFFFFFFFFFFFFFFFFFFFFFFFFFFFFFFFFF AND CALLER PUSH20 0xFFFFFFFFFFFFFFFFFFFFFFFFFFFFFFFFFFFFFFFF AND EQ PUSH2 0x356 JUMPI PUSH1 0x40 MLOAD PUSH32 0x8C379A000000000000000000000000000000000000000000000000000000000 DUP2 MSTORE PUSH1 0x4 ADD PUSH2 0x34D SWAP1 PUSH2 0x1AD7 JUMP JUMPDEST PUSH1 0x40 MLOAD DUP1 SWAP2 SUB SWAP1 REVERT JUMPDEST DUP3 PUSH0 ORIGIN SWAP1 POP PUSH0 PUSH20 0xFFFFFFFFFFFFFFFFFFFFFFFFFFFFFFFFFFFFFFFF AND PUSH1 0x4 PUSH0 DUP5 PUSH2 0xFFFF AND PUSH2 0xFFFF AND DUP2 MSTORE PUSH1 0x20 ADD SWAP1 DUP2 MSTORE PUSH1 0x20 ADD PUSH0 KECCAK256 PUSH0 SWAP1 SLOAD SWAP1 PUSH2 0x100 EXP SWAP1 DIV PUSH20 0xFFFFFFFFFFFFFFFFFFFFFFFFFFFFFFFFFFFFFFFF AND PUSH20 0xFFFFFFFFFFFFFFFFFFFFFFFFFFFFFFFFFFFFFFFF AND EQ DUP1 PUSH2 0x430 JUMPI POP DUP1 PUSH20 0xFFFFFFFFFFFFFFFFFFFFFFFFFFFFFFFFFFFFFFFF AND PUSH1 0x4 PUSH0 DUP5 PUSH2 0xFFFF AND PUSH2 0xFFFF AND DUP2 MSTORE PUSH1 0x20 ADD SWAP1 DUP2 MSTORE PUSH1 0x20 ADD PUSH0 KECCAK256 PUSH0 SWAP1 SLOAD SWAP1 PUSH2 0x100 EXP SWAP1 DIV PUSH20 0xFFFFFFFFFFFFFFFFFFFFFFFFFFFFFFFFFFFFFFFF AND PUSH20 0xFFFFFFFFFFFFFFFFFFFFFFFFFFFFFFFFFFFFFFFF AND EQ JUMPDEST PUSH2 0x46F JUMPI PUSH1 0x40 MLOAD PUSH32 0x8C379A000000000000000000000000000000000000000000000000000000000 DUP2 MSTORE PUSH1 0x4 ADD PUSH2 0x466 SWAP1 PUSH2 0x1B65 JUMP JUMPDEST PUSH1 0x40 MLOAD DUP1 SWAP2 SUB SWAP1 REVERT JUMPDEST PUSH1 0x3 PUSH0 DUP8 DUP2 MSTORE PUSH1 0x20 ADD SWAP1 DUP2 MSTORE PUSH1 0x20 ADD PUSH0 KECCAK256 PUSH0 DUP7 PUSH2 0xFFFF AND PUSH2 0xFFFF AND DUP2 MSTORE PUSH1 0x20 ADD SWAP1 DUP2 MSTORE PUSH1 0x20 ADD PUSH0 KECCAK256 PUSH0 ADD PUSH1 0x2 SWAP1 SLOAD SWAP1 PUSH2 0x100 EXP SWAP1 DIV PUSH1 0xFF AND PUSH2 0x4E6 JUMPI PUSH1 0x40 MLOAD PUSH32 0x8C379A000000000000000000000000000000000000000000000000000000000 DUP2 MSTORE PUSH1 0x4 ADD PUSH2 0x4DD SWAP1 PUSH2 0x1BCD JUMP JUMPDEST PUSH1 0x40 MLOAD DUP1 SWAP2 SUB SWAP1 REVERT JUMPDEST PUSH2 0x4F1 DUP7 DUP7 DUP6 PUSH2 0x14BE JUMP JUMPDEST PUSH2 0x530 JUMPI PUSH1 0x40 MLOAD PUSH32 0x8C379A000000000000000000000000000000000000000000000000000000000 DUP2 MSTORE PUSH1 0x4 ADD PUSH2 0x527 SWAP1 PUSH2 0x1C35 JUMP JUMPDEST PUSH1 0x40 MLOAD DUP1 SWAP2 SUB SWAP1 REVERT JUMPDEST PUSH2 0x539 DUP5 PUSH2 0x1580 JUMP JUMPDEST PUSH2 0x578 JUMPI PUSH1 0x40 MLOAD PUSH32 0x8C379A000000000000000000000000000000000000000000000000000000000 DUP2 MSTORE PUSH1 0x4 ADD PUSH2 0x56F SWAP1 PUSH2 0x1CE9 JUMP JUMPDEST PUSH1 0x40 MLOAD DUP1 SWAP2 SUB SWAP1 REVERT JUMPDEST PUSH0 PUSH1 0x3 PUSH0 DUP9 DUP2 MSTORE PUSH1 0x20 ADD SWAP1 DUP2 MSTORE PUSH1 0x20 ADD PUSH0 KECCAK256 PUSH0 DUP8 PUSH2 0xFFFF AND PUSH2 0xFFFF AND DUP2 MSTORE PUSH1 0x20 ADD SWAP1 DUP2 MSTORE PUSH1 0x20 ADD PUSH0 KECCAK256 SWAP1 POP PUSH0 PUSH1 0x1 DUP2 GT ISZERO PUSH2 0x5B6 JUMPI PUSH2 0x5B5 PUSH2 0x1D07 JUMP JUMPDEST JUMPDEST DUP5 PUSH1 0x1 DUP2 GT ISZERO PUSH2 0x5C9 JUMPI PUSH2 0x5C8 PUSH2 0x1D07 JUMP JUMPDEST JUMPDEST SUB PUSH2 0x5F3 JUMPI DUP5 DUP2 PUSH1 0x1 ADD PUSH0 ADD PUSH0 PUSH2 0x100 EXP DUP2 SLOAD DUP2 PUSH2 0xFFFF MUL NOT AND SWAP1 DUP4 PUSH2 0xFFFF AND MUL OR SWAP1 SSTORE POP PUSH2 0x641 JUMP JUMPDEST PUSH1 0x1 DUP1 DUP2 GT ISZERO PUSH2 0x606 JUMPI PUSH2 0x605 PUSH2 0x1D07 JUMP JUMPDEST JUMPDEST DUP5 PUSH1 0x1 DUP2 GT ISZERO PUSH2 0x619 JUMPI PUSH2 0x618 PUSH2 0x1D07 JUMP JUMPDEST JUMPDEST SUB PUSH2 0x640 JUMPI DUP5 DUP2 PUSH1 0x1 ADD PUSH0 ADD PUSH1 0x2 PUSH2 0x100 EXP DUP2 SLOAD DUP2 PUSH2 0xFFFF MUL NOT AND SWAP1 DUP4 PUSH2 0xFFFF AND MUL OR SWAP1 SSTORE POP JUMPDEST JUMPDEST PUSH0 JUMPDEST PUSH1 0x2 PUSH0 DUP10 DUP2 MSTORE PUSH1 0x20 ADD SWAP1 DUP2 MSTORE PUSH1 0x20 ADD PUSH0 KECCAK256 DUP1 SLOAD SWAP1 POP DUP2 PUSH2 0xFFFF AND LT ISZERO PUSH2 0x846 JUMPI DUP7 PUSH2 0xFFFF AND PUSH1 0x2 PUSH0 DUP11 DUP2 MSTORE PUSH1 0x20 ADD SWAP1 DUP2 MSTORE PUSH1 0x20 ADD PUSH0 KECCAK256 DUP3 PUSH2 0xFFFF AND DUP2 SLOAD DUP2 LT PUSH2 0x68F JUMPI PUSH2 0x68E PUSH2 0x1D34 JUMP JUMPDEST JUMPDEST SWAP1 PUSH0 MSTORE PUSH1 0x20 PUSH0 KECCAK256 SWAP1 PUSH1 0x2 MUL ADD PUSH0 ADD PUSH0 SWAP1 SLOAD SWAP1 PUSH2 0x100 EXP SWAP1 DIV PUSH2 0xFFFF AND PUSH2 0xFFFF AND SUB PUSH2 0x833 JUMPI DUP2 PUSH1 0x2 PUSH0 DUP11 DUP2 MSTORE PUSH1 0x20 ADD SWAP1 DUP2 MSTORE PUSH1 0x20 ADD PUSH0 KECCAK256 DUP3 PUSH2 0xFFFF AND DUP2 SLOAD DUP2 LT PUSH2 0x6DC JUMPI PUSH2 0x6DB PUSH2 0x1D34 JUMP JUMPDEST JUMPDEST SWAP1 PUSH0 MSTORE PUSH1 0x20 PUSH0 KECCAK256 SWAP1 PUSH1 0x2 MUL ADD PUSH0 DUP3 ADD PUSH0 SWAP1 SLOAD SWAP1 PUSH2 0x100 EXP SWAP1 DIV PUSH2 0xFFFF AND DUP2 PUSH0 ADD PUSH0 PUSH2 0x100 EXP DUP2 SLOAD DUP2 PUSH2 0xFFFF MUL NOT AND SWAP1 DUP4 PUSH2 0xFFFF AND MUL OR SWAP1 SSTORE POP PUSH0 DUP3 ADD PUSH1 0x2 SWAP1 SLOAD SWAP1 PUSH2 0x100 EXP SWAP1 DIV PUSH1 0xFF AND DUP2 PUSH0 ADD PUSH1 0x2 PUSH2 0x100 EXP DUP2 SLOAD DUP2 PUSH1 0xFF MUL NOT AND SWAP1 DUP4 ISZERO ISZERO MUL OR SWAP1 SSTORE POP PUSH1 0x1 DUP3 ADD DUP2 PUSH1 0x1 ADD PUSH0 DUP3 ADD PUSH0 SWAP1 SLOAD SWAP1 PUSH2 0x100 EXP SWAP1 DIV PUSH2 0xFFFF AND DUP2 PUSH0 ADD PUSH0 PUSH2 0x100 EXP DUP2 SLOAD DUP2 PUSH2 0xFFFF MUL NOT AND SWAP1 DUP4 PUSH2 0xFFFF AND MUL OR SWAP1 SSTORE POP PUSH0 DUP3 ADD PUSH1 0x2 SWAP1 SLOAD SWAP1 PUSH2 0x100 EXP SWAP1 DIV PUSH2 0xFFFF AND DUP2 PUSH0 ADD PUSH1 0x2 PUSH2 0x100 EXP DUP2 SLOAD DUP2 PUSH2 0xFFFF MUL NOT AND SWAP1 DUP4 PUSH2 0xFFFF AND MUL OR SWAP1 SSTORE POP PUSH0 DUP3 ADD PUSH1 0x4 SWAP1 SLOAD SWAP1 PUSH2 0x100 EXP SWAP1 DIV PUSH2 0xFFFF AND DUP2 PUSH0 ADD PUSH1 0x4 PUSH2 0x100 EXP DUP2 SLOAD DUP2 PUSH2 0xFFFF MUL NOT AND SWAP1 DUP4 PUSH2 0xFFFF AND MUL OR SWAP1 SSTORE POP PUSH0 DUP3 ADD PUSH1 0x6 SWAP1 SLOAD SWAP1 PUSH2 0x100 EXP SWAP1 DIV PUSH1 0xFF AND DUP2 PUSH0 ADD PUSH1 0x6 PUSH2 0x100 EXP DUP2 SLOAD DUP2 PUSH1 0xFF MUL NOT AND SWAP1 DUP4 ISZERO ISZERO MUL OR SWAP1 SSTORE POP PUSH0 DUP3 ADD PUSH1 0x7 SWAP1 SLOAD SWAP1 PUSH2 0x100 EXP SWAP1 DIV PUSH1 0xFF AND DUP2 PUSH0 ADD PUSH1 0x7 PUSH2 0x100 EXP DUP2 SLOAD DUP2 PUSH1 0xFF MUL NOT AND SWAP1 DUP4 ISZERO ISZERO MUL OR SWAP1 SSTORE POP POP POP SWAP1 POP POP PUSH2 0x846 JUMP JUMPDEST DUP1 DUP1 PUSH2 0x83E SWAP1 PUSH2 0x1D8E JUMP JUMPDEST SWAP2 POP POP PUSH2 0x643 JUMP JUMPDEST POP POP POP POP POP POP POP POP JUMP JUMPDEST PUSH0 DUP1 SLOAD SWAP1 PUSH2 0x100 EXP SWAP1 DIV PUSH20 0xFFFFFFFFFFFFFFFFFFFFFFFFFFFFFFFFFFFFFFFF AND PUSH20 0xFFFFFFFFFFFFFFFFFFFFFFFFFFFFFFFFFFFFFFFF AND CALLER PUSH20 0xFFFFFFFFFFFFFFFFFFFFFFFFFFFFFFFFFFFFFFFF AND EQ PUSH2 0x8DD JUMPI PUSH1 0x40 MLOAD PUSH32 0x8C379A000000000000000000000000000000000000000000000000000000000 DUP2 MSTORE PUSH1 0x4 ADD PUSH2 0x8D4 SWAP1 PUSH2 0x1AD7 JUMP JUMPDEST PUSH1 0x40 MLOAD DUP1 SWAP2 SUB SWAP1 REVERT JUMPDEST DUP3 PUSH0 ORIGIN SWAP1 POP PUSH0 PUSH20 0xFFFFFFFFFFFFFFFFFFFFFFFFFFFFFFFFFFFFFFFF AND PUSH1 0x4 PUSH0 DUP5 PUSH2 0xFFFF AND PUSH2 0xFFFF AND DUP2 MSTORE PUSH1 0x20 ADD SWAP1 DUP2 MSTORE PUSH1 0x20 ADD PUSH0 KECCAK256 PUSH0 SWAP1 SLOAD SWAP1 PUSH2 0x100 EXP SWAP1 DIV PUSH20 0xFFFFFFFFFFFFFFFFFFFFFFFFFFFFFFFFFFFFFFFF AND PUSH20 0xFFFFFFFFFFFFFFFFFFFFFFFFFFFFFFFFFFFFFFFF AND EQ DUP1 PUSH2 0x9B7 JUMPI POP DUP1 PUSH20 0xFFFFFFFFFFFFFFFFFFFFFFFFFFFFFFFFFFFFFFFF AND PUSH1 0x4 PUSH0 DUP5 PUSH2 0xFFFF AND PUSH2 0xFFFF AND DUP2 MSTORE PUSH1 0x20 ADD SWAP1 DUP2 MSTORE PUSH1 0x20 ADD PUSH0 KECCAK256 PUSH0 SWAP1 SLOAD SWAP1 PUSH2 0x100 EXP SWAP1 DIV PUSH20 0xFFFFFFFFFFFFFFFFFFFFFFFFFFFFFFFFFFFFFFFF AND PUSH20 0xFFFFFFFFFFFFFFFFFFFFFFFFFFFFFFFFFFFFFFFF AND EQ JUMPDEST PUSH2 0x9F6 JUMPI PUSH1 0x40 MLOAD PUSH32 0x8C379A000000000000000000000000000000000000000000000000000000000 DUP2 MSTORE PUSH1 0x4 ADD PUSH2 0x9ED SWAP1 PUSH2 0x1B65 JUMP JUMPDEST PUSH1 0x40 MLOAD DUP1 SWAP2 SUB SWAP1 REVERT JUMPDEST PUSH2 0x9FF DUP5 PUSH2 0x1580 JUMP JUMPDEST PUSH2 0xA3E JUMPI PUSH1 0x40 MLOAD PUSH32 0x8C379A000000000000000000000000000000000000000000000000000000000 DUP2 MSTORE PUSH1 0x4 ADD PUSH2 0xA35 SWAP1 PUSH2 0x1CE9 JUMP JUMPDEST PUSH1 0x40 MLOAD DUP1 SWAP2 SUB SWAP1 REVERT JUMPDEST PUSH2 0xA49 DUP7 DUP7 DUP6 PUSH2 0x14BE JUMP JUMPDEST ISZERO PUSH2 0xA89 JUMPI PUSH1 0x40 MLOAD PUSH32 0x8C379A000000000000000000000000000000000000000000000000000000000 DUP2 MSTORE PUSH1 0x4 ADD PUSH2 0xA80 SWAP1 PUSH2 0x1E27 JUMP JUMPDEST PUSH1 0x40 MLOAD DUP1 SWAP2 SUB SWAP1 REVERT JUMPDEST PUSH0 PUSH20 0xFFFFFFFFFFFFFFFFFFFFFFFFFFFFFFFFFFFFFFFF AND PUSH1 0x4 PUSH0 DUP8 PUSH2 0xFFFF AND PUSH2 0xFFFF AND DUP2 MSTORE PUSH1 0x20 ADD SWAP1 DUP2 MSTORE PUSH1 0x20 ADD PUSH0 KECCAK256 PUSH0 SWAP1 SLOAD SWAP1 PUSH2 0x100 EXP SWAP1 DIV PUSH20 0xFFFFFFFFFFFFFFFFFFFFFFFFFFFFFFFFFFFFFFFF AND PUSH20 0xFFFFFFFFFFFFFFFFFFFFFFFFFFFFFFFFFFFFFFFF AND SUB PUSH2 0xB4C JUMPI ORIGIN PUSH1 0x4 PUSH0 DUP8 PUSH2 0xFFFF AND PUSH2 0xFFFF AND DUP2 MSTORE PUSH1 0x20 ADD SWAP1 DUP2 MSTORE PUSH1 0x20 ADD PUSH0 KECCAK256 PUSH0 PUSH2 0x100 EXP DUP2 SLOAD DUP2 PUSH20 0xFFFFFFFFFFFFFFFFFFFFFFFFFFFFFFFFFFFFFFFF MUL NOT AND SWAP1 DUP4 PUSH20 0xFFFFFFFFFFFFFFFFFFFFFFFFFFFFFFFFFFFFFFFF AND MUL OR SWAP1 SSTORE POP JUMPDEST PUSH0 PUSH1 0x3 PUSH0 DUP9 DUP2 MSTORE PUSH1 0x20 ADD SWAP1 DUP2 MSTORE PUSH1 0x20 ADD PUSH0 KECCAK256 PUSH0 DUP8 PUSH2 0xFFFF AND PUSH2 0xFFFF AND DUP2 MSTORE PUSH1 0x20 ADD SWAP1 DUP2 MSTORE PUSH1 0x20 ADD PUSH0 KECCAK256 SWAP1 POP PUSH0 DUP2 PUSH0 ADD PUSH1 0x2 SWAP1 SLOAD SWAP1 PUSH2 0x100 EXP SWAP1 DIV PUSH1 0xFF AND SWAP1 POP DUP1 PUSH2 0xD39 JUMPI PUSH1 0x1 DUP3 PUSH0 ADD PUSH1 0x2 PUSH2 0x100 EXP DUP2 SLOAD DUP2 PUSH1 0xFF MUL NOT AND SWAP1 DUP4 ISZERO ISZERO MUL OR SWAP1 SSTORE POP DUP7 DUP3 PUSH0 ADD PUSH0 PUSH2 0x100 EXP DUP2 SLOAD DUP2 PUSH2 0xFFFF MUL NOT AND SWAP1 DUP4 PUSH2 0xFFFF AND MUL OR SWAP1 SSTORE POP DUP2 PUSH1 0x3 PUSH0 DUP11 DUP2 MSTORE PUSH1 0x20 ADD SWAP1 DUP2 MSTORE PUSH1 0x20 ADD PUSH0 KECCAK256 PUSH0 DUP10 PUSH2 0xFFFF AND PUSH2 0xFFFF AND DUP2 MSTORE PUSH1 0x20 ADD SWAP1 DUP2 MSTORE PUSH1 0x20 ADD PUSH0 KECCAK256 PUSH0 DUP3 ADD PUSH0 SWAP1 SLOAD SWAP1 PUSH2 0x100 EXP SWAP1 DIV PUSH2 0xFFFF AND DUP2 PUSH0 ADD PUSH0 PUSH2 0x100 EXP DUP2 SLOAD DUP2 PUSH2 0xFFFF MUL NOT AND SWAP1 DUP4 PUSH2 0xFFFF AND MUL OR SWAP1 SSTORE POP PUSH0 DUP3 ADD PUSH1 0x2 SWAP1 SLOAD SWAP1 PUSH2 0x100 EXP SWAP1 DIV PUSH1 0xFF AND DUP2 PUSH0 ADD PUSH1 0x2 PUSH2 0x100 EXP DUP2 SLOAD DUP2 PUSH1 0xFF MUL NOT AND SWAP1 DUP4 ISZERO ISZERO MUL OR SWAP1 SSTORE POP PUSH1 0x1 DUP3 ADD DUP2 PUSH1 0x1 ADD PUSH0 DUP3 ADD PUSH0 SWAP1 SLOAD SWAP1 PUSH2 0x100 EXP SWAP1 DIV PUSH2 0xFFFF AND DUP2 PUSH0 ADD PUSH0 PUSH2 0x100 EXP DUP2 SLOAD DUP2 PUSH2 0xFFFF MUL NOT AND SWAP1 DUP4 PUSH2 0xFFFF AND MUL OR SWAP1 SSTORE POP PUSH0 DUP3 ADD PUSH1 0x2 SWAP1 SLOAD SWAP1 PUSH2 0x100 EXP SWAP1 DIV PUSH2 0xFFFF AND DUP2 PUSH0 ADD PUSH1 0x2 PUSH2 0x100 EXP DUP2 SLOAD DUP2 PUSH2 0xFFFF MUL NOT AND SWAP1 DUP4 PUSH2 0xFFFF AND MUL OR SWAP1 SSTORE POP PUSH0 DUP3 ADD PUSH1 0x4 SWAP1 SLOAD SWAP1 PUSH2 0x100 EXP SWAP1 DIV PUSH2 0xFFFF AND DUP2 PUSH0 ADD PUSH1 0x4 PUSH2 0x100 EXP DUP2 SLOAD DUP2 PUSH2 0xFFFF MUL NOT AND SWAP1 DUP4 PUSH2 0xFFFF AND MUL OR SWAP1 SSTORE POP PUSH0 DUP3 ADD PUSH1 0x6 SWAP1 SLOAD SWAP1 PUSH2 0x100 EXP SWAP1 DIV PUSH1 0xFF AND DUP2 PUSH0 ADD PUSH1 0x6 PUSH2 0x100 EXP DUP2 SLOAD DUP2 PUSH1 0xFF MUL NOT AND SWAP1 DUP4 ISZERO ISZERO MUL OR SWAP1 SSTORE POP PUSH0 DUP3 ADD PUSH1 0x7 SWAP1 SLOAD SWAP1 PUSH2 0x100 EXP SWAP1 DIV PUSH1 0xFF AND DUP2 PUSH0 ADD PUSH1 0x7 PUSH2 0x100 EXP DUP2 SLOAD DUP2 PUSH1 0xFF MUL NOT AND SWAP1 DUP4 ISZERO ISZERO MUL OR SWAP1 SSTORE POP POP POP SWAP1 POP POP JUMPDEST PUSH0 PUSH1 0x1 DUP2 GT ISZERO PUSH2 0xD4C JUMPI PUSH2 0xD4B PUSH2 0x1D07 JUMP JUMPDEST JUMPDEST DUP6 PUSH1 0x1 DUP2 GT ISZERO PUSH2 0xD5F JUMPI PUSH2 0xD5E PUSH2 0x1D07 JUMP JUMPDEST JUMPDEST SUB PUSH2 0xDA8 JUMPI DUP6 DUP3 PUSH1 0x1 ADD PUSH0 ADD PUSH0 PUSH2 0x100 EXP DUP2 SLOAD DUP2 PUSH2 0xFFFF MUL NOT AND SWAP1 DUP4 PUSH2 0xFFFF AND MUL OR SWAP1 SSTORE POP PUSH1 0x1 DUP3 PUSH1 0x1 ADD PUSH0 ADD PUSH1 0x6 PUSH2 0x100 EXP DUP2 SLOAD DUP2 PUSH1 0xFF MUL NOT AND SWAP1 DUP4 ISZERO ISZERO MUL OR SWAP1 SSTORE POP PUSH2 0xE15 JUMP JUMPDEST PUSH1 0x1 DUP1 DUP2 GT ISZERO PUSH2 0xDBB JUMPI PUSH2 0xDBA PUSH2 0x1D07 JUMP JUMPDEST JUMPDEST DUP6 PUSH1 0x1 DUP2 GT ISZERO PUSH2 0xDCE JUMPI PUSH2 0xDCD PUSH2 0x1D07 JUMP JUMPDEST JUMPDEST SUB PUSH2 0xE14 JUMPI DUP6 DUP3 PUSH1 0x1 ADD PUSH0 ADD PUSH1 0x2 PUSH2 0x100 EXP DUP2 SLOAD DUP2 PUSH2 0xFFFF MUL NOT AND SWAP1 DUP4 PUSH2 0xFFFF AND MUL OR SWAP1 SSTORE POP PUSH1 0x1 DUP3 PUSH1 0x1 ADD PUSH0 ADD PUSH1 0x7 PUSH2 0x100 EXP DUP2 SLOAD DUP2 PUSH1 0xFF MUL NOT AND SWAP1 DUP4 ISZERO ISZERO MUL OR SWAP1 SSTORE POP JUMPDEST JUMPDEST DUP1 PUSH2 0xF9C JUMPI PUSH1 0x2 PUSH0 DUP10 DUP2 MSTORE PUSH1 0x20 ADD SWAP1 DUP2 MSTORE PUSH1 0x20 ADD PUSH0 KECCAK256 DUP3 SWAP1 DUP1 PUSH1 0x1 DUP2 SLOAD ADD DUP1 DUP3 SSTORE DUP1 SWAP2 POP POP PUSH1 0x1 SWAP1 SUB SWAP1 PUSH0 MSTORE PUSH1 0x20 PUSH0 KECCAK256 SWAP1 PUSH1 0x2 MUL ADD PUSH0 SWAP1 SWAP2 SWAP1 SWAP2 SWAP1 SWAP2 POP PUSH0 DUP3 ADD PUSH0 SWAP1 SLOAD SWAP1 PUSH2 0x100 EXP SWAP1 DIV PUSH2 0xFFFF AND DUP2 PUSH0 ADD PUSH0 PUSH2 0x100 EXP DUP2 SLOAD DUP2 PUSH2 0xFFFF MUL NOT AND SWAP1 DUP4 PUSH2 0xFFFF AND MUL OR SWAP1 SSTORE POP PUSH0 DUP3 ADD PUSH1 0x2 SWAP1 SLOAD SWAP1 PUSH2 0x100 EXP SWAP1 DIV PUSH1 0xFF AND DUP2 PUSH0 ADD PUSH1 0x2 PUSH2 0x100 EXP DUP2 SLOAD DUP2 PUSH1 0xFF MUL NOT AND SWAP1 DUP4 ISZERO ISZERO MUL OR SWAP1 SSTORE POP PUSH1 0x1 DUP3 ADD DUP2 PUSH1 0x1 ADD PUSH0 DUP3 ADD PUSH0 SWAP1 SLOAD SWAP1 PUSH2 0x100 EXP SWAP1 DIV PUSH2 0xFFFF AND DUP2 PUSH0 ADD PUSH0 PUSH2 0x100 EXP DUP2 SLOAD DUP2 PUSH2 0xFFFF MUL NOT AND SWAP1 DUP4 PUSH2 0xFFFF AND MUL OR SWAP1 SSTORE POP PUSH0 DUP3 ADD PUSH1 0x2 SWAP1 SLOAD SWAP1 PUSH2 0x100 EXP SWAP1 DIV PUSH2 0xFFFF AND DUP2 PUSH0 ADD PUSH1 0x2 PUSH2 0x100 EXP DUP2 SLOAD DUP2 PUSH2 0xFFFF MUL NOT AND SWAP1 DUP4 PUSH2 0xFFFF AND MUL OR SWAP1 SSTORE POP PUSH0 DUP3 ADD PUSH1 0x4 SWAP1 SLOAD SWAP1 PUSH2 0x100 EXP SWAP1 DIV PUSH2 0xFFFF AND DUP2 PUSH0 ADD PUSH1 0x4 PUSH2 0x100 EXP DUP2 SLOAD DUP2 PUSH2 0xFFFF MUL NOT AND SWAP1 DUP4 PUSH2 0xFFFF AND MUL OR SWAP1 SSTORE POP PUSH0 DUP3 ADD PUSH1 0x6 SWAP1 SLOAD SWAP1 PUSH2 0x100 EXP SWAP1 DIV PUSH1 0xFF AND DUP2 PUSH0 ADD PUSH1 0x6 PUSH2 0x100 EXP DUP2 SLOAD DUP2 PUSH1 0xFF MUL NOT AND SWAP1 DUP4 ISZERO ISZERO MUL OR SWAP1 SSTORE POP PUSH0 DUP3 ADD PUSH1 0x7 SWAP1 SLOAD SWAP1 PUSH2 0x100 EXP SWAP1 DIV PUSH1 0xFF AND DUP2 PUSH0 ADD PUSH1 0x7 PUSH2 0x100 EXP DUP2 SLOAD DUP2 PUSH1 0xFF MUL NOT AND SWAP1 DUP4 ISZERO ISZERO MUL OR SWAP1 SSTORE POP POP POP POP POP PUSH2 0x11A3 JUMP JUMPDEST PUSH0 JUMPDEST PUSH1 0x2 PUSH0 DUP11 DUP2 MSTORE PUSH1 0x20 ADD SWAP1 DUP2 MSTORE PUSH1 0x20 ADD PUSH0 KECCAK256 DUP1 SLOAD SWAP1 POP DUP2 PUSH2 0xFFFF AND LT ISZERO PUSH2 0x11A1 JUMPI DUP8 PUSH2 0xFFFF AND PUSH1 0x2 PUSH0 DUP12 DUP2 MSTORE PUSH1 0x20 ADD SWAP1 DUP2 MSTORE PUSH1 0x20 ADD PUSH0 KECCAK256 DUP3 PUSH2 0xFFFF AND DUP2 SLOAD DUP2 LT PUSH2 0xFEA JUMPI PUSH2 0xFE9 PUSH2 0x1D34 JUMP JUMPDEST JUMPDEST SWAP1 PUSH0 MSTORE PUSH1 0x20 PUSH0 KECCAK256 SWAP1 PUSH1 0x2 MUL ADD PUSH0 ADD PUSH0 SWAP1 SLOAD SWAP1 PUSH2 0x100 EXP SWAP1 DIV PUSH2 0xFFFF AND PUSH2 0xFFFF AND SUB PUSH2 0x118E JUMPI DUP3 PUSH1 0x2 PUSH0 DUP12 DUP2 MSTORE PUSH1 0x20 ADD SWAP1 DUP2 MSTORE PUSH1 0x20 ADD PUSH0 KECCAK256 DUP3 PUSH2 0xFFFF AND DUP2 SLOAD DUP2 LT PUSH2 0x1037 JUMPI PUSH2 0x1036 PUSH2 0x1D34 JUMP JUMPDEST JUMPDEST SWAP1 PUSH0 MSTORE PUSH1 0x20 PUSH0 KECCAK256 SWAP1 PUSH1 0x2 MUL ADD PUSH0 DUP3 ADD PUSH0 SWAP1 SLOAD SWAP1 PUSH2 0x100 EXP SWAP1 DIV PUSH2 0xFFFF AND DUP2 PUSH0 ADD PUSH0 PUSH2 0x100 EXP DUP2 SLOAD DUP2 PUSH2 0xFFFF MUL NOT AND SWAP1 DUP4 PUSH2 0xFFFF AND MUL OR SWAP1 SSTORE POP PUSH0 DUP3 ADD PUSH1 0x2 SWAP1 SLOAD SWAP1 PUSH2 0x100 EXP SWAP1 DIV PUSH1 0xFF AND DUP2 PUSH0 ADD PUSH1 0x2 PUSH2 0x100 EXP DUP2 SLOAD DUP2 PUSH1 0xFF MUL NOT AND SWAP1 DUP4 ISZERO ISZERO MUL OR SWAP1 SSTORE POP PUSH1 0x1 DUP3 ADD DUP2 PUSH1 0x1 ADD PUSH0 DUP3 ADD PUSH0 SWAP1 SLOAD SWAP1 PUSH2 0x100 EXP SWAP1 DIV PUSH2 0xFFFF AND DUP2 PUSH0 ADD PUSH0 PUSH2 0x100 EXP DUP2 SLOAD DUP2 PUSH2 0xFFFF MUL NOT AND SWAP1 DUP4 PUSH2 0xFFFF AND MUL OR SWAP1 SSTORE POP PUSH0 DUP3 ADD PUSH1 0x2 SWAP1 SLOAD SWAP1 PUSH2 0x100 EXP SWAP1 DIV PUSH2 0xFFFF AND DUP2 PUSH0 ADD PUSH1 0x2 PUSH2 0x100 EXP DUP2 SLOAD DUP2 PUSH2 0xFFFF MUL NOT AND SWAP1 DUP4 PUSH2 0xFFFF AND MUL OR SWAP1 SSTORE POP PUSH0 DUP3 ADD PUSH1 0x4 SWAP1 SLOAD SWAP1 PUSH2 0x100 EXP SWAP1 DIV PUSH2 0xFFFF AND DUP2 PUSH0 ADD PUSH1 0x4 PUSH2 0x100 EXP DUP2 SLOAD DUP2 PUSH2 0xFFFF MUL NOT AND SWAP1 DUP4 PUSH2 0xFFFF AND MUL OR SWAP1 SSTORE POP PUSH0 DUP3 ADD PUSH1 0x6 SWAP1 SLOAD SWAP1 PUSH2 0x100 EXP SWAP1 DIV PUSH1 0xFF AND DUP2 PUSH0 ADD PUSH1 0x6 PUSH2 0x100 EXP DUP2 SLOAD DUP2 PUSH1 0xFF MUL NOT AND SWAP1 DUP4 ISZERO ISZERO MUL OR SWAP1 SSTORE POP PUSH0 DUP3 ADD PUSH1 0x7 SWAP1 SLOAD SWAP1 PUSH2 0x100 EXP SWAP1 DIV PUSH1 0xFF AND DUP2 PUSH0 ADD PUSH1 0x7 PUSH2 0x100 EXP DUP2 SLOAD DUP2 PUSH1 0xFF MUL NOT AND SWAP1 DUP4 ISZERO ISZERO MUL OR SWAP1 SSTORE POP POP POP SWAP1 POP POP PUSH2 0x11A1 JUMP JUMPDEST DUP1 DUP1 PUSH2 0x1199 SWAP1 PUSH2 0x1D8E JUMP JUMPDEST SWAP2 POP POP PUSH2 0xF9E JUMP JUMPDEST POP JUMPDEST POP POP POP POP POP POP POP POP JUMP JUMPDEST PUSH1 0x60 PUSH1 0x2 PUSH0 DUP4 DUP2 MSTORE PUSH1 0x20 ADD SWAP1 DUP2 MSTORE PUSH1 0x20 ADD PUSH0 KECCAK256 DUP1 SLOAD DUP1 PUSH1 0x20 MUL PUSH1 0x20 ADD PUSH1 0x40 MLOAD SWAP1 DUP2 ADD PUSH1 0x40 MSTORE DUP1 SWAP3 SWAP2 SWAP1 DUP2 DUP2 MSTORE PUSH1 0x20 ADD PUSH0 SWAP1 JUMPDEST DUP3 DUP3 LT ISZERO PUSH2 0x12EB JUMPI DUP4 DUP3 SWAP1 PUSH0 MSTORE PUSH1 0x20 PUSH0 KECCAK256 SWAP1 PUSH1 0x2 MUL ADD PUSH1 0x40 MLOAD DUP1 PUSH1 0x60 ADD PUSH1 0x40 MSTORE SWAP1 DUP2 PUSH0 DUP3 ADD PUSH0 SWAP1 SLOAD SWAP1 PUSH2 0x100 EXP SWAP1 DIV PUSH2 0xFFFF AND PUSH2 0xFFFF AND PUSH2 0xFFFF AND DUP2 MSTORE PUSH1 0x20 ADD PUSH0 DUP3 ADD PUSH1 0x2 SWAP1 SLOAD SWAP1 PUSH2 0x100 EXP SWAP1 DIV PUSH1 0xFF AND ISZERO ISZERO ISZERO ISZERO DUP2 MSTORE PUSH1 0x20 ADD PUSH1 0x1 DUP3 ADD PUSH1 0x40 MLOAD DUP1 PUSH1 0xA0 ADD PUSH1 0x40 MSTORE SWAP1 DUP2 PUSH0 DUP3 ADD PUSH0 SWAP1 SLOAD SWAP1 PUSH2 0x100 EXP SWAP1 DIV PUSH2 0xFFFF AND PUSH2 0xFFFF AND PUSH2 0xFFFF AND DUP2 MSTORE PUSH1 0x20 ADD PUSH0 DUP3 ADD PUSH1 0x2 SWAP1 SLOAD SWAP1 PUSH2 0x100 EXP SWAP1 DIV PUSH2 0xFFFF AND PUSH2 0xFFFF AND PUSH2 0xFFFF AND DUP2 MSTORE PUSH1 0x20 ADD PUSH0 DUP3 ADD PUSH1 0x4 SWAP1 SLOAD SWAP1 PUSH2 0x100 EXP SWAP1 DIV PUSH2 0xFFFF AND PUSH2 0xFFFF AND PUSH2 0xFFFF AND DUP2 MSTORE PUSH1 0x20 ADD PUSH0 DUP3 ADD PUSH1 0x6 SWAP1 SLOAD SWAP1 PUSH2 0x100 EXP SWAP1 DIV PUSH1 0xFF AND ISZERO ISZERO ISZERO ISZERO DUP2 MSTORE PUSH1 0x20 ADD PUSH0 DUP3 ADD PUSH1 0x7 SWAP1 SLOAD SWAP1 PUSH2 0x100 EXP SWAP1 DIV PUSH1 0xFF AND ISZERO ISZERO ISZERO ISZERO DUP2 MSTORE POP POP DUP2 MSTORE POP POP DUP2 MSTORE PUSH1 0x20 ADD SWAP1 PUSH1 0x1 ADD SWAP1 PUSH2 0x11DF JUMP JUMPDEST POP POP POP POP SWAP1 POP SWAP2 SWAP1 POP JUMP JUMPDEST PUSH1 0x1 PUSH0 SWAP1 SLOAD SWAP1 PUSH2 0x100 EXP SWAP1 DIV PUSH20 0xFFFFFFFFFFFFFFFFFFFFFFFFFFFFFFFFFFFFFFFF AND PUSH20 0xFFFFFFFFFFFFFFFFFFFFFFFFFFFFFFFFFFFFFFFF AND CALLER PUSH20 0xFFFFFFFFFFFFFFFFFFFFFFFFFFFFFFFFFFFFFFFF AND EQ PUSH2 0x1385 JUMPI PUSH1 0x40 MLOAD PUSH32 0x8C379A000000000000000000000000000000000000000000000000000000000 DUP2 MSTORE PUSH1 0x4 ADD PUSH2 0x137C SWAP1 PUSH2 0x1EB5 JUMP JUMPDEST PUSH1 0x40 MLOAD DUP1 SWAP2 SUB SWAP1 REVERT JUMPDEST PUSH0 PUSH20 0xFFFFFFFFFFFFFFFFFFFFFFFFFFFFFFFFFFFFFFFF AND DUP2 PUSH20 0xFFFFFFFFFFFFFFFFFFFFFFFFFFFFFFFFFFFFFFFF AND SUB PUSH2 0x13F3 JUMPI PUSH1 0x40 MLOAD PUSH32 0x8C379A000000000000000000000000000000000000000000000000000000000 DUP2 MSTORE PUSH1 0x4 ADD PUSH2 0x13EA SWAP1 PUSH2 0x1F43 JUMP JUMPDEST PUSH1 0x40 MLOAD DUP1 SWAP2 SUB SWAP1 REVERT JUMPDEST DUP1 PUSH0 DUP1 PUSH2 0x100 EXP DUP2 SLOAD DUP2 PUSH20 0xFFFFFFFFFFFFFFFFFFFFFFFFFFFFFFFFFFFFFFFF MUL NOT AND SWAP1 DUP4 PUSH20 0xFFFFFFFFFFFFFFFFFFFFFFFFFFFFFFFFFFFFFFFF AND MUL OR SWAP1 SSTORE POP POP JUMP JUMPDEST PUSH0 PUSH1 0x4 PUSH0 DUP4 PUSH2 0xFFFF AND PUSH2 0xFFFF AND DUP2 MSTORE PUSH1 0x20 ADD SWAP1 DUP2 MSTORE PUSH1 0x20 ADD PUSH0 KECCAK256 PUSH0 SWAP1 SLOAD SWAP1 PUSH2 0x100 EXP SWAP1 DIV PUSH20 0xFFFFFFFFFFFFFFFFFFFFFFFFFFFFFFFFFFFFFFFF AND SWAP1 POP SWAP2 SWAP1 POP JUMP JUMPDEST PUSH0 DUP1 SLOAD SWAP1 PUSH2 0x100 EXP SWAP1 DIV PUSH20 0xFFFFFFFFFFFFFFFFFFFFFFFFFFFFFFFFFFFFFFFF AND DUP2 JUMP JUMPDEST PUSH1 0x1 PUSH0 SWAP1 SLOAD SWAP1 PUSH2 0x100 EXP SWAP1 DIV PUSH20 0xFFFFFFFFFFFFFFFFFFFFFFFFFFFFFFFFFFFFFFFF AND DUP2 JUMP JUMPDEST PUSH0 DUP1 PUSH1 0x3 PUSH0 DUP7 DUP2 MSTORE PUSH1 0x20 ADD SWAP1 DUP2 MSTORE PUSH1 0x20 ADD PUSH0 KECCAK256 PUSH0 DUP6 PUSH2 0xFFFF AND PUSH2 0xFFFF AND DUP2 MSTORE PUSH1 0x20 ADD SWAP1 DUP2 MSTORE PUSH1 0x20 ADD PUSH0 KECCAK256 SWAP1 POP PUSH0 DUP1 PUSH1 0x1 DUP2 GT ISZERO PUSH2 0x14FE JUMPI PUSH2 0x14FD PUSH2 0x1D07 JUMP JUMPDEST JUMPDEST DUP5 PUSH1 0x1 DUP2 GT ISZERO PUSH2 0x1511 JUMPI PUSH2 0x1510 PUSH2 0x1D07 JUMP JUMPDEST JUMPDEST SUB PUSH2 0x1531 JUMPI DUP2 PUSH1 0x1 ADD PUSH0 ADD PUSH1 0x6 SWAP1 SLOAD SWAP1 PUSH2 0x100 EXP SWAP1 DIV PUSH1 0xFF AND SWAP1 POP PUSH2 0x1574 JUMP JUMPDEST PUSH1 0x1 DUP1 DUP2 GT ISZERO PUSH2 0x1544 JUMPI PUSH2 0x1543 PUSH2 0x1D07 JUMP JUMPDEST JUMPDEST DUP5 PUSH1 0x1 DUP2 GT ISZERO PUSH2 0x1557 JUMPI PUSH2 0x1556 PUSH2 0x1D07 JUMP JUMPDEST JUMPDEST SUB PUSH2 0x1573 JUMPI DUP2 PUSH1 0x1 ADD PUSH0 ADD PUSH1 0x7 SWAP1 SLOAD SWAP1 PUSH2 0x100 EXP SWAP1 DIV PUSH1 0xFF AND SWAP1 POP JUMPDEST JUMPDEST DUP1 SWAP3 POP POP POP SWAP4 SWAP3 POP POP POP JUMP JUMPDEST PUSH0 DUP1 DUP3 PUSH2 0xFFFF AND EQ DUP1 PUSH2 0x15C5 JUMPI POP PUSH1 0x64 DUP3 PUSH2 0xFFFF AND LT ISZERO DUP1 ISZERO PUSH2 0x15A9 JUMPI POP PUSH2 0x3E7 DUP3 PUSH2 0xFFFF AND GT ISZERO JUMPDEST DUP1 ISZERO PUSH2 0x15C4 JUMPI POP PUSH0 PUSH1 0xA DUP4 PUSH2 0x15BE SWAP2 SWAP1 PUSH2 0x1F8E JUMP JUMPDEST PUSH2 0xFFFF AND EQ JUMPDEST JUMPDEST SWAP1 POP SWAP2 SWAP1 POP JUMP JUMPDEST PUSH1 0x40 MLOAD DUP1 PUSH1 0x60 ADD PUSH1 0x40 MSTORE DUP1 PUSH0 PUSH2 0xFFFF AND DUP2 MSTORE PUSH1 0x20 ADD PUSH0 ISZERO ISZERO DUP2 MSTORE PUSH1 0x20 ADD PUSH2 0x15F1 PUSH2 0x15F7 JUMP JUMPDEST DUP2 MSTORE POP SWAP1 JUMP JUMPDEST PUSH1 0x40 MLOAD DUP1 PUSH1 0xA0 ADD PUSH1 0x40 MSTORE DUP1 PUSH0 PUSH2 0xFFFF AND DUP2 MSTORE PUSH1 0x20 ADD PUSH0 PUSH2 0xFFFF AND DUP2 MSTORE PUSH1 0x20 ADD PUSH0 PUSH2 0xFFFF AND DUP2 MSTORE PUSH1 0x20 ADD PUSH0 ISZERO ISZERO DUP2 MSTORE PUSH1 0x20 ADD PUSH0 ISZERO ISZERO DUP2 MSTORE POP SWAP1 JUMP JUMPDEST PUSH0 DUP1 REVERT JUMPDEST PUSH0 DUP2 SWAP1 POP SWAP2 SWAP1 POP JUMP JUMPDEST PUSH2 0x1647 DUP2 PUSH2 0x1635 JUMP JUMPDEST DUP2 EQ PUSH2 0x1651 JUMPI PUSH0 DUP1 REVERT JUMPDEST POP JUMP JUMPDEST PUSH0 DUP2 CALLDATALOAD SWAP1 POP PUSH2 0x1662 DUP2 PUSH2 0x163E JUMP JUMPDEST SWAP3 SWAP2 POP POP JUMP JUMPDEST PUSH0 PUSH2 0xFFFF DUP3 AND SWAP1 POP SWAP2 SWAP1 POP JUMP JUMPDEST PUSH2 0x167E DUP2 PUSH2 0x1668 JUMP JUMPDEST DUP2 EQ PUSH2 0x1688 JUMPI PUSH0 DUP1 REVERT JUMPDEST POP JUMP JUMPDEST PUSH0 DUP2 CALLDATALOAD SWAP1 POP PUSH2 0x1699 DUP2 PUSH2 0x1675 JUMP JUMPDEST SWAP3 SWAP2 POP POP JUMP JUMPDEST PUSH0 DUP1 PUSH1 0x40 DUP4 DUP6 SUB SLT ISZERO PUSH2 0x16B5 JUMPI PUSH2 0x16B4 PUSH2 0x1631 JUMP JUMPDEST JUMPDEST PUSH0 PUSH2 0x16C2 DUP6 DUP3 DUP7 ADD PUSH2 0x1654 JUMP JUMPDEST SWAP3 POP POP PUSH1 0x20 PUSH2 0x16D3 DUP6 DUP3 DUP7 ADD PUSH2 0x168B JUMP JUMPDEST SWAP2 POP POP SWAP3 POP SWAP3 SWAP1 POP JUMP JUMPDEST PUSH2 0x16E6 DUP2 PUSH2 0x1668 JUMP JUMPDEST DUP3 MSTORE POP POP JUMP JUMPDEST PUSH0 DUP2 ISZERO ISZERO SWAP1 POP SWAP2 SWAP1 POP JUMP JUMPDEST PUSH2 0x1700 DUP2 PUSH2 0x16EC JUMP JUMPDEST DUP3 MSTORE POP POP JUMP JUMPDEST PUSH1 0xA0 DUP3 ADD PUSH0 DUP3 ADD MLOAD PUSH2 0x171A PUSH0 DUP6 ADD DUP3 PUSH2 0x16DD JUMP JUMPDEST POP PUSH1 0x20 DUP3 ADD MLOAD PUSH2 0x172D PUSH1 0x20 DUP6 ADD DUP3 PUSH2 0x16DD JUMP JUMPDEST POP PUSH1 0x40 DUP3 ADD MLOAD PUSH2 0x1740 PUSH1 0x40 DUP6 ADD DUP3 PUSH2 0x16DD JUMP JUMPDEST POP PUSH1 0x60 DUP3 ADD MLOAD PUSH2 0x1753 PUSH1 0x60 DUP6 ADD DUP3 PUSH2 0x16F7 JUMP JUMPDEST POP PUSH1 0x80 DUP3 ADD MLOAD PUSH2 0x1766 PUSH1 0x80 DUP6 ADD DUP3 PUSH2 0x16F7 JUMP JUMPDEST POP POP POP POP JUMP JUMPDEST PUSH1 0xE0 DUP3 ADD PUSH0 DUP3 ADD MLOAD PUSH2 0x1780 PUSH0 DUP6 ADD DUP3 PUSH2 0x16DD JUMP JUMPDEST POP PUSH1 0x20 DUP3 ADD MLOAD PUSH2 0x1793 PUSH1 0x20 DUP6 ADD DUP3 PUSH2 0x16F7 JUMP JUMPDEST POP PUSH1 0x40 DUP3 ADD MLOAD PUSH2 0x17A6 PUSH1 0x40 DUP6 ADD DUP3 PUSH2 0x1706 JUMP JUMPDEST POP POP POP POP JUMP JUMPDEST PUSH0 PUSH1 0xE0 DUP3 ADD SWAP1 POP PUSH2 0x17BF PUSH0 DUP4 ADD DUP5 PUSH2 0x176C JUMP JUMPDEST SWAP3 SWAP2 POP POP JUMP JUMPDEST PUSH1 0x2 DUP2 LT PUSH2 0x17D1 JUMPI PUSH0 DUP1 REVERT JUMPDEST POP JUMP JUMPDEST PUSH0 DUP2 CALLDATALOAD SWAP1 POP PUSH2 0x17E2 DUP2 PUSH2 0x17C5 JUMP JUMPDEST SWAP3 SWAP2 POP POP JUMP JUMPDEST PUSH0 DUP1 PUSH0 DUP1 PUSH1 0x80 DUP6 DUP8 SUB SLT ISZERO PUSH2 0x1800 JUMPI PUSH2 0x17FF PUSH2 0x1631 JUMP JUMPDEST JUMPDEST PUSH0 PUSH2 0x180D DUP8 DUP3 DUP9 ADD PUSH2 0x1654 JUMP JUMPDEST SWAP5 POP POP PUSH1 0x20 PUSH2 0x181E DUP8 DUP3 DUP9 ADD PUSH2 0x168B JUMP JUMPDEST SWAP4 POP POP PUSH1 0x40 PUSH2 0x182F DUP8 DUP3 DUP9 ADD PUSH2 0x168B JUMP JUMPDEST SWAP3 POP POP PUSH1 0x60 PUSH2 0x1840 DUP8 DUP3 DUP9 ADD PUSH2 0x17D4 JUMP JUMPDEST SWAP2 POP POP SWAP3 SWAP6 SWAP2 SWAP5 POP SWAP3 POP JUMP JUMPDEST PUSH0 PUSH1 0x20 DUP3 DUP5 SUB SLT ISZERO PUSH2 0x1861 JUMPI PUSH2 0x1860 PUSH2 0x1631 JUMP JUMPDEST JUMPDEST PUSH0 PUSH2 0x186E DUP5 DUP3 DUP6 ADD PUSH2 0x1654 JUMP JUMPDEST SWAP2 POP POP SWAP3 SWAP2 POP POP JUMP JUMPDEST PUSH0 DUP2 MLOAD SWAP1 POP SWAP2 SWAP1 POP JUMP JUMPDEST PUSH0 DUP3 DUP3 MSTORE PUSH1 0x20 DUP3 ADD SWAP1 POP SWAP3 SWAP2 POP POP JUMP JUMPDEST PUSH0 DUP2 SWAP1 POP PUSH1 0x20 DUP3 ADD SWAP1 POP SWAP2 SWAP1 POP JUMP JUMPDEST PUSH1 0xE0 DUP3 ADD PUSH0 DUP3 ADD MLOAD PUSH2 0x18B4 PUSH0 DUP6 ADD DUP3 PUSH2 0x16DD JUMP JUMPDEST POP PUSH1 0x20 DUP3 ADD MLOAD PUSH2 0x18C7 PUSH1 0x20 DUP6 ADD DUP3 PUSH2 0x16F7 JUMP JUMPDEST POP PUSH1 0x40 DUP3 ADD MLOAD PUSH2 0x18DA PUSH1 0x40 DUP6 ADD DUP3 PUSH2 0x1706 JUMP JUMPDEST POP POP POP POP JUMP JUMPDEST PUSH0 PUSH2 0x18EB DUP4 DUP4 PUSH2 0x18A0 JUMP JUMPDEST PUSH1 0xE0 DUP4 ADD SWAP1 POP SWAP3 SWAP2 POP POP JUMP JUMPDEST PUSH0 PUSH1 0x20 DUP3 ADD SWAP1 POP SWAP2 SWAP1 POP JUMP JUMPDEST PUSH0 PUSH2 0x190D DUP3 PUSH2 0x1877 JUMP JUMPDEST PUSH2 0x1917 DUP2 DUP6 PUSH2 0x1881 JUMP JUMPDEST SWAP4 POP PUSH2 0x1922 DUP4 PUSH2 0x1891 JUMP JUMPDEST DUP1 PUSH0 JUMPDEST DUP4 DUP2 LT ISZERO PUSH2 0x1952 JUMPI DUP2 MLOAD PUSH2 0x1939 DUP9 DUP3 PUSH2 0x18E0 JUMP JUMPDEST SWAP8 POP PUSH2 0x1944 DUP4 PUSH2 0x18F7 JUMP JUMPDEST SWAP3 POP POP PUSH1 0x1 DUP2 ADD SWAP1 POP PUSH2 0x1925 JUMP JUMPDEST POP DUP6 SWAP4 POP POP POP POP SWAP3 SWAP2 POP POP JUMP JUMPDEST PUSH0 PUSH1 0x20 DUP3 ADD SWAP1 POP DUP2 DUP2 SUB PUSH0 DUP4 ADD MSTORE PUSH2 0x1977 DUP2 DUP5 PUSH2 0x1903 JUMP JUMPDEST SWAP1 POP SWAP3 SWAP2 POP POP JUMP JUMPDEST PUSH0 PUSH20 0xFFFFFFFFFFFFFFFFFFFFFFFFFFFFFFFFFFFFFFFF DUP3 AND SWAP1 POP SWAP2 SWAP1 POP JUMP JUMPDEST PUSH0 PUSH2 0x19A8 DUP3 PUSH2 0x197F JUMP JUMPDEST SWAP1 POP SWAP2 SWAP1 POP JUMP JUMPDEST PUSH2 0x19B8 DUP2 PUSH2 0x199E JUMP JUMPDEST DUP2 EQ PUSH2 0x19C2 JUMPI PUSH0 DUP1 REVERT JUMPDEST POP JUMP JUMPDEST PUSH0 DUP2 CALLDATALOAD SWAP1 POP PUSH2 0x19D3 DUP2 PUSH2 0x19AF JUMP JUMPDEST SWAP3 SWAP2 POP POP JUMP JUMPDEST PUSH0 PUSH1 0x20 DUP3 DUP5 SUB SLT ISZERO PUSH2 0x19EE JUMPI PUSH2 0x19ED PUSH2 0x1631 JUMP JUMPDEST JUMPDEST PUSH0 PUSH2 0x19FB DUP5 DUP3 DUP6 ADD PUSH2 0x19C5 JUMP JUMPDEST SWAP2 POP POP SWAP3 SWAP2 POP POP JUMP JUMPDEST PUSH0 PUSH1 0x20 DUP3 DUP5 SUB SLT ISZERO PUSH2 0x1A19 JUMPI PUSH2 0x1A18 PUSH2 0x1631 JUMP JUMPDEST JUMPDEST PUSH0 PUSH2 0x1A26 DUP5 DUP3 DUP6 ADD PUSH2 0x168B JUMP JUMPDEST SWAP2 POP POP SWAP3 SWAP2 POP POP JUMP JUMPDEST PUSH2 0x1A38 DUP2 PUSH2 0x199E JUMP JUMPDEST DUP3 MSTORE POP POP JUMP JUMPDEST PUSH0 PUSH1 0x20 DUP3 ADD SWAP1 POP PUSH2 0x1A51 PUSH0 DUP4 ADD DUP5 PUSH2 0x1A2F JUMP JUMPDEST SWAP3 SWAP2 POP POP JUMP JUMPDEST PUSH0 DUP3 DUP3 MSTORE PUSH1 0x20 DUP3 ADD SWAP1 POP SWAP3 SWAP2 POP POP JUMP JUMPDEST PUSH32 0x4F6E6C792073656D6573746572206D616E6167656D656E7420636F6E74726163 PUSH0 DUP3 ADD MSTORE PUSH32 0x742063616E2063616C6C20746869732066756E6374696F6E0000000000000000 PUSH1 0x20 DUP3 ADD MSTORE POP JUMP JUMPDEST PUSH0 PUSH2 0x1AC1 PUSH1 0x38 DUP4 PUSH2 0x1A57 JUMP JUMPDEST SWAP2 POP PUSH2 0x1ACC DUP3 PUSH2 0x1A67 JUMP JUMPDEST PUSH1 0x40 DUP3 ADD SWAP1 POP SWAP2 SWAP1 POP JUMP JUMPDEST PUSH0 PUSH1 0x20 DUP3 ADD SWAP1 POP DUP2 DUP2 SUB PUSH0 DUP4 ADD MSTORE PUSH2 0x1AEE DUP2 PUSH2 0x1AB5 JUMP JUMPDEST SWAP1 POP SWAP2 SWAP1 POP JUMP JUMPDEST PUSH32 0x4F6E6C792061737369676E656420746561636865722063616E20706572666F72 PUSH0 DUP3 ADD MSTORE PUSH32 0x6D207468697320616374696F6E00000000000000000000000000000000000000 PUSH1 0x20 DUP3 ADD MSTORE POP JUMP JUMPDEST PUSH0 PUSH2 0x1B4F PUSH1 0x2D DUP4 PUSH2 0x1A57 JUMP JUMPDEST SWAP2 POP PUSH2 0x1B5A DUP3 PUSH2 0x1AF5 JUMP JUMPDEST PUSH1 0x40 DUP3 ADD SWAP1 POP SWAP2 SWAP1 POP JUMP JUMPDEST PUSH0 PUSH1 0x20 DUP3 ADD SWAP1 POP DUP2 DUP2 SUB PUSH0 DUP4 ADD MSTORE PUSH2 0x1B7C DUP2 PUSH2 0x1B43 JUMP JUMPDEST SWAP1 POP SWAP2 SWAP1 POP JUMP JUMPDEST PUSH32 0x436F75727365206E6F7420657869737465642021210000000000000000000000 PUSH0 DUP3 ADD MSTORE POP JUMP JUMPDEST PUSH0 PUSH2 0x1BB7 PUSH1 0x15 DUP4 PUSH2 0x1A57 JUMP JUMPDEST SWAP2 POP PUSH2 0x1BC2 DUP3 PUSH2 0x1B83 JUMP JUMPDEST PUSH1 0x20 DUP3 ADD SWAP1 POP SWAP2 SWAP1 POP JUMP JUMPDEST PUSH0 PUSH1 0x20 DUP3 ADD SWAP1 POP DUP2 DUP2 SUB PUSH0 DUP4 ADD MSTORE PUSH2 0x1BE4 DUP2 PUSH2 0x1BAB JUMP JUMPDEST SWAP1 POP SWAP2 SWAP1 POP JUMP JUMPDEST PUSH32 0x53636F7265206E6F74206578697374656420696E20636F757273652021210000 PUSH0 DUP3 ADD MSTORE POP JUMP JUMPDEST PUSH0 PUSH2 0x1C1F PUSH1 0x1E DUP4 PUSH2 0x1A57 JUMP JUMPDEST SWAP2 POP PUSH2 0x1C2A DUP3 PUSH2 0x1BEB JUMP JUMPDEST PUSH1 0x20 DUP3 ADD SWAP1 POP SWAP2 SWAP1 POP JUMP JUMPDEST PUSH0 PUSH1 0x20 DUP3 ADD SWAP1 POP DUP2 DUP2 SUB PUSH0 DUP4 ADD MSTORE PUSH2 0x1C4C DUP2 PUSH2 0x1C13 JUMP JUMPDEST SWAP1 POP SWAP2 SWAP1 POP JUMP JUMPDEST PUSH32 0x53636F7265206E6F742076616C69642C206D7573742062652030206F72206265 PUSH0 DUP3 ADD MSTORE PUSH32 0x747765656E2031303020616E64203939392C20616E6420646976697369626C65 PUSH1 0x20 DUP3 ADD MSTORE PUSH32 0x2062792031302100000000000000000000000000000000000000000000000000 PUSH1 0x40 DUP3 ADD MSTORE POP JUMP JUMPDEST PUSH0 PUSH2 0x1CD3 PUSH1 0x47 DUP4 PUSH2 0x1A57 JUMP JUMPDEST SWAP2 POP PUSH2 0x1CDE DUP3 PUSH2 0x1C53 JUMP JUMPDEST PUSH1 0x60 DUP3 ADD SWAP1 POP SWAP2 SWAP1 POP JUMP JUMPDEST PUSH0 PUSH1 0x20 DUP3 ADD SWAP1 POP DUP2 DUP2 SUB PUSH0 DUP4 ADD MSTORE PUSH2 0x1D00 DUP2 PUSH2 0x1CC7 JUMP JUMPDEST SWAP1 POP SWAP2 SWAP1 POP JUMP JUMPDEST PUSH32 0x4E487B7100000000000000000000000000000000000000000000000000000000 PUSH0 MSTORE PUSH1 0x21 PUSH1 0x4 MSTORE PUSH1 0x24 PUSH0 REVERT JUMPDEST PUSH32 0x4E487B7100000000000000000000000000000000000000000000000000000000 PUSH0 MSTORE PUSH1 0x32 PUSH1 0x4 MSTORE PUSH1 0x24 PUSH0 REVERT JUMPDEST PUSH32 0x4E487B7100000000000000000000000000000000000000000000000000000000 PUSH0 MSTORE PUSH1 0x11 PUSH1 0x4 MSTORE PUSH1 0x24 PUSH0 REVERT JUMPDEST PUSH0 PUSH2 0x1D98 DUP3 PUSH2 0x1668 JUMP JUMPDEST SWAP2 POP PUSH2 0xFFFF DUP3 SUB PUSH2 0x1DAC JUMPI PUSH2 0x1DAB PUSH2 0x1D61 JUMP JUMPDEST JUMPDEST PUSH1 0x1 DUP3 ADD SWAP1 POP SWAP2 SWAP1 POP JUMP JUMPDEST PUSH32 0x53636F726520697320616C7265616479206578697374656420696E20636F7572 PUSH0 DUP3 ADD MSTORE PUSH32 0x7365202121000000000000000000000000000000000000000000000000000000 PUSH1 0x20 DUP3 ADD MSTORE POP JUMP JUMPDEST PUSH0 PUSH2 0x1E11 PUSH1 0x25 DUP4 PUSH2 0x1A57 JUMP JUMPDEST SWAP2 POP PUSH2 0x1E1C DUP3 PUSH2 0x1DB7 JUMP JUMPDEST PUSH1 0x40 DUP3 ADD SWAP1 POP SWAP2 SWAP1 POP JUMP JUMPDEST PUSH0 PUSH1 0x20 DUP3 ADD SWAP1 POP DUP2 DUP2 SUB PUSH0 DUP4 ADD MSTORE PUSH2 0x1E3E DUP2 PUSH2 0x1E05 JUMP JUMPDEST SWAP1 POP SWAP2 SWAP1 POP JUMP JUMPDEST PUSH32 0x4F6E6C792061646D696E2063616E207570646174652073656D6573746572206D PUSH0 DUP3 ADD MSTORE PUSH32 0x616E6167656D656E742061646472657373000000000000000000000000000000 PUSH1 0x20 DUP3 ADD MSTORE POP JUMP JUMPDEST PUSH0 PUSH2 0x1E9F PUSH1 0x31 DUP4 PUSH2 0x1A57 JUMP JUMPDEST SWAP2 POP PUSH2 0x1EAA DUP3 PUSH2 0x1E45 JUMP JUMPDEST PUSH1 0x40 DUP3 ADD SWAP1 POP SWAP2 SWAP1 POP JUMP JUMPDEST PUSH0 PUSH1 0x20 DUP3 ADD SWAP1 POP DUP2 DUP2 SUB PUSH0 DUP4 ADD MSTORE PUSH2 0x1ECC DUP2 PUSH2 0x1E93 JUMP JUMPDEST SWAP1 POP SWAP2 SWAP1 POP JUMP JUMPDEST PUSH32 0x496E76616C69642073656D6573746572206D616E6167656D656E742061646472 PUSH0 DUP3 ADD MSTORE PUSH32 0x6573730000000000000000000000000000000000000000000000000000000000 PUSH1 0x20 DUP3 ADD MSTORE POP JUMP JUMPDEST PUSH0 PUSH2 0x1F2D PUSH1 0x23 DUP4 PUSH2 0x1A57 JUMP JUMPDEST SWAP2 POP PUSH2 0x1F38 DUP3 PUSH2 0x1ED3 JUMP JUMPDEST PUSH1 0x40 DUP3 ADD SWAP1 POP SWAP2 SWAP1 POP JUMP JUMPDEST PUSH0 PUSH1 0x20 DUP3 ADD SWAP1 POP DUP2 DUP2 SUB PUSH0 DUP4 ADD MSTORE PUSH2 0x1F5A DUP2 PUSH2 0x1F21 JUMP JUMPDEST SWAP1 POP SWAP2 SWAP1 POP JUMP JUMPDEST PUSH32 0x4E487B7100000000000000000000000000000000000000000000000000000000 PUSH0 MSTORE PUSH1 0x12 PUSH1 0x4 MSTORE PUSH1 0x24 PUSH0 REVERT JUMPDEST PUSH0 PUSH2 0x1F98 DUP3 PUSH2 0x1668 JUMP JUMPDEST SWAP2 POP PUSH2 0x1FA3 DUP4 PUSH2 0x1668 JUMP JUMPDEST SWAP3 POP DUP3 PUSH2 0x1FB3 JUMPI PUSH2 0x1FB2 PUSH2 0x1F61 JUMP JUMPDEST JUMPDEST DUP3 DUP3 MOD SWAP1 POP SWAP3 SWAP2 POP POP JUMP INVALID LOG2 PUSH5 0x6970667358 0x22 SLT KECCAK256 0xF9 MLOAD SMOD LT 0xB4 0x2F TIMESTAMP PUSH21 0x5EAF8453B1F1CA6F06A2890EE8021E9A6E2587EB86 PUSH22 0xB07864736F6C634300081A0033000000000000000000 "
				},
				"gasEstimates": {
					"creation": {
						"codeDepositCost": "1636000",
						"executionCost": "25978",
						"totalCost": "1661978"
					},
					"external": {
						"addCourseSectionScore(bytes32,uint16,uint16,uint8)": "infinite",
						"admin()": "2574",
						"getCourseSectionScore(bytes32,uint16)": "infinite",
						"getCourseSectionTeacher(uint16)": "2892",
						"getStudentCourseSections(bytes32)": "infinite",
						"semesterManagementAddress()": "2549",
						"updateSemesterManagementAddress(address)": "26918",
						"updateStudentCourseScore(bytes32,uint16,uint16,uint8)": "infinite"
					},
					"internal": {
						"isScoreExistedInCourseSection(bytes32,uint16,enum ScoreType)": "2574",
						"isValidScore(uint16)": "infinite"
					}
				},
				"methodIdentifiers": {
					"addCourseSectionScore(bytes32,uint16,uint16,uint8)": "260a5355",
					"admin()": "f851a440",
					"getCourseSectionScore(bytes32,uint16)": "0c5f8f02",
					"getCourseSectionTeacher(uint16)": "3dd77517",
					"getStudentCourseSections(bytes32)": "30c17ac0",
					"semesterManagementAddress()": "7f78bc69",
					"updateSemesterManagementAddress(address)": "369dc9df",
					"updateStudentCourseScore(bytes32,uint16,uint16,uint8)": "218e703d"
				}
			},
			"storageLayout": {
				"storage": [
					{
						"astId": 7,
						"contract": "contracts/CourseSectionManagement.sol:CourseSectionManagement",
						"label": "semesterManagementAddress",
						"offset": 0,
						"slot": "0",
						"type": "t_address"
					},
					{
						"astId": 9,
						"contract": "contracts/CourseSectionManagement.sol:CourseSectionManagement",
						"label": "admin",
						"offset": 0,
						"slot": "1",
						"type": "t_address"
					},
					{
						"astId": 15,
						"contract": "contracts/CourseSectionManagement.sol:CourseSectionManagement",
						"label": "studentCourseSections",
						"offset": 0,
						"slot": "2",
						"type": "t_mapping(t_bytes32,t_array(t_struct(CourseSection)593_storage)dyn_storage)"
					},
					{
						"astId": 22,
						"contract": "contracts/CourseSectionManagement.sol:CourseSectionManagement",
						"label": "courseSectionScore",
						"offset": 0,
						"slot": "3",
						"type": "t_mapping(t_bytes32,t_mapping(t_uint16,t_struct(CourseSection)593_storage))"
					},
					{
						"astId": 26,
						"contract": "contracts/CourseSectionManagement.sol:CourseSectionManagement",
						"label": "courseSectionTeachers",
						"offset": 0,
						"slot": "4",
						"type": "t_mapping(t_uint16,t_address)"
					}
				],
				"types": {
					"t_address": {
						"encoding": "inplace",
						"label": "address",
						"numberOfBytes": "20"
					},
					"t_array(t_struct(CourseSection)593_storage)dyn_storage": {
						"base": "t_struct(CourseSection)593_storage",
						"encoding": "dynamic_array",
						"label": "struct CourseSection[]",
						"numberOfBytes": "32"
					},
					"t_bool": {
						"encoding": "inplace",
						"label": "bool",
						"numberOfBytes": "1"
					},
					"t_bytes32": {
						"encoding": "inplace",
						"label": "bytes32",
						"numberOfBytes": "32"
					},
					"t_mapping(t_bytes32,t_array(t_struct(CourseSection)593_storage)dyn_storage)": {
						"encoding": "mapping",
						"key": "t_bytes32",
						"label": "mapping(bytes32 => struct CourseSection[])",
						"numberOfBytes": "32",
						"value": "t_array(t_struct(CourseSection)593_storage)dyn_storage"
					},
					"t_mapping(t_bytes32,t_mapping(t_uint16,t_struct(CourseSection)593_storage))": {
						"encoding": "mapping",
						"key": "t_bytes32",
						"label": "mapping(bytes32 => mapping(uint16 => struct CourseSection))",
						"numberOfBytes": "32",
						"value": "t_mapping(t_uint16,t_struct(CourseSection)593_storage)"
					},
					"t_mapping(t_uint16,t_address)": {
						"encoding": "mapping",
						"key": "t_uint16",
						"label": "mapping(uint16 => address)",
						"numberOfBytes": "32",
						"value": "t_address"
					},
					"t_mapping(t_uint16,t_struct(CourseSection)593_storage)": {
						"encoding": "mapping",
						"key": "t_uint16",
						"label": "mapping(uint16 => struct CourseSection)",
						"numberOfBytes": "32",
						"value": "t_struct(CourseSection)593_storage"
					},
					"t_struct(CourseSection)593_storage": {
						"encoding": "inplace",
						"label": "struct CourseSection",
						"members": [
							{
								"astId": 587,
								"contract": "contracts/CourseSectionManagement.sol:CourseSectionManagement",
								"label": "courseSectionId",
								"offset": 0,
								"slot": "0",
								"type": "t_uint16"
							},
							{
								"astId": 589,
								"contract": "contracts/CourseSectionManagement.sol:CourseSectionManagement",
								"label": "isCourseSectionExisted",
								"offset": 2,
								"slot": "0",
								"type": "t_bool"
							},
							{
								"astId": 592,
								"contract": "contracts/CourseSectionManagement.sol:CourseSectionManagement",
								"label": "score",
								"offset": 0,
								"slot": "1",
								"type": "t_struct(Score)585_storage"
							}
						],
						"numberOfBytes": "64"
					},
					"t_struct(Score)585_storage": {
						"encoding": "inplace",
						"label": "struct Score",
						"members": [
							{
								"astId": 576,
								"contract": "contracts/CourseSectionManagement.sol:CourseSectionManagement",
								"label": "midterm",
								"offset": 0,
								"slot": "0",
								"type": "t_uint16"
							},
							{
								"astId": 578,
								"contract": "contracts/CourseSectionManagement.sol:CourseSectionManagement",
								"label": "finalExam",
								"offset": 2,
								"slot": "0",
								"type": "t_uint16"
							},
							{
								"astId": 580,
								"contract": "contracts/CourseSectionManagement.sol:CourseSectionManagement",
								"label": "average",
								"offset": 4,
								"slot": "0",
								"type": "t_uint16"
							},
							{
								"astId": 582,
								"contract": "contracts/CourseSectionManagement.sol:CourseSectionManagement",
								"label": "isMidtermSet",
								"offset": 6,
								"slot": "0",
								"type": "t_bool"
							},
							{
								"astId": 584,
								"contract": "contracts/CourseSectionManagement.sol:CourseSectionManagement",
								"label": "isFinalExamSet",
								"offset": 7,
								"slot": "0",
								"type": "t_bool"
							}
						],
						"numberOfBytes": "32"
					},
					"t_uint16": {
						"encoding": "inplace",
						"label": "uint16",
						"numberOfBytes": "2"
					}
				}
			},
			"userdoc": {
				"kind": "user",
				"methods": {},
				"version": 1
			}
		}
	}
}